{
  "_format": "hh-sol-artifact-1",
  "contractName": "MyNFT",
  "sourceName": "contracts/MyNFT.sol",
  "abi": [
    {
      "inputs": [
        {
          "internalType": "uint256",
          "name": "maxPublic",
          "type": "uint256"
        },
        {
          "internalType": "uint256",
          "name": "maxReserved",
          "type": "uint256"
        },
        {
          "internalType": "uint256",
          "name": "startingReservedId",
          "type": "uint256"
        },
        {
          "internalType": "uint256",
          "name": "maxPerAddress",
          "type": "uint256"
        },
        {
          "internalType": "address[]",
          "name": "adminAddresses",
          "type": "address[]"
        }
      ],
      "stateMutability": "nonpayable",
      "type": "constructor"
    },
    {
      "anonymous": false,
      "inputs": [
        {
          "indexed": true,
          "internalType": "address",
          "name": "owner",
          "type": "address"
        },
        {
          "indexed": true,
          "internalType": "address",
          "name": "approved",
          "type": "address"
        },
        {
          "indexed": true,
          "internalType": "uint256",
          "name": "tokenId",
          "type": "uint256"
        }
      ],
      "name": "Approval",
      "type": "event"
    },
    {
      "anonymous": false,
      "inputs": [
        {
          "indexed": true,
          "internalType": "address",
          "name": "owner",
          "type": "address"
        },
        {
          "indexed": true,
          "internalType": "address",
          "name": "operator",
          "type": "address"
        },
        {
          "indexed": false,
          "internalType": "bool",
          "name": "approved",
          "type": "bool"
        }
      ],
      "name": "ApprovalForAll",
      "type": "event"
    },
    {
      "anonymous": false,
      "inputs": [
        {
          "indexed": true,
          "internalType": "bytes32",
          "name": "role",
          "type": "bytes32"
        },
        {
          "indexed": true,
          "internalType": "bytes32",
          "name": "previousAdminRole",
          "type": "bytes32"
        },
        {
          "indexed": true,
          "internalType": "bytes32",
          "name": "newAdminRole",
          "type": "bytes32"
        }
      ],
      "name": "RoleAdminChanged",
      "type": "event"
    },
    {
      "anonymous": false,
      "inputs": [
        {
          "indexed": true,
          "internalType": "bytes32",
          "name": "role",
          "type": "bytes32"
        },
        {
          "indexed": true,
          "internalType": "address",
          "name": "account",
          "type": "address"
        },
        {
          "indexed": true,
          "internalType": "address",
          "name": "sender",
          "type": "address"
        }
      ],
      "name": "RoleGranted",
      "type": "event"
    },
    {
      "anonymous": false,
      "inputs": [
        {
          "indexed": true,
          "internalType": "bytes32",
          "name": "role",
          "type": "bytes32"
        },
        {
          "indexed": true,
          "internalType": "address",
          "name": "account",
          "type": "address"
        },
        {
          "indexed": true,
          "internalType": "address",
          "name": "sender",
          "type": "address"
        }
      ],
      "name": "RoleRevoked",
      "type": "event"
    },
    {
      "anonymous": false,
      "inputs": [
        {
          "indexed": true,
          "internalType": "address",
          "name": "from",
          "type": "address"
        },
        {
          "indexed": true,
          "internalType": "address",
          "name": "to",
          "type": "address"
        },
        {
          "indexed": true,
          "internalType": "uint256",
          "name": "tokenId",
          "type": "uint256"
        }
      ],
      "name": "Transfer",
      "type": "event"
    },
    {
      "inputs": [],
      "name": "DEFAULT_ADMIN_ROLE",
      "outputs": [
        {
          "internalType": "bytes32",
          "name": "",
          "type": "bytes32"
        }
      ],
      "stateMutability": "view",
      "type": "function"
    },
    {
      "inputs": [],
      "name": "MAX_PER_ADDRESS",
      "outputs": [
        {
          "internalType": "uint256",
          "name": "",
          "type": "uint256"
        }
      ],
      "stateMutability": "view",
      "type": "function"
    },
    {
      "inputs": [],
      "name": "MAX_PUBLIC",
      "outputs": [
        {
          "internalType": "uint256",
          "name": "",
          "type": "uint256"
        }
      ],
      "stateMutability": "view",
      "type": "function"
    },
    {
      "inputs": [],
      "name": "MAX_RESERVED",
      "outputs": [
        {
          "internalType": "uint256",
          "name": "",
          "type": "uint256"
        }
      ],
      "stateMutability": "view",
      "type": "function"
    },
    {
      "inputs": [],
      "name": "MINTER_ROLE",
      "outputs": [
        {
          "internalType": "bytes32",
          "name": "",
          "type": "bytes32"
        }
      ],
      "stateMutability": "view",
      "type": "function"
    },
    {
      "inputs": [],
      "name": "STARTING_RESERVED_ID",
      "outputs": [
        {
          "internalType": "uint256",
          "name": "",
          "type": "uint256"
        }
      ],
      "stateMutability": "view",
      "type": "function"
    },
    {
      "inputs": [
        {
          "internalType": "address",
          "name": "to",
          "type": "address"
        },
        {
          "internalType": "uint256",
          "name": "tokenId",
          "type": "uint256"
        }
      ],
      "name": "approve",
      "outputs": [],
      "stateMutability": "nonpayable",
      "type": "function"
    },
    {
      "inputs": [
        {
          "internalType": "address",
          "name": "owner",
          "type": "address"
        }
      ],
      "name": "balanceOf",
      "outputs": [
        {
          "internalType": "uint256",
          "name": "",
          "type": "uint256"
        }
      ],
      "stateMutability": "view",
      "type": "function"
    },
    {
      "inputs": [
        {
          "internalType": "uint256",
          "name": "tokenId",
          "type": "uint256"
        }
      ],
      "name": "burn",
      "outputs": [],
      "stateMutability": "nonpayable",
      "type": "function"
    },
    {
      "inputs": [
        {
          "internalType": "uint256",
          "name": "tokenId",
          "type": "uint256"
        }
      ],
      "name": "getApproved",
      "outputs": [
        {
          "internalType": "address",
          "name": "",
          "type": "address"
        }
      ],
      "stateMutability": "view",
      "type": "function"
    },
    {
      "inputs": [
        {
          "internalType": "bytes32",
          "name": "role",
          "type": "bytes32"
        }
      ],
      "name": "getRoleAdmin",
      "outputs": [
        {
          "internalType": "bytes32",
          "name": "",
          "type": "bytes32"
        }
      ],
      "stateMutability": "view",
      "type": "function"
    },
    {
      "inputs": [
        {
          "internalType": "bytes32",
          "name": "role",
          "type": "bytes32"
        },
        {
          "internalType": "address",
          "name": "account",
          "type": "address"
        }
      ],
      "name": "grantRole",
      "outputs": [],
      "stateMutability": "nonpayable",
      "type": "function"
    },
    {
      "inputs": [
        {
          "internalType": "bytes32",
          "name": "role",
          "type": "bytes32"
        },
        {
          "internalType": "address",
          "name": "account",
          "type": "address"
        }
      ],
      "name": "hasRole",
      "outputs": [
        {
          "internalType": "bool",
          "name": "",
          "type": "bool"
        }
      ],
      "stateMutability": "view",
      "type": "function"
    },
    {
      "inputs": [
        {
          "internalType": "address",
          "name": "owner",
          "type": "address"
        },
        {
          "internalType": "address",
          "name": "operator",
          "type": "address"
        }
      ],
      "name": "isApprovedForAll",
      "outputs": [
        {
          "internalType": "bool",
          "name": "",
          "type": "bool"
        }
      ],
      "stateMutability": "view",
      "type": "function"
    },
    {
      "inputs": [],
      "name": "mintPublic",
      "outputs": [],
      "stateMutability": "nonpayable",
      "type": "function"
    },
    {
      "inputs": [
        {
          "internalType": "uint256[]",
          "name": "tokenIds",
          "type": "uint256[]"
        }
      ],
      "name": "mintReserved",
      "outputs": [],
      "stateMutability": "nonpayable",
      "type": "function"
    },
    {
      "inputs": [],
      "name": "name",
      "outputs": [
        {
          "internalType": "string",
          "name": "",
          "type": "string"
        }
      ],
      "stateMutability": "view",
      "type": "function"
    },
    {
      "inputs": [
        {
          "internalType": "uint256",
          "name": "tokenId",
          "type": "uint256"
        }
      ],
      "name": "ownerOf",
      "outputs": [
        {
          "internalType": "address",
          "name": "",
          "type": "address"
        }
      ],
      "stateMutability": "view",
      "type": "function"
    },
    {
      "inputs": [
        {
          "internalType": "bytes32",
          "name": "role",
          "type": "bytes32"
        },
        {
          "internalType": "address",
          "name": "account",
          "type": "address"
        }
      ],
      "name": "renounceRole",
      "outputs": [],
      "stateMutability": "nonpayable",
      "type": "function"
    },
    {
      "inputs": [],
      "name": "retrieve",
      "outputs": [
        {
          "internalType": "uint256",
          "name": "",
          "type": "uint256"
        }
      ],
      "stateMutability": "view",
      "type": "function"
    },
    {
      "inputs": [
        {
          "internalType": "bytes32",
          "name": "role",
          "type": "bytes32"
        },
        {
          "internalType": "address",
          "name": "account",
          "type": "address"
        }
      ],
      "name": "revokeRole",
      "outputs": [],
      "stateMutability": "nonpayable",
      "type": "function"
    },
    {
      "inputs": [
        {
          "internalType": "address",
          "name": "from",
          "type": "address"
        },
        {
          "internalType": "address",
          "name": "to",
          "type": "address"
        },
        {
          "internalType": "uint256",
          "name": "tokenId",
          "type": "uint256"
        }
      ],
      "name": "safeTransferFrom",
      "outputs": [],
      "stateMutability": "nonpayable",
      "type": "function"
    },
    {
      "inputs": [
        {
          "internalType": "address",
          "name": "from",
          "type": "address"
        },
        {
          "internalType": "address",
          "name": "to",
          "type": "address"
        },
        {
          "internalType": "uint256",
          "name": "tokenId",
          "type": "uint256"
        },
        {
          "internalType": "bytes",
          "name": "_data",
          "type": "bytes"
        }
      ],
      "name": "safeTransferFrom",
      "outputs": [],
      "stateMutability": "nonpayable",
      "type": "function"
    },
    {
      "inputs": [
        {
          "internalType": "address",
          "name": "operator",
          "type": "address"
        },
        {
          "internalType": "bool",
          "name": "approved",
          "type": "bool"
        }
      ],
      "name": "setApprovalForAll",
      "outputs": [],
      "stateMutability": "nonpayable",
      "type": "function"
    },
    {
      "inputs": [
        {
          "internalType": "uint256",
          "name": "_temporaryPublicMax",
          "type": "uint256"
        }
      ],
      "name": "setTemporaryPublicMax",
      "outputs": [],
      "stateMutability": "nonpayable",
      "type": "function"
    },
    {
      "inputs": [
        {
          "internalType": "uint256",
          "name": "num",
          "type": "uint256"
        }
      ],
      "name": "store",
      "outputs": [],
      "stateMutability": "nonpayable",
      "type": "function"
    },
    {
      "inputs": [
        {
          "internalType": "bytes4",
          "name": "interfaceId",
          "type": "bytes4"
        }
      ],
      "name": "supportsInterface",
      "outputs": [
        {
          "internalType": "bool",
          "name": "",
          "type": "bool"
        }
      ],
      "stateMutability": "view",
      "type": "function"
    },
    {
      "inputs": [],
      "name": "symbol",
      "outputs": [
        {
          "internalType": "string",
          "name": "",
          "type": "string"
        }
      ],
      "stateMutability": "view",
      "type": "function"
    },
    {
      "inputs": [],
      "name": "temporaryPublicMax",
      "outputs": [
        {
          "internalType": "uint256",
          "name": "",
          "type": "uint256"
        }
      ],
      "stateMutability": "view",
      "type": "function"
    },
    {
      "inputs": [
        {
          "internalType": "uint256",
          "name": "tokenId",
          "type": "uint256"
        }
      ],
      "name": "tokenURI",
      "outputs": [
        {
          "internalType": "string",
          "name": "",
          "type": "string"
        }
      ],
      "stateMutability": "view",
      "type": "function"
    },
    {
      "inputs": [],
      "name": "totalPublicSupply",
      "outputs": [
        {
          "internalType": "uint256",
          "name": "",
          "type": "uint256"
        }
      ],
      "stateMutability": "view",
      "type": "function"
    },
    {
      "inputs": [],
      "name": "totalReservedSupply",
      "outputs": [
        {
          "internalType": "uint256",
          "name": "",
          "type": "uint256"
        }
      ],
      "stateMutability": "view",
      "type": "function"
    },
    {
      "inputs": [],
      "name": "totalSupply",
      "outputs": [
        {
          "internalType": "uint256",
          "name": "",
          "type": "uint256"
        }
      ],
      "stateMutability": "view",
      "type": "function"
    },
    {
      "inputs": [
        {
          "internalType": "address",
          "name": "from",
          "type": "address"
        },
        {
          "internalType": "address",
          "name": "to",
          "type": "address"
        },
        {
          "internalType": "uint256",
          "name": "tokenId",
          "type": "uint256"
        }
      ],
      "name": "transferFrom",
      "outputs": [],
      "stateMutability": "nonpayable",
      "type": "function"
    }
  ],
  "bytecode": "0x61010060405260006008553480156200001757600080fd5b5060405162004a5038038062004a5083398181016040528101906200003d919062000531565b6040518060400160405280600581526020017f54756e65730000000000000000000000000000000000000000000000000000008152506040518060400160405280600481526020017f54554e45000000000000000000000000000000000000000000000000000000008152508160009080519060200190620000c1929190620003b1565b508060019080519060200190620000da929190620003b1565b50505081608081815250508460a081815250508360c081815250508260e0818152505060005b81518110156200022a57600073ffffffffffffffffffffffffffffffffffffffff168282815181106200015c577f4e487b7100000000000000000000000000000000000000000000000000000000600052603260045260246000fd5b602002602001015173ffffffffffffffffffffffffffffffffffffffff161415620001be576040517f08c379a0000000000000000000000000000000000000000000000000000000008152600401620001b5906200060e565b60405180910390fd5b620002146000801b83838151811062000200577f4e487b7100000000000000000000000000000000000000000000000000000000600052603260045260246000fd5b60200260200101516200023660201b60201c565b8080620002219062000718565b91505062000100565b50505050505062000827565b6200024882826200024c60201b60201c565b5050565b6200025e82826200033e60201b60201c565b6200033a5760016007600084815260200190815260200160002060000160008373ffffffffffffffffffffffffffffffffffffffff1673ffffffffffffffffffffffffffffffffffffffff16815260200190815260200160002060006101000a81548160ff021916908315150217905550620002df620003a960201b60201c565b73ffffffffffffffffffffffffffffffffffffffff168173ffffffffffffffffffffffffffffffffffffffff16837f2f8788117e7eff1d82e926ec794901d17c78024a50270940304540a733656f0d60405160405180910390a45b5050565b60006007600084815260200190815260200160002060000160008373ffffffffffffffffffffffffffffffffffffffff1673ffffffffffffffffffffffffffffffffffffffff16815260200190815260200160002060009054906101000a900460ff16905092915050565b600033905090565b828054620003bf90620006e2565b90600052602060002090601f016020900481019282620003e357600085556200042f565b82601f10620003fe57805160ff19168380011785556200042f565b828001600101855582156200042f579182015b828111156200042e57825182559160200191906001019062000411565b5b5090506200043e919062000442565b5090565b5b808211156200045d57600081600090555060010162000443565b5090565b600062000478620004728462000664565b62000630565b905080838252602082019050828560208602820111156200049857600080fd5b60005b85811015620004cc5781620004b18882620004d6565b8452602084019350602083019250506001810190506200049b565b5050509392505050565b600081519050620004e781620007f3565b92915050565b600082601f830112620004ff57600080fd5b81516200051184826020860162000461565b91505092915050565b6000815190506200052b816200080d565b92915050565b600080600080600060a086880312156200054a57600080fd5b60006200055a888289016200051a565b95505060206200056d888289016200051a565b945050604062000580888289016200051a565b935050606062000593888289016200051a565b925050608086015167ffffffffffffffff811115620005b157600080fd5b620005bf88828901620004ed565b9150509295509295909350565b6000620005db601a8362000693565b91507f43616e27742061646420746865206e756c6c20616464726573730000000000006000830152602082019050919050565b600060208201905081810360008301526200062981620005cc565b9050919050565b6000604051905081810181811067ffffffffffffffff821117156200065a5762000659620007c4565b5b8060405250919050565b600067ffffffffffffffff821115620006825762000681620007c4565b5b602082029050602081019050919050565b600082825260208201905092915050565b6000620006b182620006b8565b9050919050565b600073ffffffffffffffffffffffffffffffffffffffff82169050919050565b6000819050919050565b60006002820490506001821680620006fb57607f821691505b6020821081141562000712576200071162000795565b5b50919050565b60006200072582620006d8565b91507fffffffffffffffffffffffffffffffffffffffffffffffffffffffffffffffff8214156200075b576200075a62000766565b5b600182019050919050565b7f4e487b7100000000000000000000000000000000000000000000000000000000600052601160045260246000fd5b7f4e487b7100000000000000000000000000000000000000000000000000000000600052602260045260246000fd5b7f4e487b7100000000000000000000000000000000000000000000000000000000600052604160045260246000fd5b620007fe81620006a4565b81146200080a57600080fd5b50565b6200081881620006d8565b81146200082457600080fd5b50565b60805160a05160c05160e0516141b0620008a060003960008181610c4901528181610d4701528181610d930152610ff3015260008181610b6d01528181610c8201528181610d72015261101a015260008181610edf0152818161116d01526113240152600081816108be0152610e3e01526141b06000f3fe608060405234801561001057600080fd5b50600436106102065760003560e01c806370a082311161011a578063a217fddf116100ad578063d53913931161007c578063d5391393146105c7578063d547741f146105e5578063e6a5931e14610601578063e985e9c51461061f578063feaf67591461064f57610206565b8063a217fddf14610541578063a22cb4651461055f578063b88d4fde1461057b578063c87b56dd1461059757610206565b806391d14854116100e957806391d14854146104b757806395d89b41146104e75780639753eac0146105055780639783c35b1461052357610206565b806370a08231146104435780637eb88ff414610473578063831ec8d5146104915780638c874ebd146104ad57610206565b80632e64cec11161019d57806342966c681161016c57806342966c681461039f5780636057361d146103bb5780636352211e146103d7578063674d13c8146104075780636ba90c6e1461042557610206565b80632e64cec11461032d5780632f2ff15d1461034b57806336568abe1461036757806342842e0e1461038357610206565b80630aaef285116101d95780630aaef285146102a557806318160ddd146102c357806323b872dd146102e1578063248a9ca3146102fd57610206565b806301ffc9a71461020b57806306fdde031461023b578063081812fc14610259578063095ea7b314610289575b600080fd5b61022560048036038101906102209190612de1565b61066b565b6040516102329190613978565b60405180910390f35b61024361068d565b60405161025091906139ae565b60405180910390f35b610273600480360381019061026e9190612e33565b61071f565b6040516102809190613911565b60405180910390f35b6102a3600480360381019061029e9190612cfb565b6107a4565b005b6102ad6108bc565b6040516102ba9190613cd0565b60405180910390f35b6102cb6108e0565b6040516102d89190613cd0565b60405180910390f35b6102fb60048036038101906102f69190612bf5565b6108f7565b005b61031760048036038101906103129190612d7c565b610957565b6040516103249190613993565b60405180910390f35b610335610977565b6040516103429190613cd0565b60405180910390f35b61036560048036038101906103609190612da5565b610981565b005b610381600480360381019061037c9190612da5565b6109aa565b005b61039d60048036038101906103989190612bf5565b610a2d565b005b6103b960048036038101906103b49190612e33565b610a4d565b005b6103d560048036038101906103d09190612e33565b610aa9565b005b6103f160048036038101906103ec9190612e33565b610ab3565b6040516103fe9190613911565b60405180910390f35b61040f610b65565b60405161041c9190613cd0565b60405180910390f35b61042d610b6b565b60405161043a9190613cd0565b60405180910390f35b61045d60048036038101906104589190612b90565b610b8f565b60405161046a9190613cd0565b60405180910390f35b61047b610c47565b6040516104889190613cd0565b60405180910390f35b6104ab60048036038101906104a69190612d37565b610c6b565b005b6104b5610e3c565b005b6104d160048036038101906104cc9190612da5565b61106e565b6040516104de9190613978565b60405180910390f35b6104ef6110d9565b6040516104fc91906139ae565b60405180910390f35b61050d61116b565b60405161051a9190613cd0565b60405180910390f35b61052b61118f565b6040516105389190613cd0565b60405180910390f35b610549611195565b6040516105569190613993565b60405180910390f35b61057960048036038101906105749190612cbf565b61119c565b005b61059560048036038101906105909190612c44565b6111b2565b005b6105b160048036038101906105ac9190612e33565b611214565b6040516105be91906139ae565b60405180910390f35b6105cf611226565b6040516105dc9190613993565b60405180910390f35b6105ff60048036038101906105fa9190612da5565b61124a565b005b610609611273565b6040516106169190613cd0565b60405180910390f35b61063960048036038101906106349190612bb9565b611279565b6040516106469190613978565b60405180910390f35b61066960048036038101906106649190612e33565b61130d565b005b600061067682611390565b80610686575061068582611472565b5b9050919050565b60606000805461069c90613f8e565b80601f01602080910402602001604051908101604052809291908181526020018280546106c890613f8e565b80156107155780601f106106ea57610100808354040283529160200191610715565b820191906000526020600020905b8154815290600101906020018083116106f857829003601f168201915b5050505050905090565b600061072a826114ec565b610769576040517f08c379a000000000000000000000000000000000000000000000000000000000815260040161076090613b70565b60405180910390fd5b6004600083815260200190815260200160002060009054906101000a900473ffffffffffffffffffffffffffffffffffffffff169050919050565b60006107af82610ab3565b90508073ffffffffffffffffffffffffffffffffffffffff168373ffffffffffffffffffffffffffffffffffffffff161415610820576040517f08c379a000000000000000000000000000000000000000000000000000000000815260040161081790613bd0565b60405180910390fd5b8073ffffffffffffffffffffffffffffffffffffffff1661083f611558565b73ffffffffffffffffffffffffffffffffffffffff16148061086e575061086d81610868611558565b611279565b5b6108ad576040517f08c379a00000000000000000000000000000000000000000000000000000000081526004016108a490613ab0565b60405180910390fd5b6108b78383611560565b505050565b7f000000000000000000000000000000000000000000000000000000000000000081565b6000600b54600a546108f29190613d8f565b905090565b610908610902611558565b82611619565b610947576040517f08c379a000000000000000000000000000000000000000000000000000000000815260040161093e90613c10565b60405180910390fd5b6109528383836116f7565b505050565b600060076000838152602001908152602001600020600101549050919050565b6000600854905090565b61098a82610957565b61099b81610996611558565b611953565b6109a583836119f0565b505050565b6109b2611558565b73ffffffffffffffffffffffffffffffffffffffff168173ffffffffffffffffffffffffffffffffffffffff1614610a1f576040517f08c379a0000000000000000000000000000000000000000000000000000000008152600401610a1690613c70565b60405180910390fd5b610a298282611ad1565b5050565b610a48838383604051806020016040528060008152506111b2565b505050565b610a5e610a58611558565b82611619565b610a9d576040517f08c379a0000000000000000000000000000000000000000000000000000000008152600401610a9490613c50565b60405180910390fd5b610aa681611bb3565b50565b8060088190555050565b6000806002600084815260200190815260200160002060009054906101000a900473ffffffffffffffffffffffffffffffffffffffff169050600073ffffffffffffffffffffffffffffffffffffffff168173ffffffffffffffffffffffffffffffffffffffff161415610b5c576040517f08c379a0000000000000000000000000000000000000000000000000000000008152600401610b5390613af0565b60405180910390fd5b80915050919050565b600a5481565b7f000000000000000000000000000000000000000000000000000000000000000081565b60008073ffffffffffffffffffffffffffffffffffffffff168273ffffffffffffffffffffffffffffffffffffffff161415610c00576040517f08c379a0000000000000000000000000000000000000000000000000000000008152600401610bf790613ad0565b60405180910390fd5b600360008373ffffffffffffffffffffffffffffffffffffffff1673ffffffffffffffffffffffffffffffffffffffff168152602001908152602001600020549050919050565b7f000000000000000000000000000000000000000000000000000000000000000081565b6000801b610c8081610c7b611558565b611953565b7f000000000000000000000000000000000000000000000000000000000000000083839050600a54610cb29190613d8f565b1115610cf3576040517f08c379a0000000000000000000000000000000000000000000000000000000008152600401610cea90613c90565b60405180910390fd5b60005b83839050811015610e36576000848483818110610d3c577f4e487b7100000000000000000000000000000000000000000000000000000000600052603260045260246000fd5b9050602002013590507f00000000000000000000000000000000000000000000000000000000000000008110158015610dbf57507f00000000000000000000000000000000000000000000000000000000000000007f0000000000000000000000000000000000000000000000000000000000000000610dbc9190613d8f565b81105b610dfe576040517f08c379a0000000000000000000000000000000000000000000000000000000008152600401610df590613a10565b60405180910390fd5b6001600a6000828254610e119190613d8f565b92505081905550610e223382611bbf565b508080610e2e90613fc0565b915050610cf6565b50505050565b7f0000000000000000000000000000000000000000000000000000000000000000600960003373ffffffffffffffffffffffffffffffffffffffff1673ffffffffffffffffffffffffffffffffffffffff1681526020019081526020016000205410610edd576040517f08c379a0000000000000000000000000000000000000000000000000000000008152600401610ed490613bf0565b60405180910390fd5b7f0000000000000000000000000000000000000000000000000000000000000000600b5410610f41576040517f08c379a0000000000000000000000000000000000000000000000000000000008152600401610f3890613c30565b60405180910390fd5b600c54600b5410610f87576040517f08c379a0000000000000000000000000000000000000000000000000000000008152600401610f7e90613b10565b60405180910390fd5b6001600960003373ffffffffffffffffffffffffffffffffffffffff1673ffffffffffffffffffffffffffffffffffffffff1681526020019081526020016000206000828254610fd79190613d8f565b9250508190555060006001600b54610fef9190613d8f565b90507f00000000000000000000000000000000000000000000000000000000000000008110611047577f0000000000000000000000000000000000000000000000000000000000000000816110449190613d8f565b90505b6001600b600082825461105a9190613d8f565b9250508190555061106b3382611bbf565b50565b60006007600084815260200190815260200160002060000160008373ffffffffffffffffffffffffffffffffffffffff1673ffffffffffffffffffffffffffffffffffffffff16815260200190815260200160002060009054906101000a900460ff16905092915050565b6060600180546110e890613f8e565b80601f016020809104026020016040519081016040528092919081815260200182805461111490613f8e565b80156111615780601f1061113657610100808354040283529160200191611161565b820191906000526020600020905b81548152906001019060200180831161114457829003601f168201915b5050505050905090565b7f000000000000000000000000000000000000000000000000000000000000000081565b600c5481565b6000801b81565b6111ae6111a7611558565b8383611bdd565b5050565b6111c36111bd611558565b83611619565b611202576040517f08c379a00000000000000000000000000000000000000000000000000000000081526004016111f990613c10565b60405180910390fd5b61120e84848484611d4a565b50505050565b606061121f82611da6565b9050919050565b7fa49807205ce4d355092ef5a8a18f56e8913cf4a201fbe287825b095693c2177581565b61125382610957565b6112648161125f611558565b611953565b61126e8383611ad1565b505050565b600b5481565b6000600560008473ffffffffffffffffffffffffffffffffffffffff1673ffffffffffffffffffffffffffffffffffffffff16815260200190815260200160002060008373ffffffffffffffffffffffffffffffffffffffff1673ffffffffffffffffffffffffffffffffffffffff16815260200190815260200160002060009054906101000a900460ff16905092915050565b6000801b6113228161131d611558565b611953565b7f0000000000000000000000000000000000000000000000000000000000000000821115611385576040517f08c379a000000000000000000000000000000000000000000000000000000000815260040161137c90613cb0565b60405180910390fd5b81600c819055505050565b60007f80ac58cd000000000000000000000000000000000000000000000000000000007bffffffffffffffffffffffffffffffffffffffffffffffffffffffff1916827bffffffffffffffffffffffffffffffffffffffffffffffffffffffff1916148061145b57507f5b5e139f000000000000000000000000000000000000000000000000000000007bffffffffffffffffffffffffffffffffffffffffffffffffffffffff1916827bffffffffffffffffffffffffffffffffffffffffffffffffffffffff1916145b8061146b575061146a82611ef8565b5b9050919050565b60007f7965db0b000000000000000000000000000000000000000000000000000000007bffffffffffffffffffffffffffffffffffffffffffffffffffffffff1916827bffffffffffffffffffffffffffffffffffffffffffffffffffffffff191614806114e557506114e482611390565b5b9050919050565b60008073ffffffffffffffffffffffffffffffffffffffff166002600084815260200190815260200160002060009054906101000a900473ffffffffffffffffffffffffffffffffffffffff1673ffffffffffffffffffffffffffffffffffffffff1614159050919050565b600033905090565b816004600083815260200190815260200160002060006101000a81548173ffffffffffffffffffffffffffffffffffffffff021916908373ffffffffffffffffffffffffffffffffffffffff160217905550808273ffffffffffffffffffffffffffffffffffffffff166115d383610ab3565b73ffffffffffffffffffffffffffffffffffffffff167f8c5be1e5ebec7d5bd14f71427d1e84f3dd0314c0f7b2291e5b200ac8c7c3b92560405160405180910390a45050565b6000611624826114ec565b611663576040517f08c379a000000000000000000000000000000000000000000000000000000000815260040161165a90613a90565b60405180910390fd5b600061166e83610ab3565b90508073ffffffffffffffffffffffffffffffffffffffff168473ffffffffffffffffffffffffffffffffffffffff1614806116dd57508373ffffffffffffffffffffffffffffffffffffffff166116c58461071f565b73ffffffffffffffffffffffffffffffffffffffff16145b806116ee57506116ed8185611279565b5b91505092915050565b8273ffffffffffffffffffffffffffffffffffffffff1661171782610ab3565b73ffffffffffffffffffffffffffffffffffffffff161461176d576040517f08c379a000000000000000000000000000000000000000000000000000000000815260040161176490613b90565b60405180910390fd5b600073ffffffffffffffffffffffffffffffffffffffff168273ffffffffffffffffffffffffffffffffffffffff1614156117dd576040517f08c379a00000000000000000000000000000000000000000000000000000000081526004016117d490613a50565b60405180910390fd5b6117e8838383611f62565b6117f3600082611560565b6001600360008573ffffffffffffffffffffffffffffffffffffffff1673ffffffffffffffffffffffffffffffffffffffff16815260200190815260200160002060008282546118439190613e70565b925050819055506001600360008473ffffffffffffffffffffffffffffffffffffffff1673ffffffffffffffffffffffffffffffffffffffff168152602001908152602001600020600082825461189a9190613d8f565b92505081905550816002600083815260200190815260200160002060006101000a81548173ffffffffffffffffffffffffffffffffffffffff021916908373ffffffffffffffffffffffffffffffffffffffff160217905550808273ffffffffffffffffffffffffffffffffffffffff168473ffffffffffffffffffffffffffffffffffffffff167fddf252ad1be2c89b69c2b068fc378daa952ba7f163c4a11628f55a4df523b3ef60405160405180910390a4505050565b61195d828261106e565b6119ec576119828173ffffffffffffffffffffffffffffffffffffffff166014611f67565b6119908360001c6020611f67565b6040516020016119a19291906138d7565b6040516020818303038152906040526040517f08c379a00000000000000000000000000000000000000000000000000000000081526004016119e391906139ae565b60405180910390fd5b5050565b6119fa828261106e565b611acd5760016007600084815260200190815260200160002060000160008373ffffffffffffffffffffffffffffffffffffffff1673ffffffffffffffffffffffffffffffffffffffff16815260200190815260200160002060006101000a81548160ff021916908315150217905550611a72611558565b73ffffffffffffffffffffffffffffffffffffffff168173ffffffffffffffffffffffffffffffffffffffff16837f2f8788117e7eff1d82e926ec794901d17c78024a50270940304540a733656f0d60405160405180910390a45b5050565b611adb828261106e565b15611baf5760006007600084815260200190815260200160002060000160008373ffffffffffffffffffffffffffffffffffffffff1673ffffffffffffffffffffffffffffffffffffffff16815260200190815260200160002060006101000a81548160ff021916908315150217905550611b54611558565b73ffffffffffffffffffffffffffffffffffffffff168173ffffffffffffffffffffffffffffffffffffffff16837ff6391f5c32d9c69d2a47ea670b442974b53935d1edc7fd64eb21e047a839171b60405160405180910390a45b5050565b611bbc81612261565b50565b611bd98282604051806020016040528060008152506122b4565b5050565b8173ffffffffffffffffffffffffffffffffffffffff168373ffffffffffffffffffffffffffffffffffffffff161415611c4c576040517f08c379a0000000000000000000000000000000000000000000000000000000008152600401611c4390613a70565b60405180910390fd5b80600560008573ffffffffffffffffffffffffffffffffffffffff1673ffffffffffffffffffffffffffffffffffffffff16815260200190815260200160002060008473ffffffffffffffffffffffffffffffffffffffff1673ffffffffffffffffffffffffffffffffffffffff16815260200190815260200160002060006101000a81548160ff0219169083151502179055508173ffffffffffffffffffffffffffffffffffffffff168373ffffffffffffffffffffffffffffffffffffffff167f17307eab39ab6107e8899845ad3d59bd9653f200f220920489ca2b5937696c3183604051611d3d9190613978565b60405180910390a3505050565b611d558484846116f7565b611d618484848461230f565b611da0576040517f08c379a0000000000000000000000000000000000000000000000000000000008152600401611d97906139f0565b60405180910390fd5b50505050565b6060611db1826114ec565b611df0576040517f08c379a0000000000000000000000000000000000000000000000000000000008152600401611de790613b50565b60405180910390fd5b6000600660008481526020019081526020016000208054611e1090613f8e565b80601f0160208091040260200160405190810160405280929190818152602001828054611e3c90613f8e565b8015611e895780601f10611e5e57610100808354040283529160200191611e89565b820191906000526020600020905b815481529060010190602001808311611e6c57829003601f168201915b505050505090506000611e9a6124a6565b9050600081511415611eb0578192505050611ef3565b600082511115611ee5578082604051602001611ecd9291906138b3565b60405160208183030381529060405292505050611ef3565b611eee846124bd565b925050505b919050565b60007f01ffc9a7000000000000000000000000000000000000000000000000000000007bffffffffffffffffffffffffffffffffffffffffffffffffffffffff1916827bffffffffffffffffffffffffffffffffffffffffffffffffffffffff1916149050919050565b505050565b606060006002836002611f7a9190613e16565b611f849190613d8f565b67ffffffffffffffff811115611fc3577f4e487b7100000000000000000000000000000000000000000000000000000000600052604160045260246000fd5b6040519080825280601f01601f191660200182016040528015611ff55781602001600182028036833780820191505090505b5090507f300000000000000000000000000000000000000000000000000000000000000081600081518110612053577f4e487b7100000000000000000000000000000000000000000000000000000000600052603260045260246000fd5b60200101907effffffffffffffffffffffffffffffffffffffffffffffffffffffffffffff1916908160001a9053507f7800000000000000000000000000000000000000000000000000000000000000816001815181106120dd577f4e487b7100000000000000000000000000000000000000000000000000000000600052603260045260246000fd5b60200101907effffffffffffffffffffffffffffffffffffffffffffffffffffffffffffff1916908160001a9053506000600184600261211d9190613e16565b6121279190613d8f565b90505b6001811115612213577f3031323334353637383961626364656600000000000000000000000000000000600f86166010811061218f577f4e487b7100000000000000000000000000000000000000000000000000000000600052603260045260246000fd5b1a60f81b8282815181106121cc577f4e487b7100000000000000000000000000000000000000000000000000000000600052603260045260246000fd5b60200101907effffffffffffffffffffffffffffffffffffffffffffffffffffffffffffff1916908160001a905350600485901c94508061220c90613f64565b905061212a565b5060008414612257576040517f08c379a000000000000000000000000000000000000000000000000000000000815260040161224e906139d0565b60405180910390fd5b8091505092915050565b61226a81612564565b600060066000838152602001908152602001600020805461228a90613f8e565b9050146122b1576006600082815260200190815260200160002060006122b09190612a03565b5b50565b6122be8383612675565b6122cb600084848461230f565b61230a576040517f08c379a0000000000000000000000000000000000000000000000000000000008152600401612301906139f0565b60405180910390fd5b505050565b60006123308473ffffffffffffffffffffffffffffffffffffffff16612843565b15612499578373ffffffffffffffffffffffffffffffffffffffff1663150b7a02612359611558565b8786866040518563ffffffff1660e01b815260040161237b949392919061392c565b602060405180830381600087803b15801561239557600080fd5b505af19250505080156123c657506040513d601f19601f820116820180604052508101906123c39190612e0a565b60015b612449573d80600081146123f6576040519150601f19603f3d011682016040523d82523d6000602084013e6123fb565b606091505b50600081511415612441576040517f08c379a0000000000000000000000000000000000000000000000000000000008152600401612438906139f0565b60405180910390fd5b805181602001fd5b63150b7a0260e01b7bffffffffffffffffffffffffffffffffffffffffffffffffffffffff1916817bffffffffffffffffffffffffffffffffffffffffffffffffffffffff19161491505061249e565b600190505b949350505050565b606060405180602001604052806000815250905090565b60606124c8826114ec565b612507576040517f08c379a00000000000000000000000000000000000000000000000000000000081526004016124fe90613bb0565b60405180910390fd5b60006125116124a6565b90506000815111612531576040518060200160405280600081525061255c565b8061253b84612856565b60405160200161254c9291906138b3565b6040516020818303038152906040525b915050919050565b600061256f82610ab3565b905061257d81600084611f62565b612588600083611560565b6001600360008373ffffffffffffffffffffffffffffffffffffffff1673ffffffffffffffffffffffffffffffffffffffff16815260200190815260200160002060008282546125d89190613e70565b925050819055506002600083815260200190815260200160002060006101000a81549073ffffffffffffffffffffffffffffffffffffffff021916905581600073ffffffffffffffffffffffffffffffffffffffff168273ffffffffffffffffffffffffffffffffffffffff167fddf252ad1be2c89b69c2b068fc378daa952ba7f163c4a11628f55a4df523b3ef60405160405180910390a45050565b600073ffffffffffffffffffffffffffffffffffffffff168273ffffffffffffffffffffffffffffffffffffffff1614156126e5576040517f08c379a00000000000000000000000000000000000000000000000000000000081526004016126dc90613b30565b60405180910390fd5b6126ee816114ec565b1561272e576040517f08c379a000000000000000000000000000000000000000000000000000000000815260040161272590613a30565b60405180910390fd5b61273a60008383611f62565b6001600360008473ffffffffffffffffffffffffffffffffffffffff1673ffffffffffffffffffffffffffffffffffffffff168152602001908152602001600020600082825461278a9190613d8f565b92505081905550816002600083815260200190815260200160002060006101000a81548173ffffffffffffffffffffffffffffffffffffffff021916908373ffffffffffffffffffffffffffffffffffffffff160217905550808273ffffffffffffffffffffffffffffffffffffffff16600073ffffffffffffffffffffffffffffffffffffffff167fddf252ad1be2c89b69c2b068fc378daa952ba7f163c4a11628f55a4df523b3ef60405160405180910390a45050565b600080823b905060008111915050919050565b6060600082141561289e576040518060400160405280600181526020017f300000000000000000000000000000000000000000000000000000000000000081525090506129fe565b600082905060005b600082146128d05780806128b990613fc0565b915050600a826128c99190613de5565b91506128a6565b60008167ffffffffffffffff811115612912577f4e487b7100000000000000000000000000000000000000000000000000000000600052604160045260246000fd5b6040519080825280601f01601f1916602001820160405280156129445781602001600182028036833780820191505090505b5090505b600085146129f75760018261295d9190613e70565b9150600a8561296c9190614009565b60306129789190613d8f565b60f81b8183815181106129b4577f4e487b7100000000000000000000000000000000000000000000000000000000600052603260045260246000fd5b60200101907effffffffffffffffffffffffffffffffffffffffffffffffffffffffffffff1916908160001a905350600a856129f09190613de5565b9450612948565b8093505050505b919050565b508054612a0f90613f8e565b6000825580601f10612a215750612a40565b601f016020900490600052602060002090810190612a3f9190612a43565b5b50565b5b80821115612a5c576000816000905550600101612a44565b5090565b6000612a73612a6e84613d1c565b613ceb565b905082815260208101848484011115612a8b57600080fd5b612a96848285613f22565b509392505050565b600081359050612aad81614107565b92915050565b60008083601f840112612ac557600080fd5b8235905067ffffffffffffffff811115612ade57600080fd5b602083019150836020820283011115612af657600080fd5b9250929050565b600081359050612b0c8161411e565b92915050565b600081359050612b2181614135565b92915050565b600081359050612b368161414c565b92915050565b600081519050612b4b8161414c565b92915050565b600082601f830112612b6257600080fd5b8135612b72848260208601612a60565b91505092915050565b600081359050612b8a81614163565b92915050565b600060208284031215612ba257600080fd5b6000612bb084828501612a9e565b91505092915050565b60008060408385031215612bcc57600080fd5b6000612bda85828601612a9e565b9250506020612beb85828601612a9e565b9150509250929050565b600080600060608486031215612c0a57600080fd5b6000612c1886828701612a9e565b9350506020612c2986828701612a9e565b9250506040612c3a86828701612b7b565b9150509250925092565b60008060008060808587031215612c5a57600080fd5b6000612c6887828801612a9e565b9450506020612c7987828801612a9e565b9350506040612c8a87828801612b7b565b925050606085013567ffffffffffffffff811115612ca757600080fd5b612cb387828801612b51565b91505092959194509250565b60008060408385031215612cd257600080fd5b6000612ce085828601612a9e565b9250506020612cf185828601612afd565b9150509250929050565b60008060408385031215612d0e57600080fd5b6000612d1c85828601612a9e565b9250506020612d2d85828601612b7b565b9150509250929050565b60008060208385031215612d4a57600080fd5b600083013567ffffffffffffffff811115612d6457600080fd5b612d7085828601612ab3565b92509250509250929050565b600060208284031215612d8e57600080fd5b6000612d9c84828501612b12565b91505092915050565b60008060408385031215612db857600080fd5b6000612dc685828601612b12565b9250506020612dd785828601612a9e565b9150509250929050565b600060208284031215612df357600080fd5b6000612e0184828501612b27565b91505092915050565b600060208284031215612e1c57600080fd5b6000612e2a84828501612b3c565b91505092915050565b600060208284031215612e4557600080fd5b6000612e5384828501612b7b565b91505092915050565b612e6581613ea4565b82525050565b612e7481613eb6565b82525050565b612e8381613ec2565b82525050565b6000612e9482613d4c565b612e9e8185613d62565b9350612eae818560208601613f31565b612eb7816140f6565b840191505092915050565b6000612ecd82613d57565b612ed78185613d73565b9350612ee7818560208601613f31565b612ef0816140f6565b840191505092915050565b6000612f0682613d57565b612f108185613d84565b9350612f20818560208601613f31565b80840191505092915050565b6000612f39602083613d73565b91507f537472696e67733a20686578206c656e67746820696e73756666696369656e746000830152602082019050919050565b6000612f79603283613d73565b91507f4552433732313a207472616e7366657220746f206e6f6e20455243373231526560008301527f63656976657220696d706c656d656e74657200000000000000000000000000006020830152604082019050919050565b6000612fdf602583613d73565b91507f546f6b656e204944206973206e6f7420696e207468652072657365727665207260008301527f616e67652e0000000000000000000000000000000000000000000000000000006020830152604082019050919050565b6000613045601c83613d73565b91507f4552433732313a20746f6b656e20616c7265616479206d696e746564000000006000830152602082019050919050565b6000613085602483613d73565b91507f4552433732313a207472616e7366657220746f20746865207a65726f2061646460008301527f72657373000000000000000000000000000000000000000000000000000000006020830152604082019050919050565b60006130eb601983613d73565b91507f4552433732313a20617070726f766520746f2063616c6c6572000000000000006000830152602082019050919050565b600061312b602c83613d73565b91507f4552433732313a206f70657261746f7220717565727920666f72206e6f6e657860008301527f697374656e7420746f6b656e00000000000000000000000000000000000000006020830152604082019050919050565b6000613191603883613d73565b91507f4552433732313a20617070726f76652063616c6c6572206973206e6f74206f7760008301527f6e6572206e6f7220617070726f76656420666f7220616c6c00000000000000006020830152604082019050919050565b60006131f7602a83613d73565b91507f4552433732313a2062616c616e636520717565727920666f7220746865207a6560008301527f726f2061646472657373000000000000000000000000000000000000000000006020830152604082019050919050565b600061325d602983613d73565b91507f4552433732313a206f776e657220717565727920666f72206e6f6e657869737460008301527f656e7420746f6b656e00000000000000000000000000000000000000000000006020830152604082019050919050565b60006132c3603783613d73565b91507f546865726520617265206e6f206d6f7265204e46547320666f72207075626c6960008301527f63206d696e74696e6720617420746869732074696d652e0000000000000000006020830152604082019050919050565b6000613329602083613d73565b91507f4552433732313a206d696e7420746f20746865207a65726f20616464726573736000830152602082019050919050565b6000613369603183613d73565b91507f45524337323155524953746f726167653a2055524920717565727920666f722060008301527f6e6f6e6578697374656e7420746f6b656e0000000000000000000000000000006020830152604082019050919050565b60006133cf602c83613d73565b91507f4552433732313a20617070726f76656420717565727920666f72206e6f6e657860008301527f697374656e7420746f6b656e00000000000000000000000000000000000000006020830152604082019050919050565b6000613435602983613d73565b91507f4552433732313a207472616e73666572206f6620746f6b656e2074686174206960008301527f73206e6f74206f776e00000000000000000000000000000000000000000000006020830152604082019050919050565b600061349b602f83613d73565b91507f4552433732314d657461646174613a2055524920717565727920666f72206e6f60008301527f6e6578697374656e7420746f6b656e00000000000000000000000000000000006020830152604082019050919050565b6000613501602183613d73565b91507f4552433732313a20617070726f76616c20746f2063757272656e74206f776e6560008301527f72000000000000000000000000000000000000000000000000000000000000006020830152604082019050919050565b6000613567602483613d73565b91507f596f752068617665207265616368656420796f7572206d696e74696e67206c6960008301527f6d69742e000000000000000000000000000000000000000000000000000000006020830152604082019050919050565b60006135cd603183613d73565b91507f4552433732313a207472616e736665722063616c6c6572206973206e6f74206f60008301527f776e6572206e6f7220617070726f7665640000000000000000000000000000006020830152604082019050919050565b6000613633602a83613d73565b91507f546865726520617265206e6f206d6f7265204e46547320666f72207075626c6960008301527f63206d696e74696e672e000000000000000000000000000000000000000000006020830152604082019050919050565b6000613699601783613d84565b91507f416363657373436f6e74726f6c3a206163636f756e74200000000000000000006000830152601782019050919050565b60006136d9603083613d73565b91507f4552433732314275726e61626c653a2063616c6c6572206973206e6f74206f7760008301527f6e6572206e6f7220617070726f766564000000000000000000000000000000006020830152604082019050919050565b600061373f601183613d84565b91507f206973206d697373696e6720726f6c65200000000000000000000000000000006000830152601182019050919050565b600061377f602f83613d73565b91507f416363657373436f6e74726f6c3a2063616e206f6e6c792072656e6f756e636560008301527f20726f6c657320666f722073656c6600000000000000000000000000000000006020830152604082019050919050565b60006137e5603483613d73565b91507f5468697320776f756c64206578636565642074686520746f74616c206e756d6260008301527f6572206f66207265736572766564204e4654732e0000000000000000000000006020830152604082019050919050565b600061384b603a83613d73565b91507f596f752063616e6e6f7420736574207468652074656d706f72617279206d617860008301527f2061626f766520746865206162736f6c75746520746f74616c2e0000000000006020830152604082019050919050565b6138ad81613f18565b82525050565b60006138bf8285612efb565b91506138cb8284612efb565b91508190509392505050565b60006138e28261368c565b91506138ee8285612efb565b91506138f982613732565b91506139058284612efb565b91508190509392505050565b60006020820190506139266000830184612e5c565b92915050565b60006080820190506139416000830187612e5c565b61394e6020830186612e5c565b61395b60408301856138a4565b818103606083015261396d8184612e89565b905095945050505050565b600060208201905061398d6000830184612e6b565b92915050565b60006020820190506139a86000830184612e7a565b92915050565b600060208201905081810360008301526139c88184612ec2565b905092915050565b600060208201905081810360008301526139e981612f2c565b9050919050565b60006020820190508181036000830152613a0981612f6c565b9050919050565b60006020820190508181036000830152613a2981612fd2565b9050919050565b60006020820190508181036000830152613a4981613038565b9050919050565b60006020820190508181036000830152613a6981613078565b9050919050565b60006020820190508181036000830152613a89816130de565b9050919050565b60006020820190508181036000830152613aa98161311e565b9050919050565b60006020820190508181036000830152613ac981613184565b9050919050565b60006020820190508181036000830152613ae9816131ea565b9050919050565b60006020820190508181036000830152613b0981613250565b9050919050565b60006020820190508181036000830152613b29816132b6565b9050919050565b60006020820190508181036000830152613b498161331c565b9050919050565b60006020820190508181036000830152613b698161335c565b9050919050565b60006020820190508181036000830152613b89816133c2565b9050919050565b60006020820190508181036000830152613ba981613428565b9050919050565b60006020820190508181036000830152613bc98161348e565b9050919050565b60006020820190508181036000830152613be9816134f4565b9050919050565b60006020820190508181036000830152613c098161355a565b9050919050565b60006020820190508181036000830152613c29816135c0565b9050919050565b60006020820190508181036000830152613c4981613626565b9050919050565b60006020820190508181036000830152613c69816136cc565b9050919050565b60006020820190508181036000830152613c8981613772565b9050919050565b60006020820190508181036000830152613ca9816137d8565b9050919050565b60006020820190508181036000830152613cc98161383e565b9050919050565b6000602082019050613ce560008301846138a4565b92915050565b6000604051905081810181811067ffffffffffffffff82111715613d1257613d116140c7565b5b8060405250919050565b600067ffffffffffffffff821115613d3757613d366140c7565b5b601f19601f8301169050602081019050919050565b600081519050919050565b600081519050919050565b600082825260208201905092915050565b600082825260208201905092915050565b600081905092915050565b6000613d9a82613f18565b9150613da583613f18565b9250827fffffffffffffffffffffffffffffffffffffffffffffffffffffffffffffffff03821115613dda57613dd961403a565b5b828201905092915050565b6000613df082613f18565b9150613dfb83613f18565b925082613e0b57613e0a614069565b5b828204905092915050565b6000613e2182613f18565b9150613e2c83613f18565b9250817fffffffffffffffffffffffffffffffffffffffffffffffffffffffffffffffff0483118215151615613e6557613e6461403a565b5b828202905092915050565b6000613e7b82613f18565b9150613e8683613f18565b925082821015613e9957613e9861403a565b5b828203905092915050565b6000613eaf82613ef8565b9050919050565b60008115159050919050565b6000819050919050565b60007fffffffff0000000000000000000000000000000000000000000000000000000082169050919050565b600073ffffffffffffffffffffffffffffffffffffffff82169050919050565b6000819050919050565b82818337600083830152505050565b60005b83811015613f4f578082015181840152602081019050613f34565b83811115613f5e576000848401525b50505050565b6000613f6f82613f18565b91506000821415613f8357613f8261403a565b5b600182039050919050565b60006002820490506001821680613fa657607f821691505b60208210811415613fba57613fb9614098565b5b50919050565b6000613fcb82613f18565b91507fffffffffffffffffffffffffffffffffffffffffffffffffffffffffffffffff821415613ffe57613ffd61403a565b5b600182019050919050565b600061401482613f18565b915061401f83613f18565b92508261402f5761402e614069565b5b828206905092915050565b7f4e487b7100000000000000000000000000000000000000000000000000000000600052601160045260246000fd5b7f4e487b7100000000000000000000000000000000000000000000000000000000600052601260045260246000fd5b7f4e487b7100000000000000000000000000000000000000000000000000000000600052602260045260246000fd5b7f4e487b7100000000000000000000000000000000000000000000000000000000600052604160045260246000fd5b6000601f19601f8301169050919050565b61411081613ea4565b811461411b57600080fd5b50565b61412781613eb6565b811461413257600080fd5b50565b61413e81613ec2565b811461414957600080fd5b50565b61415581613ecc565b811461416057600080fd5b50565b61416c81613f18565b811461417757600080fd5b5056fea26469706673582212203de787cc5744abecb675ae50bd327eef4708ba58f03807166876469bc16293a564736f6c63430008000033",
  "linkReferences": {},
  "deployedLinkReferences": {}
}