{
  "_format": "hh-sol-artifact-1",
  "contractName": "MyNFT",
  "sourceName": "contracts/MyNFT.sol",
  "abi": [
    {
      "inputs": [
        {
          "internalType": "uint256",
          "name": "_temporaryMaxPublic",
          "type": "uint256"
        },
        {
          "internalType": "address[]",
          "name": "_adminAddresses",
          "type": "address[]"
        }
      ],
      "stateMutability": "nonpayable",
      "type": "constructor"
    },
    {
      "anonymous": false,
      "inputs": [
        {
          "indexed": true,
          "internalType": "address",
          "name": "owner",
          "type": "address"
        },
        {
          "indexed": true,
          "internalType": "address",
          "name": "approved",
          "type": "address"
        },
        {
          "indexed": true,
          "internalType": "uint256",
          "name": "tokenId",
          "type": "uint256"
        }
      ],
      "name": "Approval",
      "type": "event"
    },
    {
      "anonymous": false,
      "inputs": [
        {
          "indexed": true,
          "internalType": "address",
          "name": "owner",
          "type": "address"
        },
        {
          "indexed": true,
          "internalType": "address",
          "name": "operator",
          "type": "address"
        },
        {
          "indexed": false,
          "internalType": "bool",
          "name": "approved",
          "type": "bool"
        }
      ],
      "name": "ApprovalForAll",
      "type": "event"
    },
    {
      "anonymous": false,
      "inputs": [
        {
          "indexed": true,
          "internalType": "bytes32",
          "name": "role",
          "type": "bytes32"
        },
        {
          "indexed": true,
          "internalType": "bytes32",
          "name": "previousAdminRole",
          "type": "bytes32"
        },
        {
          "indexed": true,
          "internalType": "bytes32",
          "name": "newAdminRole",
          "type": "bytes32"
        }
      ],
      "name": "RoleAdminChanged",
      "type": "event"
    },
    {
      "anonymous": false,
      "inputs": [
        {
          "indexed": true,
          "internalType": "bytes32",
          "name": "role",
          "type": "bytes32"
        },
        {
          "indexed": true,
          "internalType": "address",
          "name": "account",
          "type": "address"
        },
        {
          "indexed": true,
          "internalType": "address",
          "name": "sender",
          "type": "address"
        }
      ],
      "name": "RoleGranted",
      "type": "event"
    },
    {
      "anonymous": false,
      "inputs": [
        {
          "indexed": true,
          "internalType": "bytes32",
          "name": "role",
          "type": "bytes32"
        },
        {
          "indexed": true,
          "internalType": "address",
          "name": "account",
          "type": "address"
        },
        {
          "indexed": true,
          "internalType": "address",
          "name": "sender",
          "type": "address"
        }
      ],
      "name": "RoleRevoked",
      "type": "event"
    },
    {
      "anonymous": false,
      "inputs": [
        {
          "indexed": true,
          "internalType": "address",
          "name": "from",
          "type": "address"
        },
        {
          "indexed": true,
          "internalType": "address",
          "name": "to",
          "type": "address"
        },
        {
          "indexed": true,
          "internalType": "uint256",
          "name": "tokenId",
          "type": "uint256"
        }
      ],
      "name": "Transfer",
      "type": "event"
    },
    {
      "inputs": [],
      "name": "DEFAULT_ADMIN_ROLE",
      "outputs": [
        {
          "internalType": "bytes32",
          "name": "",
          "type": "bytes32"
        }
      ],
      "stateMutability": "view",
      "type": "function"
    },
    {
      "inputs": [],
      "name": "MAX_PER_PUBLIC_ADDRESS",
      "outputs": [
        {
          "internalType": "uint256",
          "name": "",
          "type": "uint256"
        }
      ],
      "stateMutability": "view",
      "type": "function"
    },
    {
      "inputs": [],
      "name": "MAX_PUBLIC",
      "outputs": [
        {
          "internalType": "uint256",
          "name": "",
          "type": "uint256"
        }
      ],
      "stateMutability": "view",
      "type": "function"
    },
    {
      "inputs": [],
      "name": "MAX_RESERVED",
      "outputs": [
        {
          "internalType": "uint256",
          "name": "",
          "type": "uint256"
        }
      ],
      "stateMutability": "view",
      "type": "function"
    },
    {
      "inputs": [
        {
          "internalType": "address",
          "name": "to",
          "type": "address"
        },
        {
          "internalType": "uint256",
          "name": "tokenId",
          "type": "uint256"
        }
      ],
      "name": "approve",
      "outputs": [],
      "stateMutability": "nonpayable",
      "type": "function"
    },
    {
      "inputs": [
        {
          "internalType": "address",
          "name": "owner",
          "type": "address"
        }
      ],
      "name": "balanceOf",
      "outputs": [
        {
          "internalType": "uint256",
          "name": "",
          "type": "uint256"
        }
      ],
      "stateMutability": "view",
      "type": "function"
    },
    {
      "inputs": [
        {
          "internalType": "uint256",
          "name": "tokenId",
          "type": "uint256"
        }
      ],
      "name": "burn",
      "outputs": [],
      "stateMutability": "nonpayable",
      "type": "function"
    },
    {
      "inputs": [
        {
          "internalType": "uint256",
          "name": "tokenId",
          "type": "uint256"
        }
      ],
      "name": "getApproved",
      "outputs": [
        {
          "internalType": "address",
          "name": "",
          "type": "address"
        }
      ],
      "stateMutability": "view",
      "type": "function"
    },
    {
      "inputs": [
        {
          "internalType": "bytes32",
          "name": "role",
          "type": "bytes32"
        }
      ],
      "name": "getRoleAdmin",
      "outputs": [
        {
          "internalType": "bytes32",
          "name": "",
          "type": "bytes32"
        }
      ],
      "stateMutability": "view",
      "type": "function"
    },
    {
      "inputs": [
        {
          "internalType": "bytes32",
          "name": "role",
          "type": "bytes32"
        },
        {
          "internalType": "address",
          "name": "account",
          "type": "address"
        }
      ],
      "name": "grantRole",
      "outputs": [],
      "stateMutability": "nonpayable",
      "type": "function"
    },
    {
      "inputs": [
        {
          "internalType": "bytes32",
          "name": "role",
          "type": "bytes32"
        },
        {
          "internalType": "address",
          "name": "account",
          "type": "address"
        }
      ],
      "name": "hasRole",
      "outputs": [
        {
          "internalType": "bool",
          "name": "",
          "type": "bool"
        }
      ],
      "stateMutability": "view",
      "type": "function"
    },
    {
      "inputs": [
        {
          "internalType": "address",
          "name": "owner",
          "type": "address"
        },
        {
          "internalType": "address",
          "name": "operator",
          "type": "address"
        }
      ],
      "name": "isApprovedForAll",
      "outputs": [
        {
          "internalType": "bool",
          "name": "",
          "type": "bool"
        }
      ],
      "stateMutability": "view",
      "type": "function"
    },
    {
      "inputs": [],
      "name": "mintPublic",
      "outputs": [],
      "stateMutability": "nonpayable",
      "type": "function"
    },
    {
      "inputs": [
        {
          "internalType": "uint256",
          "name": "numTokens",
          "type": "uint256"
        }
      ],
      "name": "mintReserved",
      "outputs": [],
      "stateMutability": "nonpayable",
      "type": "function"
    },
    {
      "inputs": [],
      "name": "name",
      "outputs": [
        {
          "internalType": "string",
          "name": "",
          "type": "string"
        }
      ],
      "stateMutability": "view",
      "type": "function"
    },
    {
      "inputs": [
        {
          "internalType": "uint256",
          "name": "tokenId",
          "type": "uint256"
        }
      ],
      "name": "ownerOf",
      "outputs": [
        {
          "internalType": "address",
          "name": "",
          "type": "address"
        }
      ],
      "stateMutability": "view",
      "type": "function"
    },
    {
      "inputs": [
        {
          "internalType": "bytes32",
          "name": "role",
          "type": "bytes32"
        },
        {
          "internalType": "address",
          "name": "account",
          "type": "address"
        }
      ],
      "name": "renounceRole",
      "outputs": [],
      "stateMutability": "nonpayable",
      "type": "function"
    },
    {
      "inputs": [
        {
          "internalType": "bytes32",
          "name": "role",
          "type": "bytes32"
        },
        {
          "internalType": "address",
          "name": "account",
          "type": "address"
        }
      ],
      "name": "revokeRole",
      "outputs": [],
      "stateMutability": "nonpayable",
      "type": "function"
    },
    {
      "inputs": [
        {
          "internalType": "address",
          "name": "from",
          "type": "address"
        },
        {
          "internalType": "address",
          "name": "to",
          "type": "address"
        },
        {
          "internalType": "uint256",
          "name": "tokenId",
          "type": "uint256"
        }
      ],
      "name": "safeTransferFrom",
      "outputs": [],
      "stateMutability": "nonpayable",
      "type": "function"
    },
    {
      "inputs": [
        {
          "internalType": "address",
          "name": "from",
          "type": "address"
        },
        {
          "internalType": "address",
          "name": "to",
          "type": "address"
        },
        {
          "internalType": "uint256",
          "name": "tokenId",
          "type": "uint256"
        },
        {
          "internalType": "bytes",
          "name": "_data",
          "type": "bytes"
        }
      ],
      "name": "safeTransferFrom",
      "outputs": [],
      "stateMutability": "nonpayable",
      "type": "function"
    },
    {
      "inputs": [
        {
          "internalType": "address",
          "name": "operator",
          "type": "address"
        },
        {
          "internalType": "bool",
          "name": "approved",
          "type": "bool"
        }
      ],
      "name": "setApprovalForAll",
      "outputs": [],
      "stateMutability": "nonpayable",
      "type": "function"
    },
    {
      "inputs": [
        {
          "internalType": "uint256",
          "name": "_temporaryMaxPublic",
          "type": "uint256"
        }
      ],
      "name": "setTemporaryMaxPublic",
      "outputs": [],
      "stateMutability": "nonpayable",
      "type": "function"
    },
    {
      "inputs": [
        {
          "internalType": "bytes4",
          "name": "interfaceId",
          "type": "bytes4"
        }
      ],
      "name": "supportsInterface",
      "outputs": [
        {
          "internalType": "bool",
          "name": "",
          "type": "bool"
        }
      ],
      "stateMutability": "view",
      "type": "function"
    },
    {
      "inputs": [],
      "name": "symbol",
      "outputs": [
        {
          "internalType": "string",
          "name": "",
          "type": "string"
        }
      ],
      "stateMutability": "view",
      "type": "function"
    },
    {
      "inputs": [],
      "name": "temporaryMaxPublic",
      "outputs": [
        {
          "internalType": "uint256",
          "name": "",
          "type": "uint256"
        }
      ],
      "stateMutability": "view",
      "type": "function"
    },
    {
      "inputs": [
        {
          "internalType": "uint256",
          "name": "tokenId",
          "type": "uint256"
        }
      ],
      "name": "tokenURI",
      "outputs": [
        {
          "internalType": "string",
          "name": "",
          "type": "string"
        }
      ],
      "stateMutability": "view",
      "type": "function"
    },
    {
      "inputs": [],
      "name": "totalSupply",
      "outputs": [
        {
          "internalType": "uint256",
          "name": "",
          "type": "uint256"
        }
      ],
      "stateMutability": "view",
      "type": "function"
    },
    {
      "inputs": [
        {
          "internalType": "address",
          "name": "from",
          "type": "address"
        },
        {
          "internalType": "address",
          "name": "to",
          "type": "address"
        },
        {
          "internalType": "uint256",
          "name": "tokenId",
          "type": "uint256"
        }
      ],
      "name": "transferFrom",
      "outputs": [],
      "stateMutability": "nonpayable",
      "type": "function"
    }
  ],
  "bytecode": "0x60806040523480156200001157600080fd5b50604051620046b1380380620046b1833981810160405281019062000037919062000587565b6040518060400160405280600581526020017f4d794e46540000000000000000000000000000000000000000000000000000008152506040518060400160405280600381526020017f4e465400000000000000000000000000000000000000000000000000000000008152508160009080519060200190620000bb92919062000407565b508060019080519060200190620000d492919062000407565b50505060288211156200011e576040517f08c379a0000000000000000000000000000000000000000000000000000000008152600401620001159062000737565b60405180910390fd5b600081511162000165576040517f08c379a00000000000000000000000000000000000000000000000000000000081526004016200015c90620006f3565b60405180910390fd5b81600a8190555060005b81518110156200029957600073ffffffffffffffffffffffffffffffffffffffff16828281518110620001cb577f4e487b7100000000000000000000000000000000000000000000000000000000600052603260045260246000fd5b602002602001015173ffffffffffffffffffffffffffffffffffffffff1614156200022d576040517f08c379a0000000000000000000000000000000000000000000000000000000008152600401620002249062000715565b60405180910390fd5b620002836000801b8383815181106200026f577f4e487b7100000000000000000000000000000000000000000000000000000000600052603260045260246000fd5b6020026020010151620002a260201b60201c565b8080620002909062000841565b9150506200016f565b50505062000950565b620002b482826200039460201b60201c565b620003905760016007600084815260200190815260200160002060000160008373ffffffffffffffffffffffffffffffffffffffff1673ffffffffffffffffffffffffffffffffffffffff16815260200190815260200160002060006101000a81548160ff02191690831515021790555062000335620003ff60201b60201c565b73ffffffffffffffffffffffffffffffffffffffff168173ffffffffffffffffffffffffffffffffffffffff16837f2f8788117e7eff1d82e926ec794901d17c78024a50270940304540a733656f0d60405160405180910390a45b5050565b60006007600084815260200190815260200160002060000160008373ffffffffffffffffffffffffffffffffffffffff1673ffffffffffffffffffffffffffffffffffffffff16815260200190815260200160002060009054906101000a900460ff16905092915050565b600033905090565b82805462000415906200080b565b90600052602060002090601f01602090048101928262000439576000855562000485565b82601f106200045457805160ff191683800117855562000485565b8280016001018555821562000485579182015b828111156200048457825182559160200191906001019062000467565b5b50905062000494919062000498565b5090565b5b80821115620004b357600081600090555060010162000499565b5090565b6000620004ce620004c8846200078d565b62000759565b90508083825260208201905082856020860282011115620004ee57600080fd5b60005b858110156200052257816200050788826200052c565b845260208401935060208301925050600181019050620004f1565b5050509392505050565b6000815190506200053d816200091c565b92915050565b600082601f8301126200055557600080fd5b815162000567848260208601620004b7565b91505092915050565b600081519050620005818162000936565b92915050565b600080604083850312156200059b57600080fd5b6000620005ab8582860162000570565b925050602083015167ffffffffffffffff811115620005c957600080fd5b620005d78582860162000543565b9150509250929050565b6000620005f0602583620007bc565b91507f5f61646d696e416464726573736573206c656e6774682063616e6e6f7420626560008301527f207a65726f0000000000000000000000000000000000000000000000000000006020830152604082019050919050565b600062000658601c83620007bc565b91507f61646d696e2063616e6e6f74206265207a65726f2061646472657373000000006000830152602082019050919050565b60006200069a603b83620007bc565b91507f5f74656d706f726172794d61785075626c69632063616e6e6f7420626520677260008301527f6561746572207468616e206d6178207075626c69632076616c756500000000006020830152604082019050919050565b600060208201905081810360008301526200070e81620005e1565b9050919050565b60006020820190508181036000830152620007308162000649565b9050919050565b6000602082019050818103600083015262000752816200068b565b9050919050565b6000604051905081810181811067ffffffffffffffff82111715620007835762000782620008ed565b5b8060405250919050565b600067ffffffffffffffff821115620007ab57620007aa620008ed565b5b602082029050602081019050919050565b600082825260208201905092915050565b6000620007da82620007e1565b9050919050565b600073ffffffffffffffffffffffffffffffffffffffff82169050919050565b6000819050919050565b600060028204905060018216806200082457607f821691505b602082108114156200083b576200083a620008be565b5b50919050565b60006200084e8262000801565b91507fffffffffffffffffffffffffffffffffffffffffffffffffffffffffffffffff8214156200088457620008836200088f565b5b600182019050919050565b7f4e487b7100000000000000000000000000000000000000000000000000000000600052601160045260246000fd5b7f4e487b7100000000000000000000000000000000000000000000000000000000600052602260045260246000fd5b7f4e487b7100000000000000000000000000000000000000000000000000000000600052604160045260246000fd5b6200092781620007cd565b81146200093357600080fd5b50565b620009418162000801565b81146200094d57600080fd5b50565b613d5180620009606000396000f3fe608060405234801561001057600080fd5b50600436106101c45760003560e01c80638a0b46fe116100f9578063a22cb46511610097578063b88d4fde11610071578063b88d4fde146104df578063c87b56dd146104fb578063d547741f1461052b578063e985e9c514610547576101c4565b8063a22cb46514610489578063a41547e3146104a5578063a60157e6146104c3576101c4565b806395d89b41116100d357806395d89b41146104135780639753eac0146104315780639a5d140b1461044f578063a217fddf1461046b576101c4565b80638a0b46fe146103bb5780638c874ebd146103d957806391d14854146103e3576101c4565b80632f2ff15d1161016657806342966c681161014057806342966c68146103215780636352211e1461033d5780636ba90c6e1461036d57806370a082311461038b576101c4565b80632f2ff15d146102cd57806336568abe146102e957806342842e0e14610305576101c4565b8063095ea7b3116101a2578063095ea7b31461024757806318160ddd1461026357806323b872dd14610281578063248a9ca31461029d576101c4565b806301ffc9a7146101c957806306fdde03146101f9578063081812fc14610217575b600080fd5b6101e360048036038101906101de91906129a8565b610577565b6040516101f09190613519565b60405180910390f35b610201610599565b60405161020e919061354f565b60405180910390f35b610231600480360381019061022c91906129fa565b61062b565b60405161023e91906134b2565b60405180910390f35b610261600480360381019061025c9190612907565b6106b0565b005b61026b6107c8565b6040516102789190613871565b60405180910390f35b61029b60048036038101906102969190612801565b6107ed565b005b6102b760048036038101906102b29190612943565b61084d565b6040516102c49190613534565b60405180910390f35b6102e760048036038101906102e2919061296c565b61086d565b005b61030360048036038101906102fe919061296c565b610896565b005b61031f600480360381019061031a9190612801565b610919565b005b61033b600480360381019061033691906129fa565b610939565b005b610357600480360381019061035291906129fa565b610995565b60405161036491906134b2565b60405180910390f35b610375610a47565b6040516103829190613871565b60405180910390f35b6103a560048036038101906103a0919061279c565b610a4c565b6040516103b29190613871565b60405180910390f35b6103c3610b04565b6040516103d09190613871565b60405180910390f35b6103e1610b09565b005b6103fd60048036038101906103f8919061296c565b610c0c565b60405161040a9190613519565b60405180910390f35b61041b610c77565b604051610428919061354f565b60405180910390f35b610439610d09565b6040516104469190613871565b60405180910390f35b610469600480360381019061046491906129fa565b610d0e565b005b610473610e0a565b6040516104809190613534565b60405180910390f35b6104a3600480360381019061049e91906128cb565b610e11565b005b6104ad610e27565b6040516104ba9190613871565b60405180910390f35b6104dd60048036038101906104d891906129fa565b610e2d565b005b6104f960048036038101906104f49190612850565b610e91565b005b610515600480360381019061051091906129fa565b610ef3565b604051610522919061354f565b60405180910390f35b6105456004803603810190610540919061296c565b610f05565b005b610561600480360381019061055c91906127c5565b610f2e565b60405161056e9190613519565b60405180910390f35b600061058282610fc2565b806105925750610591826110a4565b5b9050919050565b6060600080546105a890613b2f565b80601f01602080910402602001604051908101604052809291908181526020018280546105d490613b2f565b80156106215780601f106105f657610100808354040283529160200191610621565b820191906000526020600020905b81548152906001019060200180831161060457829003601f168201915b5050505050905090565b60006106368261111e565b610675576040517f08c379a000000000000000000000000000000000000000000000000000000000815260040161066c90613711565b60405180910390fd5b6004600083815260200190815260200160002060009054906101000a900473ffffffffffffffffffffffffffffffffffffffff169050919050565b60006106bb82610995565b90508073ffffffffffffffffffffffffffffffffffffffff168373ffffffffffffffffffffffffffffffffffffffff16141561072c576040517f08c379a000000000000000000000000000000000000000000000000000000000815260040161072390613771565b60405180910390fd5b8073ffffffffffffffffffffffffffffffffffffffff1661074b61118a565b73ffffffffffffffffffffffffffffffffffffffff16148061077a57506107798161077461118a565b610f2e565b5b6107b9576040517f08c379a00000000000000000000000000000000000000000000000000000000081526004016107b090613651565b60405180910390fd5b6107c38383611192565b505050565b60006107d4600861124b565b6107de600961124b565b6107e89190613930565b905090565b6107fe6107f861118a565b82611259565b61083d576040517f08c379a0000000000000000000000000000000000000000000000000000000008152600401610834906137b1565b60405180910390fd5b610848838383611337565b505050565b600060076000838152602001908152602001600020600101549050919050565b6108768261084d565b6108878161088261118a565b611593565b6108918383611630565b505050565b61089e61118a565b73ffffffffffffffffffffffffffffffffffffffff168173ffffffffffffffffffffffffffffffffffffffff161461090b576040517f08c379a000000000000000000000000000000000000000000000000000000000815260040161090290613851565b60405180910390fd5b6109158282611711565b5050565b61093483838360405180602001604052806000815250610e91565b505050565b61094a61094461118a565b82611259565b610989576040517f08c379a000000000000000000000000000000000000000000000000000000000815260040161098090613831565b60405180910390fd5b610992816117f3565b50565b6000806002600084815260200190815260200160002060009054906101000a900473ffffffffffffffffffffffffffffffffffffffff169050600073ffffffffffffffffffffffffffffffffffffffff168173ffffffffffffffffffffffffffffffffffffffff161415610a3e576040517f08c379a0000000000000000000000000000000000000000000000000000000008152600401610a3590613691565b60405180910390fd5b80915050919050565b600a81565b60008073ffffffffffffffffffffffffffffffffffffffff168273ffffffffffffffffffffffffffffffffffffffff161415610abd576040517f08c379a0000000000000000000000000000000000000000000000000000000008152600401610ab490613671565b60405180910390fd5b600360008373ffffffffffffffffffffffffffffffffffffffff1673ffffffffffffffffffffffffffffffffffffffff168152602001908152602001600020549050919050565b600381565b6003610b1433610a4c565b10610b54576040517f08c379a0000000000000000000000000000000000000000000000000000000008152600401610b4b906137f1565b60405180910390fd5b6028610b60600861124b565b10610ba0576040517f08c379a0000000000000000000000000000000000000000000000000000000008152600401610b97906135d1565b60405180910390fd5b600a54610bad600861124b565b10610bed576040517f08c379a0000000000000000000000000000000000000000000000000000000008152600401610be490613791565b60405180910390fd5b610bf760086117ff565b610c0a33610c05600861124b565b611815565b565b60006007600084815260200190815260200160002060000160008373ffffffffffffffffffffffffffffffffffffffff1673ffffffffffffffffffffffffffffffffffffffff16815260200190815260200160002060009054906101000a900460ff16905092915050565b606060018054610c8690613b2f565b80601f0160208091040260200160405190810160405280929190818152602001828054610cb290613b2f565b8015610cff5780601f10610cd457610100808354040283529160200191610cff565b820191906000526020600020905b815481529060010190602001808311610ce257829003601f168201915b5050505050905090565b602881565b6000801b610d2381610d1e61118a565b611593565b60008211610d66576040517f08c379a0000000000000000000000000000000000000000000000000000000008152600401610d5d906137d1565b60405180910390fd5b600a82610d73600961124b565b610d7d9190613930565b1115610dbe576040517f08c379a0000000000000000000000000000000000000000000000000000000008152600401610db590613811565b60405180910390fd5b60005b82811015610e0557610dd360096117ff565b610df2336028610de3600961124b565b610ded9190613930565b611815565b8080610dfd90613b61565b915050610dc1565b505050565b6000801b81565b610e23610e1c61118a565b8383611833565b5050565b600a5481565b6000801b610e4281610e3d61118a565b611593565b6028821115610e86576040517f08c379a0000000000000000000000000000000000000000000000000000000008152600401610e7d906136b1565b60405180910390fd5b81600a819055505050565b610ea2610e9c61118a565b83611259565b610ee1576040517f08c379a0000000000000000000000000000000000000000000000000000000008152600401610ed8906137b1565b60405180910390fd5b610eed848484846119a0565b50505050565b6060610efe826119fc565b9050919050565b610f0e8261084d565b610f1f81610f1a61118a565b611593565b610f298383611711565b505050565b6000600560008473ffffffffffffffffffffffffffffffffffffffff1673ffffffffffffffffffffffffffffffffffffffff16815260200190815260200160002060008373ffffffffffffffffffffffffffffffffffffffff1673ffffffffffffffffffffffffffffffffffffffff16815260200190815260200160002060009054906101000a900460ff16905092915050565b60007f80ac58cd000000000000000000000000000000000000000000000000000000007bffffffffffffffffffffffffffffffffffffffffffffffffffffffff1916827bffffffffffffffffffffffffffffffffffffffffffffffffffffffff1916148061108d57507f5b5e139f000000000000000000000000000000000000000000000000000000007bffffffffffffffffffffffffffffffffffffffffffffffffffffffff1916827bffffffffffffffffffffffffffffffffffffffffffffffffffffffff1916145b8061109d575061109c82611b4e565b5b9050919050565b60007f7965db0b000000000000000000000000000000000000000000000000000000007bffffffffffffffffffffffffffffffffffffffffffffffffffffffff1916827bffffffffffffffffffffffffffffffffffffffffffffffffffffffff19161480611117575061111682610fc2565b5b9050919050565b60008073ffffffffffffffffffffffffffffffffffffffff166002600084815260200190815260200160002060009054906101000a900473ffffffffffffffffffffffffffffffffffffffff1673ffffffffffffffffffffffffffffffffffffffff1614159050919050565b600033905090565b816004600083815260200190815260200160002060006101000a81548173ffffffffffffffffffffffffffffffffffffffff021916908373ffffffffffffffffffffffffffffffffffffffff160217905550808273ffffffffffffffffffffffffffffffffffffffff1661120583610995565b73ffffffffffffffffffffffffffffffffffffffff167f8c5be1e5ebec7d5bd14f71427d1e84f3dd0314c0f7b2291e5b200ac8c7c3b92560405160405180910390a45050565b600081600001549050919050565b60006112648261111e565b6112a3576040517f08c379a000000000000000000000000000000000000000000000000000000000815260040161129a90613631565b60405180910390fd5b60006112ae83610995565b90508073ffffffffffffffffffffffffffffffffffffffff168473ffffffffffffffffffffffffffffffffffffffff16148061131d57508373ffffffffffffffffffffffffffffffffffffffff166113058461062b565b73ffffffffffffffffffffffffffffffffffffffff16145b8061132e575061132d8185610f2e565b5b91505092915050565b8273ffffffffffffffffffffffffffffffffffffffff1661135782610995565b73ffffffffffffffffffffffffffffffffffffffff16146113ad576040517f08c379a00000000000000000000000000000000000000000000000000000000081526004016113a490613731565b60405180910390fd5b600073ffffffffffffffffffffffffffffffffffffffff168273ffffffffffffffffffffffffffffffffffffffff16141561141d576040517f08c379a0000000000000000000000000000000000000000000000000000000008152600401611414906135f1565b60405180910390fd5b611428838383611bb8565b611433600082611192565b6001600360008573ffffffffffffffffffffffffffffffffffffffff1673ffffffffffffffffffffffffffffffffffffffff16815260200190815260200160002060008282546114839190613a11565b925050819055506001600360008473ffffffffffffffffffffffffffffffffffffffff1673ffffffffffffffffffffffffffffffffffffffff16815260200190815260200160002060008282546114da9190613930565b92505081905550816002600083815260200190815260200160002060006101000a81548173ffffffffffffffffffffffffffffffffffffffff021916908373ffffffffffffffffffffffffffffffffffffffff160217905550808273ffffffffffffffffffffffffffffffffffffffff168473ffffffffffffffffffffffffffffffffffffffff167fddf252ad1be2c89b69c2b068fc378daa952ba7f163c4a11628f55a4df523b3ef60405160405180910390a4505050565b61159d8282610c0c565b61162c576115c28173ffffffffffffffffffffffffffffffffffffffff166014611bbd565b6115d08360001c6020611bbd565b6040516020016115e1929190613478565b6040516020818303038152906040526040517f08c379a0000000000000000000000000000000000000000000000000000000008152600401611623919061354f565b60405180910390fd5b5050565b61163a8282610c0c565b61170d5760016007600084815260200190815260200160002060000160008373ffffffffffffffffffffffffffffffffffffffff1673ffffffffffffffffffffffffffffffffffffffff16815260200190815260200160002060006101000a81548160ff0219169083151502179055506116b261118a565b73ffffffffffffffffffffffffffffffffffffffff168173ffffffffffffffffffffffffffffffffffffffff16837f2f8788117e7eff1d82e926ec794901d17c78024a50270940304540a733656f0d60405160405180910390a45b5050565b61171b8282610c0c565b156117ef5760006007600084815260200190815260200160002060000160008373ffffffffffffffffffffffffffffffffffffffff1673ffffffffffffffffffffffffffffffffffffffff16815260200190815260200160002060006101000a81548160ff02191690831515021790555061179461118a565b73ffffffffffffffffffffffffffffffffffffffff168173ffffffffffffffffffffffffffffffffffffffff16837ff6391f5c32d9c69d2a47ea670b442974b53935d1edc7fd64eb21e047a839171b60405160405180910390a45b5050565b6117fc81611eb7565b50565b6001816000016000828254019250508190555050565b61182f828260405180602001604052806000815250611f0a565b5050565b8173ffffffffffffffffffffffffffffffffffffffff168373ffffffffffffffffffffffffffffffffffffffff1614156118a2576040517f08c379a000000000000000000000000000000000000000000000000000000000815260040161189990613611565b60405180910390fd5b80600560008573ffffffffffffffffffffffffffffffffffffffff1673ffffffffffffffffffffffffffffffffffffffff16815260200190815260200160002060008473ffffffffffffffffffffffffffffffffffffffff1673ffffffffffffffffffffffffffffffffffffffff16815260200190815260200160002060006101000a81548160ff0219169083151502179055508173ffffffffffffffffffffffffffffffffffffffff168373ffffffffffffffffffffffffffffffffffffffff167f17307eab39ab6107e8899845ad3d59bd9653f200f220920489ca2b5937696c31836040516119939190613519565b60405180910390a3505050565b6119ab848484611337565b6119b784848484611f65565b6119f6576040517f08c379a00000000000000000000000000000000000000000000000000000000081526004016119ed90613591565b60405180910390fd5b50505050565b6060611a078261111e565b611a46576040517f08c379a0000000000000000000000000000000000000000000000000000000008152600401611a3d906136f1565b60405180910390fd5b6000600660008481526020019081526020016000208054611a6690613b2f565b80601f0160208091040260200160405190810160405280929190818152602001828054611a9290613b2f565b8015611adf5780601f10611ab457610100808354040283529160200191611adf565b820191906000526020600020905b815481529060010190602001808311611ac257829003601f168201915b505050505090506000611af06120fc565b9050600081511415611b06578192505050611b49565b600082511115611b3b578082604051602001611b23929190613454565b60405160208183030381529060405292505050611b49565b611b4484612113565b925050505b919050565b60007f01ffc9a7000000000000000000000000000000000000000000000000000000007bffffffffffffffffffffffffffffffffffffffffffffffffffffffff1916827bffffffffffffffffffffffffffffffffffffffffffffffffffffffff1916149050919050565b505050565b606060006002836002611bd091906139b7565b611bda9190613930565b67ffffffffffffffff811115611c19577f4e487b7100000000000000000000000000000000000000000000000000000000600052604160045260246000fd5b6040519080825280601f01601f191660200182016040528015611c4b5781602001600182028036833780820191505090505b5090507f300000000000000000000000000000000000000000000000000000000000000081600081518110611ca9577f4e487b7100000000000000000000000000000000000000000000000000000000600052603260045260246000fd5b60200101907effffffffffffffffffffffffffffffffffffffffffffffffffffffffffffff1916908160001a9053507f780000000000000000000000000000000000000000000000000000000000000081600181518110611d33577f4e487b7100000000000000000000000000000000000000000000000000000000600052603260045260246000fd5b60200101907effffffffffffffffffffffffffffffffffffffffffffffffffffffffffffff1916908160001a90535060006001846002611d7391906139b7565b611d7d9190613930565b90505b6001811115611e69577f3031323334353637383961626364656600000000000000000000000000000000600f861660108110611de5577f4e487b7100000000000000000000000000000000000000000000000000000000600052603260045260246000fd5b1a60f81b828281518110611e22577f4e487b7100000000000000000000000000000000000000000000000000000000600052603260045260246000fd5b60200101907effffffffffffffffffffffffffffffffffffffffffffffffffffffffffffff1916908160001a905350600485901c945080611e6290613b05565b9050611d80565b5060008414611ead576040517f08c379a0000000000000000000000000000000000000000000000000000000008152600401611ea490613571565b60405180910390fd5b8091505092915050565b611ec0816121ba565b6000600660008381526020019081526020016000208054611ee090613b2f565b905014611f0757600660008281526020019081526020016000206000611f069190612659565b5b50565b611f1483836122cb565b611f216000848484611f65565b611f60576040517f08c379a0000000000000000000000000000000000000000000000000000000008152600401611f5790613591565b60405180910390fd5b505050565b6000611f868473ffffffffffffffffffffffffffffffffffffffff16612499565b156120ef578373ffffffffffffffffffffffffffffffffffffffff1663150b7a02611faf61118a565b8786866040518563ffffffff1660e01b8152600401611fd194939291906134cd565b602060405180830381600087803b158015611feb57600080fd5b505af192505050801561201c57506040513d601f19601f8201168201806040525081019061201991906129d1565b60015b61209f573d806000811461204c576040519150601f19603f3d011682016040523d82523d6000602084013e612051565b606091505b50600081511415612097576040517f08c379a000000000000000000000000000000000000000000000000000000000815260040161208e90613591565b60405180910390fd5b805181602001fd5b63150b7a0260e01b7bffffffffffffffffffffffffffffffffffffffffffffffffffffffff1916817bffffffffffffffffffffffffffffffffffffffffffffffffffffffff1916149150506120f4565b600190505b949350505050565b606060405180602001604052806000815250905090565b606061211e8261111e565b61215d576040517f08c379a000000000000000000000000000000000000000000000000000000000815260040161215490613751565b60405180910390fd5b60006121676120fc565b9050600081511161218757604051806020016040528060008152506121b2565b80612191846124ac565b6040516020016121a2929190613454565b6040516020818303038152906040525b915050919050565b60006121c582610995565b90506121d381600084611bb8565b6121de600083611192565b6001600360008373ffffffffffffffffffffffffffffffffffffffff1673ffffffffffffffffffffffffffffffffffffffff168152602001908152602001600020600082825461222e9190613a11565b925050819055506002600083815260200190815260200160002060006101000a81549073ffffffffffffffffffffffffffffffffffffffff021916905581600073ffffffffffffffffffffffffffffffffffffffff168273ffffffffffffffffffffffffffffffffffffffff167fddf252ad1be2c89b69c2b068fc378daa952ba7f163c4a11628f55a4df523b3ef60405160405180910390a45050565b600073ffffffffffffffffffffffffffffffffffffffff168273ffffffffffffffffffffffffffffffffffffffff16141561233b576040517f08c379a0000000000000000000000000000000000000000000000000000000008152600401612332906136d1565b60405180910390fd5b6123448161111e565b15612384576040517f08c379a000000000000000000000000000000000000000000000000000000000815260040161237b906135b1565b60405180910390fd5b61239060008383611bb8565b6001600360008473ffffffffffffffffffffffffffffffffffffffff1673ffffffffffffffffffffffffffffffffffffffff16815260200190815260200160002060008282546123e09190613930565b92505081905550816002600083815260200190815260200160002060006101000a81548173ffffffffffffffffffffffffffffffffffffffff021916908373ffffffffffffffffffffffffffffffffffffffff160217905550808273ffffffffffffffffffffffffffffffffffffffff16600073ffffffffffffffffffffffffffffffffffffffff167fddf252ad1be2c89b69c2b068fc378daa952ba7f163c4a11628f55a4df523b3ef60405160405180910390a45050565b600080823b905060008111915050919050565b606060008214156124f4576040518060400160405280600181526020017f30000000000000000000000000000000000000000000000000000000000000008152509050612654565b600082905060005b6000821461252657808061250f90613b61565b915050600a8261251f9190613986565b91506124fc565b60008167ffffffffffffffff811115612568577f4e487b7100000000000000000000000000000000000000000000000000000000600052604160045260246000fd5b6040519080825280601f01601f19166020018201604052801561259a5781602001600182028036833780820191505090505b5090505b6000851461264d576001826125b39190613a11565b9150600a856125c29190613baa565b60306125ce9190613930565b60f81b81838151811061260a577f4e487b7100000000000000000000000000000000000000000000000000000000600052603260045260246000fd5b60200101907effffffffffffffffffffffffffffffffffffffffffffffffffffffffffffff1916908160001a905350600a856126469190613986565b945061259e565b8093505050505b919050565b50805461266590613b2f565b6000825580601f106126775750612696565b601f0160209004906000526020600020908101906126959190612699565b5b50565b5b808211156126b257600081600090555060010161269a565b5090565b60006126c96126c4846138bd565b61388c565b9050828152602081018484840111156126e157600080fd5b6126ec848285613ac3565b509392505050565b60008135905061270381613ca8565b92915050565b60008135905061271881613cbf565b92915050565b60008135905061272d81613cd6565b92915050565b60008135905061274281613ced565b92915050565b60008151905061275781613ced565b92915050565b600082601f83011261276e57600080fd5b813561277e8482602086016126b6565b91505092915050565b60008135905061279681613d04565b92915050565b6000602082840312156127ae57600080fd5b60006127bc848285016126f4565b91505092915050565b600080604083850312156127d857600080fd5b60006127e6858286016126f4565b92505060206127f7858286016126f4565b9150509250929050565b60008060006060848603121561281657600080fd5b6000612824868287016126f4565b9350506020612835868287016126f4565b925050604061284686828701612787565b9150509250925092565b6000806000806080858703121561286657600080fd5b6000612874878288016126f4565b9450506020612885878288016126f4565b935050604061289687828801612787565b925050606085013567ffffffffffffffff8111156128b357600080fd5b6128bf8782880161275d565b91505092959194509250565b600080604083850312156128de57600080fd5b60006128ec858286016126f4565b92505060206128fd85828601612709565b9150509250929050565b6000806040838503121561291a57600080fd5b6000612928858286016126f4565b925050602061293985828601612787565b9150509250929050565b60006020828403121561295557600080fd5b60006129638482850161271e565b91505092915050565b6000806040838503121561297f57600080fd5b600061298d8582860161271e565b925050602061299e858286016126f4565b9150509250929050565b6000602082840312156129ba57600080fd5b60006129c884828501612733565b91505092915050565b6000602082840312156129e357600080fd5b60006129f184828501612748565b91505092915050565b600060208284031215612a0c57600080fd5b6000612a1a84828501612787565b91505092915050565b612a2c81613a45565b82525050565b612a3b81613a57565b82525050565b612a4a81613a63565b82525050565b6000612a5b826138ed565b612a658185613903565b9350612a75818560208601613ad2565b612a7e81613c97565b840191505092915050565b6000612a94826138f8565b612a9e8185613914565b9350612aae818560208601613ad2565b612ab781613c97565b840191505092915050565b6000612acd826138f8565b612ad78185613925565b9350612ae7818560208601613ad2565b80840191505092915050565b6000612b00602083613914565b91507f537472696e67733a20686578206c656e67746820696e73756666696369656e746000830152602082019050919050565b6000612b40603283613914565b91507f4552433732313a207472616e7366657220746f206e6f6e20455243373231526560008301527f63656976657220696d706c656d656e74657200000000000000000000000000006020830152604082019050919050565b6000612ba6601c83613914565b91507f4552433732313a20746f6b656e20616c7265616479206d696e746564000000006000830152602082019050919050565b6000612be6603083613914565b91507f6d6178696d756d206e756d626572206f66207075626c696320746f6b656e732060008301527f68617665206265656e206d696e746564000000000000000000000000000000006020830152604082019050919050565b6000612c4c602483613914565b91507f4552433732313a207472616e7366657220746f20746865207a65726f2061646460008301527f72657373000000000000000000000000000000000000000000000000000000006020830152604082019050919050565b6000612cb2601983613914565b91507f4552433732313a20617070726f766520746f2063616c6c6572000000000000006000830152602082019050919050565b6000612cf2602c83613914565b91507f4552433732313a206f70657261746f7220717565727920666f72206e6f6e657860008301527f697374656e7420746f6b656e00000000000000000000000000000000000000006020830152604082019050919050565b6000612d58603883613914565b91507f4552433732313a20617070726f76652063616c6c6572206973206e6f74206f7760008301527f6e6572206e6f7220617070726f76656420666f7220616c6c00000000000000006020830152604082019050919050565b6000612dbe602a83613914565b91507f4552433732313a2062616c616e636520717565727920666f7220746865207a6560008301527f726f2061646472657373000000000000000000000000000000000000000000006020830152604082019050919050565b6000612e24602983613914565b91507f4552433732313a206f776e657220717565727920666f72206e6f6e657869737460008301527f656e7420746f6b656e00000000000000000000000000000000000000000000006020830152604082019050919050565b6000612e8a603283613914565b91507f5f74656d706f726172794d61785075626c69632063616e6e6f7420657863656560008301527f64206d6178207075626c69632076616c756500000000000000000000000000006020830152604082019050919050565b6000612ef0602083613914565b91507f4552433732313a206d696e7420746f20746865207a65726f20616464726573736000830152602082019050919050565b6000612f30603183613914565b91507f45524337323155524953746f726167653a2055524920717565727920666f722060008301527f6e6f6e6578697374656e7420746f6b656e0000000000000000000000000000006020830152604082019050919050565b6000612f96602c83613914565b91507f4552433732313a20617070726f76656420717565727920666f72206e6f6e657860008301527f697374656e7420746f6b656e00000000000000000000000000000000000000006020830152604082019050919050565b6000612ffc602983613914565b91507f4552433732313a207472616e73666572206f6620746f6b656e2074686174206960008301527f73206e6f74206f776e00000000000000000000000000000000000000000000006020830152604082019050919050565b6000613062602f83613914565b91507f4552433732314d657461646174613a2055524920717565727920666f72206e6f60008301527f6e6578697374656e7420746f6b656e00000000000000000000000000000000006020830152604082019050919050565b60006130c8602183613914565b91507f4552433732313a20617070726f76616c20746f2063757272656e74206f776e6560008301527f72000000000000000000000000000000000000000000000000000000000000006020830152604082019050919050565b600061312e603183613914565b91507f7468657265206172652063757272656e746c79206e6f206d6f7265207075626c60008301527f696320746f6b656e7320746f206d696e740000000000000000000000000000006020830152604082019050919050565b6000613194603183613914565b91507f4552433732313a207472616e736665722063616c6c6572206973206e6f74206f60008301527f776e6572206e6f7220617070726f7665640000000000000000000000000000006020830152604082019050919050565b60006131fa601783613925565b91507f416363657373436f6e74726f6c3a206163636f756e74200000000000000000006000830152601782019050919050565b600061323a601883613914565b91507f6e756d546f6b656e732063616e6e6f74206265207a65726f00000000000000006000830152602082019050919050565b600061327a602a83613914565b91507f74686973206164647265737320686173207265616368656420697473206d696e60008301527f74696e67206c696d6974000000000000000000000000000000000000000000006020830152604082019050919050565b60006132e0602f83613914565b91507f6e756d626572206f6620746f6b656e732072657175657374656420657863656560008301527f6473206d617820726573657276656400000000000000000000000000000000006020830152604082019050919050565b6000613346603083613914565b91507f4552433732314275726e61626c653a2063616c6c6572206973206e6f74206f7760008301527f6e6572206e6f7220617070726f766564000000000000000000000000000000006020830152604082019050919050565b60006133ac601183613925565b91507f206973206d697373696e6720726f6c65200000000000000000000000000000006000830152601182019050919050565b60006133ec602f83613914565b91507f416363657373436f6e74726f6c3a2063616e206f6e6c792072656e6f756e636560008301527f20726f6c657320666f722073656c6600000000000000000000000000000000006020830152604082019050919050565b61344e81613ab9565b82525050565b60006134608285612ac2565b915061346c8284612ac2565b91508190509392505050565b6000613483826131ed565b915061348f8285612ac2565b915061349a8261339f565b91506134a68284612ac2565b91508190509392505050565b60006020820190506134c76000830184612a23565b92915050565b60006080820190506134e26000830187612a23565b6134ef6020830186612a23565b6134fc6040830185613445565b818103606083015261350e8184612a50565b905095945050505050565b600060208201905061352e6000830184612a32565b92915050565b60006020820190506135496000830184612a41565b92915050565b600060208201905081810360008301526135698184612a89565b905092915050565b6000602082019050818103600083015261358a81612af3565b9050919050565b600060208201905081810360008301526135aa81612b33565b9050919050565b600060208201905081810360008301526135ca81612b99565b9050919050565b600060208201905081810360008301526135ea81612bd9565b9050919050565b6000602082019050818103600083015261360a81612c3f565b9050919050565b6000602082019050818103600083015261362a81612ca5565b9050919050565b6000602082019050818103600083015261364a81612ce5565b9050919050565b6000602082019050818103600083015261366a81612d4b565b9050919050565b6000602082019050818103600083015261368a81612db1565b9050919050565b600060208201905081810360008301526136aa81612e17565b9050919050565b600060208201905081810360008301526136ca81612e7d565b9050919050565b600060208201905081810360008301526136ea81612ee3565b9050919050565b6000602082019050818103600083015261370a81612f23565b9050919050565b6000602082019050818103600083015261372a81612f89565b9050919050565b6000602082019050818103600083015261374a81612fef565b9050919050565b6000602082019050818103600083015261376a81613055565b9050919050565b6000602082019050818103600083015261378a816130bb565b9050919050565b600060208201905081810360008301526137aa81613121565b9050919050565b600060208201905081810360008301526137ca81613187565b9050919050565b600060208201905081810360008301526137ea8161322d565b9050919050565b6000602082019050818103600083015261380a8161326d565b9050919050565b6000602082019050818103600083015261382a816132d3565b9050919050565b6000602082019050818103600083015261384a81613339565b9050919050565b6000602082019050818103600083015261386a816133df565b9050919050565b60006020820190506138866000830184613445565b92915050565b6000604051905081810181811067ffffffffffffffff821117156138b3576138b2613c68565b5b8060405250919050565b600067ffffffffffffffff8211156138d8576138d7613c68565b5b601f19601f8301169050602081019050919050565b600081519050919050565b600081519050919050565b600082825260208201905092915050565b600082825260208201905092915050565b600081905092915050565b600061393b82613ab9565b915061394683613ab9565b9250827fffffffffffffffffffffffffffffffffffffffffffffffffffffffffffffffff0382111561397b5761397a613bdb565b5b828201905092915050565b600061399182613ab9565b915061399c83613ab9565b9250826139ac576139ab613c0a565b5b828204905092915050565b60006139c282613ab9565b91506139cd83613ab9565b9250817fffffffffffffffffffffffffffffffffffffffffffffffffffffffffffffffff0483118215151615613a0657613a05613bdb565b5b828202905092915050565b6000613a1c82613ab9565b9150613a2783613ab9565b925082821015613a3a57613a39613bdb565b5b828203905092915050565b6000613a5082613a99565b9050919050565b60008115159050919050565b6000819050919050565b60007fffffffff0000000000000000000000000000000000000000000000000000000082169050919050565b600073ffffffffffffffffffffffffffffffffffffffff82169050919050565b6000819050919050565b82818337600083830152505050565b60005b83811015613af0578082015181840152602081019050613ad5565b83811115613aff576000848401525b50505050565b6000613b1082613ab9565b91506000821415613b2457613b23613bdb565b5b600182039050919050565b60006002820490506001821680613b4757607f821691505b60208210811415613b5b57613b5a613c39565b5b50919050565b6000613b6c82613ab9565b91507fffffffffffffffffffffffffffffffffffffffffffffffffffffffffffffffff821415613b9f57613b9e613bdb565b5b600182019050919050565b6000613bb582613ab9565b9150613bc083613ab9565b925082613bd057613bcf613c0a565b5b828206905092915050565b7f4e487b7100000000000000000000000000000000000000000000000000000000600052601160045260246000fd5b7f4e487b7100000000000000000000000000000000000000000000000000000000600052601260045260246000fd5b7f4e487b7100000000000000000000000000000000000000000000000000000000600052602260045260246000fd5b7f4e487b7100000000000000000000000000000000000000000000000000000000600052604160045260246000fd5b6000601f19601f8301169050919050565b613cb181613a45565b8114613cbc57600080fd5b50565b613cc881613a57565b8114613cd357600080fd5b50565b613cdf81613a63565b8114613cea57600080fd5b50565b613cf681613a6d565b8114613d0157600080fd5b50565b613d0d81613ab9565b8114613d1857600080fd5b5056fea2646970667358221220506447ec739effca6fcbdaa98d0f7998c1a05958a20ab16937cf34ac05b6fb3464736f6c63430008000033",
  "linkReferences": {},
  "deployedLinkReferences": {}
}