{
  "_format": "hh-sol-artifact-1",
  "contractName": "MyNFT",
  "sourceName": "contracts/MyNFT.sol",
  "abi": [
    {
      "inputs": [
        {
          "internalType": "uint256",
          "name": "_maxPublic",
          "type": "uint256"
        },
        {
          "internalType": "uint256",
          "name": "_maxReserved",
          "type": "uint256"
        },
        {
          "internalType": "uint256",
          "name": "_startingReservedId",
          "type": "uint256"
        },
        {
          "internalType": "uint256",
          "name": "_maxPerAddress",
          "type": "uint256"
        },
        {
          "internalType": "address[]",
          "name": "_adminAddresses",
          "type": "address[]"
        }
      ],
      "stateMutability": "nonpayable",
      "type": "constructor"
    },
    {
      "anonymous": false,
      "inputs": [
        {
          "indexed": true,
          "internalType": "address",
          "name": "owner",
          "type": "address"
        },
        {
          "indexed": true,
          "internalType": "address",
          "name": "approved",
          "type": "address"
        },
        {
          "indexed": true,
          "internalType": "uint256",
          "name": "tokenId",
          "type": "uint256"
        }
      ],
      "name": "Approval",
      "type": "event"
    },
    {
      "anonymous": false,
      "inputs": [
        {
          "indexed": true,
          "internalType": "address",
          "name": "owner",
          "type": "address"
        },
        {
          "indexed": true,
          "internalType": "address",
          "name": "operator",
          "type": "address"
        },
        {
          "indexed": false,
          "internalType": "bool",
          "name": "approved",
          "type": "bool"
        }
      ],
      "name": "ApprovalForAll",
      "type": "event"
    },
    {
      "anonymous": false,
      "inputs": [
        {
          "indexed": true,
          "internalType": "bytes32",
          "name": "role",
          "type": "bytes32"
        },
        {
          "indexed": true,
          "internalType": "bytes32",
          "name": "previousAdminRole",
          "type": "bytes32"
        },
        {
          "indexed": true,
          "internalType": "bytes32",
          "name": "newAdminRole",
          "type": "bytes32"
        }
      ],
      "name": "RoleAdminChanged",
      "type": "event"
    },
    {
      "anonymous": false,
      "inputs": [
        {
          "indexed": true,
          "internalType": "bytes32",
          "name": "role",
          "type": "bytes32"
        },
        {
          "indexed": true,
          "internalType": "address",
          "name": "account",
          "type": "address"
        },
        {
          "indexed": true,
          "internalType": "address",
          "name": "sender",
          "type": "address"
        }
      ],
      "name": "RoleGranted",
      "type": "event"
    },
    {
      "anonymous": false,
      "inputs": [
        {
          "indexed": true,
          "internalType": "bytes32",
          "name": "role",
          "type": "bytes32"
        },
        {
          "indexed": true,
          "internalType": "address",
          "name": "account",
          "type": "address"
        },
        {
          "indexed": true,
          "internalType": "address",
          "name": "sender",
          "type": "address"
        }
      ],
      "name": "RoleRevoked",
      "type": "event"
    },
    {
      "anonymous": false,
      "inputs": [
        {
          "indexed": true,
          "internalType": "address",
          "name": "from",
          "type": "address"
        },
        {
          "indexed": true,
          "internalType": "address",
          "name": "to",
          "type": "address"
        },
        {
          "indexed": true,
          "internalType": "uint256",
          "name": "tokenId",
          "type": "uint256"
        }
      ],
      "name": "Transfer",
      "type": "event"
    },
    {
      "inputs": [],
      "name": "DEFAULT_ADMIN_ROLE",
      "outputs": [
        {
          "internalType": "bytes32",
          "name": "",
          "type": "bytes32"
        }
      ],
      "stateMutability": "view",
      "type": "function"
    },
    {
      "inputs": [],
      "name": "MINTER_ROLE",
      "outputs": [
        {
          "internalType": "bytes32",
          "name": "",
          "type": "bytes32"
        }
      ],
      "stateMutability": "view",
      "type": "function"
    },
    {
      "inputs": [
        {
          "internalType": "address",
          "name": "to",
          "type": "address"
        },
        {
          "internalType": "uint256",
          "name": "tokenId",
          "type": "uint256"
        }
      ],
      "name": "approve",
      "outputs": [],
      "stateMutability": "nonpayable",
      "type": "function"
    },
    {
      "inputs": [
        {
          "internalType": "address",
          "name": "owner",
          "type": "address"
        }
      ],
      "name": "balanceOf",
      "outputs": [
        {
          "internalType": "uint256",
          "name": "",
          "type": "uint256"
        }
      ],
      "stateMutability": "view",
      "type": "function"
    },
    {
      "inputs": [
        {
          "internalType": "uint256",
          "name": "tokenId",
          "type": "uint256"
        }
      ],
      "name": "burn",
      "outputs": [],
      "stateMutability": "nonpayable",
      "type": "function"
    },
    {
      "inputs": [
        {
          "internalType": "uint256",
          "name": "tokenId",
          "type": "uint256"
        }
      ],
      "name": "getApproved",
      "outputs": [
        {
          "internalType": "address",
          "name": "",
          "type": "address"
        }
      ],
      "stateMutability": "view",
      "type": "function"
    },
    {
      "inputs": [
        {
          "internalType": "bytes32",
          "name": "role",
          "type": "bytes32"
        }
      ],
      "name": "getRoleAdmin",
      "outputs": [
        {
          "internalType": "bytes32",
          "name": "",
          "type": "bytes32"
        }
      ],
      "stateMutability": "view",
      "type": "function"
    },
    {
      "inputs": [
        {
          "internalType": "bytes32",
          "name": "role",
          "type": "bytes32"
        },
        {
          "internalType": "address",
          "name": "account",
          "type": "address"
        }
      ],
      "name": "grantRole",
      "outputs": [],
      "stateMutability": "nonpayable",
      "type": "function"
    },
    {
      "inputs": [
        {
          "internalType": "bytes32",
          "name": "role",
          "type": "bytes32"
        },
        {
          "internalType": "address",
          "name": "account",
          "type": "address"
        }
      ],
      "name": "hasRole",
      "outputs": [
        {
          "internalType": "bool",
          "name": "",
          "type": "bool"
        }
      ],
      "stateMutability": "view",
      "type": "function"
    },
    {
      "inputs": [
        {
          "internalType": "address",
          "name": "owner",
          "type": "address"
        },
        {
          "internalType": "address",
          "name": "operator",
          "type": "address"
        }
      ],
      "name": "isApprovedForAll",
      "outputs": [
        {
          "internalType": "bool",
          "name": "",
          "type": "bool"
        }
      ],
      "stateMutability": "view",
      "type": "function"
    },
    {
      "inputs": [],
      "name": "maxPerAddress",
      "outputs": [
        {
          "internalType": "uint256",
          "name": "",
          "type": "uint256"
        }
      ],
      "stateMutability": "view",
      "type": "function"
    },
    {
      "inputs": [],
      "name": "maxPublic",
      "outputs": [
        {
          "internalType": "uint256",
          "name": "",
          "type": "uint256"
        }
      ],
      "stateMutability": "view",
      "type": "function"
    },
    {
      "inputs": [],
      "name": "maxReserved",
      "outputs": [
        {
          "internalType": "uint256",
          "name": "",
          "type": "uint256"
        }
      ],
      "stateMutability": "view",
      "type": "function"
    },
    {
      "inputs": [],
      "name": "mintPublic",
      "outputs": [],
      "stateMutability": "nonpayable",
      "type": "function"
    },
    {
      "inputs": [
        {
          "internalType": "uint256[]",
          "name": "tokenIds",
          "type": "uint256[]"
        }
      ],
      "name": "mintReserved",
      "outputs": [],
      "stateMutability": "nonpayable",
      "type": "function"
    },
    {
      "inputs": [],
      "name": "name",
      "outputs": [
        {
          "internalType": "string",
          "name": "",
          "type": "string"
        }
      ],
      "stateMutability": "view",
      "type": "function"
    },
    {
      "inputs": [
        {
          "internalType": "uint256",
          "name": "tokenId",
          "type": "uint256"
        }
      ],
      "name": "ownerOf",
      "outputs": [
        {
          "internalType": "address",
          "name": "",
          "type": "address"
        }
      ],
      "stateMutability": "view",
      "type": "function"
    },
    {
      "inputs": [
        {
          "internalType": "bytes32",
          "name": "role",
          "type": "bytes32"
        },
        {
          "internalType": "address",
          "name": "account",
          "type": "address"
        }
      ],
      "name": "renounceRole",
      "outputs": [],
      "stateMutability": "nonpayable",
      "type": "function"
    },
    {
      "inputs": [
        {
          "internalType": "bytes32",
          "name": "role",
          "type": "bytes32"
        },
        {
          "internalType": "address",
          "name": "account",
          "type": "address"
        }
      ],
      "name": "revokeRole",
      "outputs": [],
      "stateMutability": "nonpayable",
      "type": "function"
    },
    {
      "inputs": [
        {
          "internalType": "address",
          "name": "from",
          "type": "address"
        },
        {
          "internalType": "address",
          "name": "to",
          "type": "address"
        },
        {
          "internalType": "uint256",
          "name": "tokenId",
          "type": "uint256"
        }
      ],
      "name": "safeTransferFrom",
      "outputs": [],
      "stateMutability": "nonpayable",
      "type": "function"
    },
    {
      "inputs": [
        {
          "internalType": "address",
          "name": "from",
          "type": "address"
        },
        {
          "internalType": "address",
          "name": "to",
          "type": "address"
        },
        {
          "internalType": "uint256",
          "name": "tokenId",
          "type": "uint256"
        },
        {
          "internalType": "bytes",
          "name": "_data",
          "type": "bytes"
        }
      ],
      "name": "safeTransferFrom",
      "outputs": [],
      "stateMutability": "nonpayable",
      "type": "function"
    },
    {
      "inputs": [
        {
          "internalType": "address",
          "name": "operator",
          "type": "address"
        },
        {
          "internalType": "bool",
          "name": "approved",
          "type": "bool"
        }
      ],
      "name": "setApprovalForAll",
      "outputs": [],
      "stateMutability": "nonpayable",
      "type": "function"
    },
    {
      "inputs": [
        {
          "internalType": "uint256",
          "name": "_temporaryPublicMax",
          "type": "uint256"
        }
      ],
      "name": "setTemporaryPublicMax",
      "outputs": [],
      "stateMutability": "nonpayable",
      "type": "function"
    },
    {
      "inputs": [],
      "name": "startingReservedId",
      "outputs": [
        {
          "internalType": "uint256",
          "name": "",
          "type": "uint256"
        }
      ],
      "stateMutability": "view",
      "type": "function"
    },
    {
      "inputs": [
        {
          "internalType": "bytes4",
          "name": "interfaceId",
          "type": "bytes4"
        }
      ],
      "name": "supportsInterface",
      "outputs": [
        {
          "internalType": "bool",
          "name": "",
          "type": "bool"
        }
      ],
      "stateMutability": "view",
      "type": "function"
    },
    {
      "inputs": [],
      "name": "symbol",
      "outputs": [
        {
          "internalType": "string",
          "name": "",
          "type": "string"
        }
      ],
      "stateMutability": "view",
      "type": "function"
    },
    {
      "inputs": [],
      "name": "temporaryPublicMax",
      "outputs": [
        {
          "internalType": "uint256",
          "name": "",
          "type": "uint256"
        }
      ],
      "stateMutability": "view",
      "type": "function"
    },
    {
      "inputs": [
        {
          "internalType": "uint256",
          "name": "tokenId",
          "type": "uint256"
        }
      ],
      "name": "tokenURI",
      "outputs": [
        {
          "internalType": "string",
          "name": "",
          "type": "string"
        }
      ],
      "stateMutability": "view",
      "type": "function"
    },
    {
      "inputs": [],
      "name": "totalPublicSupply",
      "outputs": [
        {
          "internalType": "uint256",
          "name": "",
          "type": "uint256"
        }
      ],
      "stateMutability": "view",
      "type": "function"
    },
    {
      "inputs": [],
      "name": "totalReservedSupply",
      "outputs": [
        {
          "internalType": "uint256",
          "name": "",
          "type": "uint256"
        }
      ],
      "stateMutability": "view",
      "type": "function"
    },
    {
      "inputs": [],
      "name": "totalSupply",
      "outputs": [
        {
          "internalType": "uint256",
          "name": "",
          "type": "uint256"
        }
      ],
      "stateMutability": "view",
      "type": "function"
    },
    {
      "inputs": [
        {
          "internalType": "address",
          "name": "from",
          "type": "address"
        },
        {
          "internalType": "address",
          "name": "to",
          "type": "address"
        },
        {
          "internalType": "uint256",
          "name": "tokenId",
          "type": "uint256"
        }
      ],
      "name": "transferFrom",
      "outputs": [],
      "stateMutability": "nonpayable",
      "type": "function"
    }
  ],
  "bytecode": "0x6101006040523480156200001257600080fd5b50604051620049e7380380620049e783398181016040528101906200003891906200052c565b6040518060400160405280600581526020017f54756e65730000000000000000000000000000000000000000000000000000008152506040518060400160405280600481526020017f54554e45000000000000000000000000000000000000000000000000000000008152508160009080519060200190620000bc929190620003ac565b508060019080519060200190620000d5929190620003ac565b50505084608081815250508360a081815250508260c081815250508160e0818152505060005b81518110156200022557600073ffffffffffffffffffffffffffffffffffffffff1682828151811062000157577f4e487b7100000000000000000000000000000000000000000000000000000000600052603260045260246000fd5b602002602001015173ffffffffffffffffffffffffffffffffffffffff161415620001b9576040517f08c379a0000000000000000000000000000000000000000000000000000000008152600401620001b09062000609565b60405180910390fd5b6200020f6000801b838381518110620001fb577f4e487b7100000000000000000000000000000000000000000000000000000000600052603260045260246000fd5b60200260200101516200023160201b60201c565b80806200021c9062000713565b915050620000fb565b50505050505062000822565b6200024382826200024760201b60201c565b5050565b6200025982826200033960201b60201c565b620003355760016007600084815260200190815260200160002060000160008373ffffffffffffffffffffffffffffffffffffffff1673ffffffffffffffffffffffffffffffffffffffff16815260200190815260200160002060006101000a81548160ff021916908315150217905550620002da620003a460201b60201c565b73ffffffffffffffffffffffffffffffffffffffff168173ffffffffffffffffffffffffffffffffffffffff16837f2f8788117e7eff1d82e926ec794901d17c78024a50270940304540a733656f0d60405160405180910390a45b5050565b60006007600084815260200190815260200160002060000160008373ffffffffffffffffffffffffffffffffffffffff1673ffffffffffffffffffffffffffffffffffffffff16815260200190815260200160002060009054906101000a900460ff16905092915050565b600033905090565b828054620003ba90620006dd565b90600052602060002090601f016020900481019282620003de57600085556200042a565b82601f10620003f957805160ff19168380011785556200042a565b828001600101855582156200042a579182015b82811115620004295782518255916020019190600101906200040c565b5b5090506200043991906200043d565b5090565b5b80821115620004585760008160009055506001016200043e565b5090565b6000620004736200046d846200065f565b6200062b565b905080838252602082019050828560208602820111156200049357600080fd5b60005b85811015620004c75781620004ac8882620004d1565b84526020840193506020830192505060018101905062000496565b5050509392505050565b600081519050620004e281620007ee565b92915050565b600082601f830112620004fa57600080fd5b81516200050c8482602086016200045c565b91505092915050565b600081519050620005268162000808565b92915050565b600080600080600060a086880312156200054557600080fd5b6000620005558882890162000515565b9550506020620005688882890162000515565b94505060406200057b8882890162000515565b93505060606200058e8882890162000515565b925050608086015167ffffffffffffffff811115620005ac57600080fd5b620005ba88828901620004e8565b9150509295509295909350565b6000620005d6601a836200068e565b91507f43616e27742061646420746865206e756c6c20616464726573730000000000006000830152602082019050919050565b600060208201905081810360008301526200062481620005c7565b9050919050565b6000604051905081810181811067ffffffffffffffff82111715620006555762000654620007bf565b5b8060405250919050565b600067ffffffffffffffff8211156200067d576200067c620007bf565b5b602082029050602081019050919050565b600082825260208201905092915050565b6000620006ac82620006b3565b9050919050565b600073ffffffffffffffffffffffffffffffffffffffff82169050919050565b6000819050919050565b60006002820490506001821680620006f657607f821691505b602082108114156200070d576200070c62000790565b5b50919050565b60006200072082620006d3565b91507fffffffffffffffffffffffffffffffffffffffffffffffffffffffffffffffff82141562000756576200075562000761565b5b600182019050919050565b7f4e487b7100000000000000000000000000000000000000000000000000000000600052601160045260246000fd5b7f4e487b7100000000000000000000000000000000000000000000000000000000600052602260045260246000fd5b7f4e487b7100000000000000000000000000000000000000000000000000000000600052604160045260246000fd5b620007f9816200069f565b81146200080557600080fd5b50565b6200081381620006d3565b81146200081f57600080fd5b50565b60805160a05160c05160e05161414c6200089b60003960008181610b030152610dda01526000818161063f01528181610ce301528181610d2f0152610f8f015260008181610c1e01528181610d0e01528181610fb6015261112c015260008181610be501528181610e7b01526112c0015261414c6000f3fe608060405234801561001057600080fd5b50600436106101f05760003560e01c80637dc429751161010f578063a9898fd9116100a2578063d547741f11610071578063d547741f14610595578063e6a5931e146105b1578063e985e9c5146105cf578063feaf6759146105ff576101f0565b8063a9898fd91461050d578063b88d4fde1461052b578063c87b56dd14610547578063d539139314610577576101f0565b806395d89b41116100de57806395d89b41146104975780639783c35b146104b5578063a217fddf146104d3578063a22cb465146104f1576101f0565b80637dc4297514610423578063831ec8d5146104415780638c874ebd1461045d57806391d1485414610467576101f0565b80632f2ff15d116101875780636352211e116101565780636352211e14610387578063639814e0146103b7578063674d13c8146103d557806370a08231146103f3576101f0565b80632f2ff15d1461031757806336568abe1461033357806342842e0e1461034f57806342966c681461036b576101f0565b8063095ea7b3116101c3578063095ea7b31461029157806318160ddd146102ad57806323b872dd146102cb578063248a9ca3146102e7576101f0565b806301ffc9a7146101f557806303dd38301461022557806306fdde0314610243578063081812fc14610261575b600080fd5b61020f600480360381019061020a9190612d7d565b61061b565b60405161021c9190613914565b60405180910390f35b61022d61063d565b60405161023a9190613c6c565b60405180910390f35b61024b610661565b604051610258919061394a565b60405180910390f35b61027b60048036038101906102769190612dcf565b6106f3565b60405161028891906138ad565b60405180910390f35b6102ab60048036038101906102a69190612c97565b610778565b005b6102b5610890565b6040516102c29190613c6c565b60405180910390f35b6102e560048036038101906102e09190612b91565b6108a7565b005b61030160048036038101906102fc9190612d18565b610907565b60405161030e919061392f565b60405180910390f35b610331600480360381019061032c9190612d41565b610927565b005b61034d60048036038101906103489190612d41565b610950565b005b61036960048036038101906103649190612b91565b6109d3565b005b61038560048036038101906103809190612dcf565b6109f3565b005b6103a1600480360381019061039c9190612dcf565b610a4f565b6040516103ae91906138ad565b60405180910390f35b6103bf610b01565b6040516103cc9190613c6c565b60405180910390f35b6103dd610b25565b6040516103ea9190613c6c565b60405180910390f35b61040d60048036038101906104089190612b2c565b610b2b565b60405161041a9190613c6c565b60405180910390f35b61042b610be3565b6040516104389190613c6c565b60405180910390f35b61045b60048036038101906104569190612cd3565b610c07565b005b610465610dd8565b005b610481600480360381019061047c9190612d41565b61100a565b60405161048e9190613914565b60405180910390f35b61049f611075565b6040516104ac919061394a565b60405180910390f35b6104bd611107565b6040516104ca9190613c6c565b60405180910390f35b6104db61110d565b6040516104e8919061392f565b60405180910390f35b61050b60048036038101906105069190612c5b565b611114565b005b61051561112a565b6040516105229190613c6c565b60405180910390f35b61054560048036038101906105409190612be0565b61114e565b005b610561600480360381019061055c9190612dcf565b6111b0565b60405161056e919061394a565b60405180910390f35b61057f6111c2565b60405161058c919061392f565b60405180910390f35b6105af60048036038101906105aa9190612d41565b6111e6565b005b6105b961120f565b6040516105c69190613c6c565b60405180910390f35b6105e960048036038101906105e49190612b55565b611215565b6040516105f69190613914565b60405180910390f35b61061960048036038101906106149190612dcf565b6112a9565b005b60006106268261132c565b8061063657506106358261140e565b5b9050919050565b7f000000000000000000000000000000000000000000000000000000000000000081565b60606000805461067090613f2a565b80601f016020809104026020016040519081016040528092919081815260200182805461069c90613f2a565b80156106e95780601f106106be576101008083540402835291602001916106e9565b820191906000526020600020905b8154815290600101906020018083116106cc57829003601f168201915b5050505050905090565b60006106fe82611488565b61073d576040517f08c379a000000000000000000000000000000000000000000000000000000000815260040161073490613b0c565b60405180910390fd5b6004600083815260200190815260200160002060009054906101000a900473ffffffffffffffffffffffffffffffffffffffff169050919050565b600061078382610a4f565b90508073ffffffffffffffffffffffffffffffffffffffff168373ffffffffffffffffffffffffffffffffffffffff1614156107f4576040517f08c379a00000000000000000000000000000000000000000000000000000000081526004016107eb90613b6c565b60405180910390fd5b8073ffffffffffffffffffffffffffffffffffffffff166108136114f4565b73ffffffffffffffffffffffffffffffffffffffff16148061084257506108418161083c6114f4565b611215565b5b610881576040517f08c379a000000000000000000000000000000000000000000000000000000000815260040161087890613a4c565b60405180910390fd5b61088b83836114fc565b505050565b6000600a546009546108a29190613d2b565b905090565b6108b86108b26114f4565b826115b5565b6108f7576040517f08c379a00000000000000000000000000000000000000000000000000000000081526004016108ee90613bac565b60405180910390fd5b610902838383611693565b505050565b600060076000838152602001908152602001600020600101549050919050565b61093082610907565b6109418161093c6114f4565b6118ef565b61094b838361198c565b505050565b6109586114f4565b73ffffffffffffffffffffffffffffffffffffffff168173ffffffffffffffffffffffffffffffffffffffff16146109c5576040517f08c379a00000000000000000000000000000000000000000000000000000000081526004016109bc90613c0c565b60405180910390fd5b6109cf8282611a6d565b5050565b6109ee8383836040518060200160405280600081525061114e565b505050565b610a046109fe6114f4565b826115b5565b610a43576040517f08c379a0000000000000000000000000000000000000000000000000000000008152600401610a3a90613bec565b60405180910390fd5b610a4c81611b4f565b50565b6000806002600084815260200190815260200160002060009054906101000a900473ffffffffffffffffffffffffffffffffffffffff169050600073ffffffffffffffffffffffffffffffffffffffff168173ffffffffffffffffffffffffffffffffffffffff161415610af8576040517f08c379a0000000000000000000000000000000000000000000000000000000008152600401610aef90613a8c565b60405180910390fd5b80915050919050565b7f000000000000000000000000000000000000000000000000000000000000000081565b60095481565b60008073ffffffffffffffffffffffffffffffffffffffff168273ffffffffffffffffffffffffffffffffffffffff161415610b9c576040517f08c379a0000000000000000000000000000000000000000000000000000000008152600401610b9390613a6c565b60405180910390fd5b600360008373ffffffffffffffffffffffffffffffffffffffff1673ffffffffffffffffffffffffffffffffffffffff168152602001908152602001600020549050919050565b7f000000000000000000000000000000000000000000000000000000000000000081565b6000801b610c1c81610c176114f4565b6118ef565b7f000000000000000000000000000000000000000000000000000000000000000083839050600954610c4e9190613d2b565b1115610c8f576040517f08c379a0000000000000000000000000000000000000000000000000000000008152600401610c8690613c2c565b60405180910390fd5b60005b83839050811015610dd2576000848483818110610cd8577f4e487b7100000000000000000000000000000000000000000000000000000000600052603260045260246000fd5b9050602002013590507f00000000000000000000000000000000000000000000000000000000000000008110158015610d5b57507f00000000000000000000000000000000000000000000000000000000000000007f0000000000000000000000000000000000000000000000000000000000000000610d589190613d2b565b81105b610d9a576040517f08c379a0000000000000000000000000000000000000000000000000000000008152600401610d91906139ac565b60405180910390fd5b600160096000828254610dad9190613d2b565b92505081905550610dbe3382611b5b565b508080610dca90613f5c565b915050610c92565b50505050565b7f0000000000000000000000000000000000000000000000000000000000000000600860003373ffffffffffffffffffffffffffffffffffffffff1673ffffffffffffffffffffffffffffffffffffffff1681526020019081526020016000205410610e79576040517f08c379a0000000000000000000000000000000000000000000000000000000008152600401610e7090613b8c565b60405180910390fd5b7f0000000000000000000000000000000000000000000000000000000000000000600a5410610edd576040517f08c379a0000000000000000000000000000000000000000000000000000000008152600401610ed490613bcc565b60405180910390fd5b600b54600a5410610f23576040517f08c379a0000000000000000000000000000000000000000000000000000000008152600401610f1a90613aac565b60405180910390fd5b6001600860003373ffffffffffffffffffffffffffffffffffffffff1673ffffffffffffffffffffffffffffffffffffffff1681526020019081526020016000206000828254610f739190613d2b565b9250508190555060006001600a54610f8b9190613d2b565b90507f00000000000000000000000000000000000000000000000000000000000000008110610fe3577f000000000000000000000000000000000000000000000000000000000000000081610fe09190613d2b565b90505b6001600a6000828254610ff69190613d2b565b925050819055506110073382611b5b565b50565b60006007600084815260200190815260200160002060000160008373ffffffffffffffffffffffffffffffffffffffff1673ffffffffffffffffffffffffffffffffffffffff16815260200190815260200160002060009054906101000a900460ff16905092915050565b60606001805461108490613f2a565b80601f01602080910402602001604051908101604052809291908181526020018280546110b090613f2a565b80156110fd5780601f106110d2576101008083540402835291602001916110fd565b820191906000526020600020905b8154815290600101906020018083116110e057829003601f168201915b5050505050905090565b600b5481565b6000801b81565b61112661111f6114f4565b8383611b79565b5050565b7f000000000000000000000000000000000000000000000000000000000000000081565b61115f6111596114f4565b836115b5565b61119e576040517f08c379a000000000000000000000000000000000000000000000000000000000815260040161119590613bac565b60405180910390fd5b6111aa84848484611ce6565b50505050565b60606111bb82611d42565b9050919050565b7fa49807205ce4d355092ef5a8a18f56e8913cf4a201fbe287825b095693c2177581565b6111ef82610907565b611200816111fb6114f4565b6118ef565b61120a8383611a6d565b505050565b600a5481565b6000600560008473ffffffffffffffffffffffffffffffffffffffff1673ffffffffffffffffffffffffffffffffffffffff16815260200190815260200160002060008373ffffffffffffffffffffffffffffffffffffffff1673ffffffffffffffffffffffffffffffffffffffff16815260200190815260200160002060009054906101000a900460ff16905092915050565b6000801b6112be816112b96114f4565b6118ef565b7f0000000000000000000000000000000000000000000000000000000000000000821115611321576040517f08c379a000000000000000000000000000000000000000000000000000000000815260040161131890613c4c565b60405180910390fd5b81600b819055505050565b60007f80ac58cd000000000000000000000000000000000000000000000000000000007bffffffffffffffffffffffffffffffffffffffffffffffffffffffff1916827bffffffffffffffffffffffffffffffffffffffffffffffffffffffff191614806113f757507f5b5e139f000000000000000000000000000000000000000000000000000000007bffffffffffffffffffffffffffffffffffffffffffffffffffffffff1916827bffffffffffffffffffffffffffffffffffffffffffffffffffffffff1916145b80611407575061140682611e94565b5b9050919050565b60007f7965db0b000000000000000000000000000000000000000000000000000000007bffffffffffffffffffffffffffffffffffffffffffffffffffffffff1916827bffffffffffffffffffffffffffffffffffffffffffffffffffffffff1916148061148157506114808261132c565b5b9050919050565b60008073ffffffffffffffffffffffffffffffffffffffff166002600084815260200190815260200160002060009054906101000a900473ffffffffffffffffffffffffffffffffffffffff1673ffffffffffffffffffffffffffffffffffffffff1614159050919050565b600033905090565b816004600083815260200190815260200160002060006101000a81548173ffffffffffffffffffffffffffffffffffffffff021916908373ffffffffffffffffffffffffffffffffffffffff160217905550808273ffffffffffffffffffffffffffffffffffffffff1661156f83610a4f565b73ffffffffffffffffffffffffffffffffffffffff167f8c5be1e5ebec7d5bd14f71427d1e84f3dd0314c0f7b2291e5b200ac8c7c3b92560405160405180910390a45050565b60006115c082611488565b6115ff576040517f08c379a00000000000000000000000000000000000000000000000000000000081526004016115f690613a2c565b60405180910390fd5b600061160a83610a4f565b90508073ffffffffffffffffffffffffffffffffffffffff168473ffffffffffffffffffffffffffffffffffffffff16148061167957508373ffffffffffffffffffffffffffffffffffffffff16611661846106f3565b73ffffffffffffffffffffffffffffffffffffffff16145b8061168a57506116898185611215565b5b91505092915050565b8273ffffffffffffffffffffffffffffffffffffffff166116b382610a4f565b73ffffffffffffffffffffffffffffffffffffffff1614611709576040517f08c379a000000000000000000000000000000000000000000000000000000000815260040161170090613b2c565b60405180910390fd5b600073ffffffffffffffffffffffffffffffffffffffff168273ffffffffffffffffffffffffffffffffffffffff161415611779576040517f08c379a0000000000000000000000000000000000000000000000000000000008152600401611770906139ec565b60405180910390fd5b611784838383611efe565b61178f6000826114fc565b6001600360008573ffffffffffffffffffffffffffffffffffffffff1673ffffffffffffffffffffffffffffffffffffffff16815260200190815260200160002060008282546117df9190613e0c565b925050819055506001600360008473ffffffffffffffffffffffffffffffffffffffff1673ffffffffffffffffffffffffffffffffffffffff16815260200190815260200160002060008282546118369190613d2b565b92505081905550816002600083815260200190815260200160002060006101000a81548173ffffffffffffffffffffffffffffffffffffffff021916908373ffffffffffffffffffffffffffffffffffffffff160217905550808273ffffffffffffffffffffffffffffffffffffffff168473ffffffffffffffffffffffffffffffffffffffff167fddf252ad1be2c89b69c2b068fc378daa952ba7f163c4a11628f55a4df523b3ef60405160405180910390a4505050565b6118f9828261100a565b6119885761191e8173ffffffffffffffffffffffffffffffffffffffff166014611f03565b61192c8360001c6020611f03565b60405160200161193d929190613873565b6040516020818303038152906040526040517f08c379a000000000000000000000000000000000000000000000000000000000815260040161197f919061394a565b60405180910390fd5b5050565b611996828261100a565b611a695760016007600084815260200190815260200160002060000160008373ffffffffffffffffffffffffffffffffffffffff1673ffffffffffffffffffffffffffffffffffffffff16815260200190815260200160002060006101000a81548160ff021916908315150217905550611a0e6114f4565b73ffffffffffffffffffffffffffffffffffffffff168173ffffffffffffffffffffffffffffffffffffffff16837f2f8788117e7eff1d82e926ec794901d17c78024a50270940304540a733656f0d60405160405180910390a45b5050565b611a77828261100a565b15611b4b5760006007600084815260200190815260200160002060000160008373ffffffffffffffffffffffffffffffffffffffff1673ffffffffffffffffffffffffffffffffffffffff16815260200190815260200160002060006101000a81548160ff021916908315150217905550611af06114f4565b73ffffffffffffffffffffffffffffffffffffffff168173ffffffffffffffffffffffffffffffffffffffff16837ff6391f5c32d9c69d2a47ea670b442974b53935d1edc7fd64eb21e047a839171b60405160405180910390a45b5050565b611b58816121fd565b50565b611b75828260405180602001604052806000815250612250565b5050565b8173ffffffffffffffffffffffffffffffffffffffff168373ffffffffffffffffffffffffffffffffffffffff161415611be8576040517f08c379a0000000000000000000000000000000000000000000000000000000008152600401611bdf90613a0c565b60405180910390fd5b80600560008573ffffffffffffffffffffffffffffffffffffffff1673ffffffffffffffffffffffffffffffffffffffff16815260200190815260200160002060008473ffffffffffffffffffffffffffffffffffffffff1673ffffffffffffffffffffffffffffffffffffffff16815260200190815260200160002060006101000a81548160ff0219169083151502179055508173ffffffffffffffffffffffffffffffffffffffff168373ffffffffffffffffffffffffffffffffffffffff167f17307eab39ab6107e8899845ad3d59bd9653f200f220920489ca2b5937696c3183604051611cd99190613914565b60405180910390a3505050565b611cf1848484611693565b611cfd848484846122ab565b611d3c576040517f08c379a0000000000000000000000000000000000000000000000000000000008152600401611d339061398c565b60405180910390fd5b50505050565b6060611d4d82611488565b611d8c576040517f08c379a0000000000000000000000000000000000000000000000000000000008152600401611d8390613aec565b60405180910390fd5b6000600660008481526020019081526020016000208054611dac90613f2a565b80601f0160208091040260200160405190810160405280929190818152602001828054611dd890613f2a565b8015611e255780601f10611dfa57610100808354040283529160200191611e25565b820191906000526020600020905b815481529060010190602001808311611e0857829003601f168201915b505050505090506000611e36612442565b9050600081511415611e4c578192505050611e8f565b600082511115611e81578082604051602001611e6992919061384f565b60405160208183030381529060405292505050611e8f565b611e8a84612459565b925050505b919050565b60007f01ffc9a7000000000000000000000000000000000000000000000000000000007bffffffffffffffffffffffffffffffffffffffffffffffffffffffff1916827bffffffffffffffffffffffffffffffffffffffffffffffffffffffff1916149050919050565b505050565b606060006002836002611f169190613db2565b611f209190613d2b565b67ffffffffffffffff811115611f5f577f4e487b7100000000000000000000000000000000000000000000000000000000600052604160045260246000fd5b6040519080825280601f01601f191660200182016040528015611f915781602001600182028036833780820191505090505b5090507f300000000000000000000000000000000000000000000000000000000000000081600081518110611fef577f4e487b7100000000000000000000000000000000000000000000000000000000600052603260045260246000fd5b60200101907effffffffffffffffffffffffffffffffffffffffffffffffffffffffffffff1916908160001a9053507f780000000000000000000000000000000000000000000000000000000000000081600181518110612079577f4e487b7100000000000000000000000000000000000000000000000000000000600052603260045260246000fd5b60200101907effffffffffffffffffffffffffffffffffffffffffffffffffffffffffffff1916908160001a905350600060018460026120b99190613db2565b6120c39190613d2b565b90505b60018111156121af577f3031323334353637383961626364656600000000000000000000000000000000600f86166010811061212b577f4e487b7100000000000000000000000000000000000000000000000000000000600052603260045260246000fd5b1a60f81b828281518110612168577f4e487b7100000000000000000000000000000000000000000000000000000000600052603260045260246000fd5b60200101907effffffffffffffffffffffffffffffffffffffffffffffffffffffffffffff1916908160001a905350600485901c9450806121a890613f00565b90506120c6565b50600084146121f3576040517f08c379a00000000000000000000000000000000000000000000000000000000081526004016121ea9061396c565b60405180910390fd5b8091505092915050565b61220681612500565b600060066000838152602001908152602001600020805461222690613f2a565b90501461224d5760066000828152602001908152602001600020600061224c919061299f565b5b50565b61225a8383612611565b61226760008484846122ab565b6122a6576040517f08c379a000000000000000000000000000000000000000000000000000000000815260040161229d9061398c565b60405180910390fd5b505050565b60006122cc8473ffffffffffffffffffffffffffffffffffffffff166127df565b15612435578373ffffffffffffffffffffffffffffffffffffffff1663150b7a026122f56114f4565b8786866040518563ffffffff1660e01b815260040161231794939291906138c8565b602060405180830381600087803b15801561233157600080fd5b505af192505050801561236257506040513d601f19601f8201168201806040525081019061235f9190612da6565b60015b6123e5573d8060008114612392576040519150601f19603f3d011682016040523d82523d6000602084013e612397565b606091505b506000815114156123dd576040517f08c379a00000000000000000000000000000000000000000000000000000000081526004016123d49061398c565b60405180910390fd5b805181602001fd5b63150b7a0260e01b7bffffffffffffffffffffffffffffffffffffffffffffffffffffffff1916817bffffffffffffffffffffffffffffffffffffffffffffffffffffffff19161491505061243a565b600190505b949350505050565b606060405180602001604052806000815250905090565b606061246482611488565b6124a3576040517f08c379a000000000000000000000000000000000000000000000000000000000815260040161249a90613b4c565b60405180910390fd5b60006124ad612442565b905060008151116124cd57604051806020016040528060008152506124f8565b806124d7846127f2565b6040516020016124e892919061384f565b6040516020818303038152906040525b915050919050565b600061250b82610a4f565b905061251981600084611efe565b6125246000836114fc565b6001600360008373ffffffffffffffffffffffffffffffffffffffff1673ffffffffffffffffffffffffffffffffffffffff16815260200190815260200160002060008282546125749190613e0c565b925050819055506002600083815260200190815260200160002060006101000a81549073ffffffffffffffffffffffffffffffffffffffff021916905581600073ffffffffffffffffffffffffffffffffffffffff168273ffffffffffffffffffffffffffffffffffffffff167fddf252ad1be2c89b69c2b068fc378daa952ba7f163c4a11628f55a4df523b3ef60405160405180910390a45050565b600073ffffffffffffffffffffffffffffffffffffffff168273ffffffffffffffffffffffffffffffffffffffff161415612681576040517f08c379a000000000000000000000000000000000000000000000000000000000815260040161267890613acc565b60405180910390fd5b61268a81611488565b156126ca576040517f08c379a00000000000000000000000000000000000000000000000000000000081526004016126c1906139cc565b60405180910390fd5b6126d660008383611efe565b6001600360008473ffffffffffffffffffffffffffffffffffffffff1673ffffffffffffffffffffffffffffffffffffffff16815260200190815260200160002060008282546127269190613d2b565b92505081905550816002600083815260200190815260200160002060006101000a81548173ffffffffffffffffffffffffffffffffffffffff021916908373ffffffffffffffffffffffffffffffffffffffff160217905550808273ffffffffffffffffffffffffffffffffffffffff16600073ffffffffffffffffffffffffffffffffffffffff167fddf252ad1be2c89b69c2b068fc378daa952ba7f163c4a11628f55a4df523b3ef60405160405180910390a45050565b600080823b905060008111915050919050565b6060600082141561283a576040518060400160405280600181526020017f3000000000000000000000000000000000000000000000000000000000000000815250905061299a565b600082905060005b6000821461286c57808061285590613f5c565b915050600a826128659190613d81565b9150612842565b60008167ffffffffffffffff8111156128ae577f4e487b7100000000000000000000000000000000000000000000000000000000600052604160045260246000fd5b6040519080825280601f01601f1916602001820160405280156128e05781602001600182028036833780820191505090505b5090505b60008514612993576001826128f99190613e0c565b9150600a856129089190613fa5565b60306129149190613d2b565b60f81b818381518110612950577f4e487b7100000000000000000000000000000000000000000000000000000000600052603260045260246000fd5b60200101907effffffffffffffffffffffffffffffffffffffffffffffffffffffffffffff1916908160001a905350600a8561298c9190613d81565b94506128e4565b8093505050505b919050565b5080546129ab90613f2a565b6000825580601f106129bd57506129dc565b601f0160209004906000526020600020908101906129db91906129df565b5b50565b5b808211156129f85760008160009055506001016129e0565b5090565b6000612a0f612a0a84613cb8565b613c87565b905082815260208101848484011115612a2757600080fd5b612a32848285613ebe565b509392505050565b600081359050612a49816140a3565b92915050565b60008083601f840112612a6157600080fd5b8235905067ffffffffffffffff811115612a7a57600080fd5b602083019150836020820283011115612a9257600080fd5b9250929050565b600081359050612aa8816140ba565b92915050565b600081359050612abd816140d1565b92915050565b600081359050612ad2816140e8565b92915050565b600081519050612ae7816140e8565b92915050565b600082601f830112612afe57600080fd5b8135612b0e8482602086016129fc565b91505092915050565b600081359050612b26816140ff565b92915050565b600060208284031215612b3e57600080fd5b6000612b4c84828501612a3a565b91505092915050565b60008060408385031215612b6857600080fd5b6000612b7685828601612a3a565b9250506020612b8785828601612a3a565b9150509250929050565b600080600060608486031215612ba657600080fd5b6000612bb486828701612a3a565b9350506020612bc586828701612a3a565b9250506040612bd686828701612b17565b9150509250925092565b60008060008060808587031215612bf657600080fd5b6000612c0487828801612a3a565b9450506020612c1587828801612a3a565b9350506040612c2687828801612b17565b925050606085013567ffffffffffffffff811115612c4357600080fd5b612c4f87828801612aed565b91505092959194509250565b60008060408385031215612c6e57600080fd5b6000612c7c85828601612a3a565b9250506020612c8d85828601612a99565b9150509250929050565b60008060408385031215612caa57600080fd5b6000612cb885828601612a3a565b9250506020612cc985828601612b17565b9150509250929050565b60008060208385031215612ce657600080fd5b600083013567ffffffffffffffff811115612d0057600080fd5b612d0c85828601612a4f565b92509250509250929050565b600060208284031215612d2a57600080fd5b6000612d3884828501612aae565b91505092915050565b60008060408385031215612d5457600080fd5b6000612d6285828601612aae565b9250506020612d7385828601612a3a565b9150509250929050565b600060208284031215612d8f57600080fd5b6000612d9d84828501612ac3565b91505092915050565b600060208284031215612db857600080fd5b6000612dc684828501612ad8565b91505092915050565b600060208284031215612de157600080fd5b6000612def84828501612b17565b91505092915050565b612e0181613e40565b82525050565b612e1081613e52565b82525050565b612e1f81613e5e565b82525050565b6000612e3082613ce8565b612e3a8185613cfe565b9350612e4a818560208601613ecd565b612e5381614092565b840191505092915050565b6000612e6982613cf3565b612e738185613d0f565b9350612e83818560208601613ecd565b612e8c81614092565b840191505092915050565b6000612ea282613cf3565b612eac8185613d20565b9350612ebc818560208601613ecd565b80840191505092915050565b6000612ed5602083613d0f565b91507f537472696e67733a20686578206c656e67746820696e73756666696369656e746000830152602082019050919050565b6000612f15603283613d0f565b91507f4552433732313a207472616e7366657220746f206e6f6e20455243373231526560008301527f63656976657220696d706c656d656e74657200000000000000000000000000006020830152604082019050919050565b6000612f7b602583613d0f565b91507f546f6b656e204944206973206e6f7420696e207468652072657365727665207260008301527f616e67652e0000000000000000000000000000000000000000000000000000006020830152604082019050919050565b6000612fe1601c83613d0f565b91507f4552433732313a20746f6b656e20616c7265616479206d696e746564000000006000830152602082019050919050565b6000613021602483613d0f565b91507f4552433732313a207472616e7366657220746f20746865207a65726f2061646460008301527f72657373000000000000000000000000000000000000000000000000000000006020830152604082019050919050565b6000613087601983613d0f565b91507f4552433732313a20617070726f766520746f2063616c6c6572000000000000006000830152602082019050919050565b60006130c7602c83613d0f565b91507f4552433732313a206f70657261746f7220717565727920666f72206e6f6e657860008301527f697374656e7420746f6b656e00000000000000000000000000000000000000006020830152604082019050919050565b600061312d603883613d0f565b91507f4552433732313a20617070726f76652063616c6c6572206973206e6f74206f7760008301527f6e6572206e6f7220617070726f76656420666f7220616c6c00000000000000006020830152604082019050919050565b6000613193602a83613d0f565b91507f4552433732313a2062616c616e636520717565727920666f7220746865207a6560008301527f726f2061646472657373000000000000000000000000000000000000000000006020830152604082019050919050565b60006131f9602983613d0f565b91507f4552433732313a206f776e657220717565727920666f72206e6f6e657869737460008301527f656e7420746f6b656e00000000000000000000000000000000000000000000006020830152604082019050919050565b600061325f603783613d0f565b91507f546865726520617265206e6f206d6f7265204e46547320666f72207075626c6960008301527f63206d696e74696e6720617420746869732074696d652e0000000000000000006020830152604082019050919050565b60006132c5602083613d0f565b91507f4552433732313a206d696e7420746f20746865207a65726f20616464726573736000830152602082019050919050565b6000613305603183613d0f565b91507f45524337323155524953746f726167653a2055524920717565727920666f722060008301527f6e6f6e6578697374656e7420746f6b656e0000000000000000000000000000006020830152604082019050919050565b600061336b602c83613d0f565b91507f4552433732313a20617070726f76656420717565727920666f72206e6f6e657860008301527f697374656e7420746f6b656e00000000000000000000000000000000000000006020830152604082019050919050565b60006133d1602983613d0f565b91507f4552433732313a207472616e73666572206f6620746f6b656e2074686174206960008301527f73206e6f74206f776e00000000000000000000000000000000000000000000006020830152604082019050919050565b6000613437602f83613d0f565b91507f4552433732314d657461646174613a2055524920717565727920666f72206e6f60008301527f6e6578697374656e7420746f6b656e00000000000000000000000000000000006020830152604082019050919050565b600061349d602183613d0f565b91507f4552433732313a20617070726f76616c20746f2063757272656e74206f776e6560008301527f72000000000000000000000000000000000000000000000000000000000000006020830152604082019050919050565b6000613503602483613d0f565b91507f596f752068617665207265616368656420796f7572206d696e74696e67206c6960008301527f6d69742e000000000000000000000000000000000000000000000000000000006020830152604082019050919050565b6000613569603183613d0f565b91507f4552433732313a207472616e736665722063616c6c6572206973206e6f74206f60008301527f776e6572206e6f7220617070726f7665640000000000000000000000000000006020830152604082019050919050565b60006135cf602a83613d0f565b91507f546865726520617265206e6f206d6f7265204e46547320666f72207075626c6960008301527f63206d696e74696e672e000000000000000000000000000000000000000000006020830152604082019050919050565b6000613635601783613d20565b91507f416363657373436f6e74726f6c3a206163636f756e74200000000000000000006000830152601782019050919050565b6000613675603083613d0f565b91507f4552433732314275726e61626c653a2063616c6c6572206973206e6f74206f7760008301527f6e6572206e6f7220617070726f766564000000000000000000000000000000006020830152604082019050919050565b60006136db601183613d20565b91507f206973206d697373696e6720726f6c65200000000000000000000000000000006000830152601182019050919050565b600061371b602f83613d0f565b91507f416363657373436f6e74726f6c3a2063616e206f6e6c792072656e6f756e636560008301527f20726f6c657320666f722073656c6600000000000000000000000000000000006020830152604082019050919050565b6000613781603483613d0f565b91507f5468697320776f756c64206578636565642074686520746f74616c206e756d6260008301527f6572206f66207265736572766564204e4654732e0000000000000000000000006020830152604082019050919050565b60006137e7603a83613d0f565b91507f596f752063616e6e6f7420736574207468652074656d706f72617279206d617860008301527f2061626f766520746865206162736f6c75746520746f74616c2e0000000000006020830152604082019050919050565b61384981613eb4565b82525050565b600061385b8285612e97565b91506138678284612e97565b91508190509392505050565b600061387e82613628565b915061388a8285612e97565b9150613895826136ce565b91506138a18284612e97565b91508190509392505050565b60006020820190506138c26000830184612df8565b92915050565b60006080820190506138dd6000830187612df8565b6138ea6020830186612df8565b6138f76040830185613840565b81810360608301526139098184612e25565b905095945050505050565b60006020820190506139296000830184612e07565b92915050565b60006020820190506139446000830184612e16565b92915050565b600060208201905081810360008301526139648184612e5e565b905092915050565b6000602082019050818103600083015261398581612ec8565b9050919050565b600060208201905081810360008301526139a581612f08565b9050919050565b600060208201905081810360008301526139c581612f6e565b9050919050565b600060208201905081810360008301526139e581612fd4565b9050919050565b60006020820190508181036000830152613a0581613014565b9050919050565b60006020820190508181036000830152613a258161307a565b9050919050565b60006020820190508181036000830152613a45816130ba565b9050919050565b60006020820190508181036000830152613a6581613120565b9050919050565b60006020820190508181036000830152613a8581613186565b9050919050565b60006020820190508181036000830152613aa5816131ec565b9050919050565b60006020820190508181036000830152613ac581613252565b9050919050565b60006020820190508181036000830152613ae5816132b8565b9050919050565b60006020820190508181036000830152613b05816132f8565b9050919050565b60006020820190508181036000830152613b258161335e565b9050919050565b60006020820190508181036000830152613b45816133c4565b9050919050565b60006020820190508181036000830152613b658161342a565b9050919050565b60006020820190508181036000830152613b8581613490565b9050919050565b60006020820190508181036000830152613ba5816134f6565b9050919050565b60006020820190508181036000830152613bc58161355c565b9050919050565b60006020820190508181036000830152613be5816135c2565b9050919050565b60006020820190508181036000830152613c0581613668565b9050919050565b60006020820190508181036000830152613c258161370e565b9050919050565b60006020820190508181036000830152613c4581613774565b9050919050565b60006020820190508181036000830152613c65816137da565b9050919050565b6000602082019050613c816000830184613840565b92915050565b6000604051905081810181811067ffffffffffffffff82111715613cae57613cad614063565b5b8060405250919050565b600067ffffffffffffffff821115613cd357613cd2614063565b5b601f19601f8301169050602081019050919050565b600081519050919050565b600081519050919050565b600082825260208201905092915050565b600082825260208201905092915050565b600081905092915050565b6000613d3682613eb4565b9150613d4183613eb4565b9250827fffffffffffffffffffffffffffffffffffffffffffffffffffffffffffffffff03821115613d7657613d75613fd6565b5b828201905092915050565b6000613d8c82613eb4565b9150613d9783613eb4565b925082613da757613da6614005565b5b828204905092915050565b6000613dbd82613eb4565b9150613dc883613eb4565b9250817fffffffffffffffffffffffffffffffffffffffffffffffffffffffffffffffff0483118215151615613e0157613e00613fd6565b5b828202905092915050565b6000613e1782613eb4565b9150613e2283613eb4565b925082821015613e3557613e34613fd6565b5b828203905092915050565b6000613e4b82613e94565b9050919050565b60008115159050919050565b6000819050919050565b60007fffffffff0000000000000000000000000000000000000000000000000000000082169050919050565b600073ffffffffffffffffffffffffffffffffffffffff82169050919050565b6000819050919050565b82818337600083830152505050565b60005b83811015613eeb578082015181840152602081019050613ed0565b83811115613efa576000848401525b50505050565b6000613f0b82613eb4565b91506000821415613f1f57613f1e613fd6565b5b600182039050919050565b60006002820490506001821680613f4257607f821691505b60208210811415613f5657613f55614034565b5b50919050565b6000613f6782613eb4565b91507fffffffffffffffffffffffffffffffffffffffffffffffffffffffffffffffff821415613f9a57613f99613fd6565b5b600182019050919050565b6000613fb082613eb4565b9150613fbb83613eb4565b925082613fcb57613fca614005565b5b828206905092915050565b7f4e487b7100000000000000000000000000000000000000000000000000000000600052601160045260246000fd5b7f4e487b7100000000000000000000000000000000000000000000000000000000600052601260045260246000fd5b7f4e487b7100000000000000000000000000000000000000000000000000000000600052602260045260246000fd5b7f4e487b7100000000000000000000000000000000000000000000000000000000600052604160045260246000fd5b6000601f19601f8301169050919050565b6140ac81613e40565b81146140b757600080fd5b50565b6140c381613e52565b81146140ce57600080fd5b50565b6140da81613e5e565b81146140e557600080fd5b50565b6140f181613e68565b81146140fc57600080fd5b50565b61410881613eb4565b811461411357600080fd5b5056fea2646970667358221220b2b59cb4ac4d07b85c23cbdba0b0321687cd53b5901fc4e64019f7974357ef2964736f6c63430008000033",
  "linkReferences": {},
  "deployedLinkReferences": {}
}