{
  "_format": "hh-sol-artifact-1",
  "contractName": "MyNFT",
  "sourceName": "contracts/MyNFT.sol",
  "abi": [
    {
      "inputs": [
        {
          "internalType": "uint256",
          "name": "_temporaryMaxPublic",
          "type": "uint256"
        },
        {
          "internalType": "address[]",
          "name": "_adminAddresses",
          "type": "address[]"
        }
      ],
      "stateMutability": "nonpayable",
      "type": "constructor"
    },
    {
      "anonymous": false,
      "inputs": [
        {
          "indexed": true,
          "internalType": "address",
          "name": "owner",
          "type": "address"
        },
        {
          "indexed": true,
          "internalType": "address",
          "name": "approved",
          "type": "address"
        },
        {
          "indexed": true,
          "internalType": "uint256",
          "name": "tokenId",
          "type": "uint256"
        }
      ],
      "name": "Approval",
      "type": "event"
    },
    {
      "anonymous": false,
      "inputs": [
        {
          "indexed": true,
          "internalType": "address",
          "name": "owner",
          "type": "address"
        },
        {
          "indexed": true,
          "internalType": "address",
          "name": "operator",
          "type": "address"
        },
        {
          "indexed": false,
          "internalType": "bool",
          "name": "approved",
          "type": "bool"
        }
      ],
      "name": "ApprovalForAll",
      "type": "event"
    },
    {
      "anonymous": false,
      "inputs": [
        {
          "indexed": true,
          "internalType": "address",
          "name": "previousOwner",
          "type": "address"
        },
        {
          "indexed": true,
          "internalType": "address",
          "name": "newOwner",
          "type": "address"
        }
      ],
      "name": "OwnershipTransferred",
      "type": "event"
    },
    {
      "anonymous": false,
      "inputs": [
        {
          "indexed": true,
          "internalType": "bytes32",
          "name": "role",
          "type": "bytes32"
        },
        {
          "indexed": true,
          "internalType": "bytes32",
          "name": "previousAdminRole",
          "type": "bytes32"
        },
        {
          "indexed": true,
          "internalType": "bytes32",
          "name": "newAdminRole",
          "type": "bytes32"
        }
      ],
      "name": "RoleAdminChanged",
      "type": "event"
    },
    {
      "anonymous": false,
      "inputs": [
        {
          "indexed": true,
          "internalType": "bytes32",
          "name": "role",
          "type": "bytes32"
        },
        {
          "indexed": true,
          "internalType": "address",
          "name": "account",
          "type": "address"
        },
        {
          "indexed": true,
          "internalType": "address",
          "name": "sender",
          "type": "address"
        }
      ],
      "name": "RoleGranted",
      "type": "event"
    },
    {
      "anonymous": false,
      "inputs": [
        {
          "indexed": true,
          "internalType": "bytes32",
          "name": "role",
          "type": "bytes32"
        },
        {
          "indexed": true,
          "internalType": "address",
          "name": "account",
          "type": "address"
        },
        {
          "indexed": true,
          "internalType": "address",
          "name": "sender",
          "type": "address"
        }
      ],
      "name": "RoleRevoked",
      "type": "event"
    },
    {
      "anonymous": false,
      "inputs": [
        {
          "indexed": true,
          "internalType": "address",
          "name": "from",
          "type": "address"
        },
        {
          "indexed": true,
          "internalType": "address",
          "name": "to",
          "type": "address"
        },
        {
          "indexed": true,
          "internalType": "uint256",
          "name": "tokenId",
          "type": "uint256"
        }
      ],
      "name": "Transfer",
      "type": "event"
    },
    {
      "inputs": [],
      "name": "DEFAULT_ADMIN_ROLE",
      "outputs": [
        {
          "internalType": "bytes32",
          "name": "",
          "type": "bytes32"
        }
      ],
      "stateMutability": "view",
      "type": "function"
    },
    {
      "inputs": [],
      "name": "MAX_PER_PUBLIC_ADDRESS",
      "outputs": [
        {
          "internalType": "uint256",
          "name": "",
          "type": "uint256"
        }
      ],
      "stateMutability": "view",
      "type": "function"
    },
    {
      "inputs": [],
      "name": "MAX_PUBLIC",
      "outputs": [
        {
          "internalType": "uint256",
          "name": "",
          "type": "uint256"
        }
      ],
      "stateMutability": "view",
      "type": "function"
    },
    {
      "inputs": [],
      "name": "MAX_RESERVED",
      "outputs": [
        {
          "internalType": "uint256",
          "name": "",
          "type": "uint256"
        }
      ],
      "stateMutability": "view",
      "type": "function"
    },
    {
      "inputs": [
        {
          "internalType": "address",
          "name": "to",
          "type": "address"
        },
        {
          "internalType": "uint256",
          "name": "tokenId",
          "type": "uint256"
        }
      ],
      "name": "approve",
      "outputs": [],
      "stateMutability": "nonpayable",
      "type": "function"
    },
    {
      "inputs": [
        {
          "internalType": "address",
          "name": "owner",
          "type": "address"
        }
      ],
      "name": "balanceOf",
      "outputs": [
        {
          "internalType": "uint256",
          "name": "",
          "type": "uint256"
        }
      ],
      "stateMutability": "view",
      "type": "function"
    },
    {
      "inputs": [
        {
          "internalType": "uint256",
          "name": "tokenId",
          "type": "uint256"
        }
      ],
      "name": "burn",
      "outputs": [],
      "stateMutability": "nonpayable",
      "type": "function"
    },
    {
      "inputs": [
        {
          "internalType": "uint256",
          "name": "tokenId",
          "type": "uint256"
        }
      ],
      "name": "getApproved",
      "outputs": [
        {
          "internalType": "address",
          "name": "",
          "type": "address"
        }
      ],
      "stateMutability": "view",
      "type": "function"
    },
    {
      "inputs": [
        {
          "internalType": "bytes32",
          "name": "role",
          "type": "bytes32"
        }
      ],
      "name": "getRoleAdmin",
      "outputs": [
        {
          "internalType": "bytes32",
          "name": "",
          "type": "bytes32"
        }
      ],
      "stateMutability": "view",
      "type": "function"
    },
    {
      "inputs": [
        {
          "internalType": "bytes32",
          "name": "role",
          "type": "bytes32"
        },
        {
          "internalType": "address",
          "name": "account",
          "type": "address"
        }
      ],
      "name": "grantRole",
      "outputs": [],
      "stateMutability": "nonpayable",
      "type": "function"
    },
    {
      "inputs": [
        {
          "internalType": "bytes32",
          "name": "role",
          "type": "bytes32"
        },
        {
          "internalType": "address",
          "name": "account",
          "type": "address"
        }
      ],
      "name": "hasRole",
      "outputs": [
        {
          "internalType": "bool",
          "name": "",
          "type": "bool"
        }
      ],
      "stateMutability": "view",
      "type": "function"
    },
    {
      "inputs": [
        {
          "internalType": "address",
          "name": "owner",
          "type": "address"
        },
        {
          "internalType": "address",
          "name": "operator",
          "type": "address"
        }
      ],
      "name": "isApprovedForAll",
      "outputs": [
        {
          "internalType": "bool",
          "name": "",
          "type": "bool"
        }
      ],
      "stateMutability": "view",
      "type": "function"
    },
    {
      "inputs": [],
      "name": "mintPublic",
      "outputs": [],
      "stateMutability": "nonpayable",
      "type": "function"
    },
    {
      "inputs": [
        {
          "internalType": "uint256",
          "name": "numTokens",
          "type": "uint256"
        }
      ],
      "name": "mintReserved",
      "outputs": [],
      "stateMutability": "nonpayable",
      "type": "function"
    },
    {
      "inputs": [],
      "name": "name",
      "outputs": [
        {
          "internalType": "string",
          "name": "",
          "type": "string"
        }
      ],
      "stateMutability": "view",
      "type": "function"
    },
    {
      "inputs": [],
      "name": "owner",
      "outputs": [
        {
          "internalType": "address",
          "name": "",
          "type": "address"
        }
      ],
      "stateMutability": "view",
      "type": "function"
    },
    {
      "inputs": [
        {
          "internalType": "uint256",
          "name": "tokenId",
          "type": "uint256"
        }
      ],
      "name": "ownerOf",
      "outputs": [
        {
          "internalType": "address",
          "name": "",
          "type": "address"
        }
      ],
      "stateMutability": "view",
      "type": "function"
    },
    {
      "inputs": [],
      "name": "renounceOwnership",
      "outputs": [],
      "stateMutability": "nonpayable",
      "type": "function"
    },
    {
      "inputs": [
        {
          "internalType": "bytes32",
          "name": "role",
          "type": "bytes32"
        },
        {
          "internalType": "address",
          "name": "account",
          "type": "address"
        }
      ],
      "name": "renounceRole",
      "outputs": [],
      "stateMutability": "nonpayable",
      "type": "function"
    },
    {
      "inputs": [
        {
          "internalType": "bytes32",
          "name": "role",
          "type": "bytes32"
        },
        {
          "internalType": "address",
          "name": "account",
          "type": "address"
        }
      ],
      "name": "revokeRole",
      "outputs": [],
      "stateMutability": "nonpayable",
      "type": "function"
    },
    {
      "inputs": [
        {
          "internalType": "address",
          "name": "from",
          "type": "address"
        },
        {
          "internalType": "address",
          "name": "to",
          "type": "address"
        },
        {
          "internalType": "uint256",
          "name": "tokenId",
          "type": "uint256"
        }
      ],
      "name": "safeTransferFrom",
      "outputs": [],
      "stateMutability": "nonpayable",
      "type": "function"
    },
    {
      "inputs": [
        {
          "internalType": "address",
          "name": "from",
          "type": "address"
        },
        {
          "internalType": "address",
          "name": "to",
          "type": "address"
        },
        {
          "internalType": "uint256",
          "name": "tokenId",
          "type": "uint256"
        },
        {
          "internalType": "bytes",
          "name": "_data",
          "type": "bytes"
        }
      ],
      "name": "safeTransferFrom",
      "outputs": [],
      "stateMutability": "nonpayable",
      "type": "function"
    },
    {
      "inputs": [
        {
          "internalType": "address",
          "name": "operator",
          "type": "address"
        },
        {
          "internalType": "bool",
          "name": "approved",
          "type": "bool"
        }
      ],
      "name": "setApprovalForAll",
      "outputs": [],
      "stateMutability": "nonpayable",
      "type": "function"
    },
    {
      "inputs": [
        {
          "internalType": "uint256",
          "name": "_temporaryMaxPublic",
          "type": "uint256"
        }
      ],
      "name": "setTemporaryMaxPublic",
      "outputs": [],
      "stateMutability": "nonpayable",
      "type": "function"
    },
    {
      "inputs": [
        {
          "internalType": "bytes4",
          "name": "interfaceId",
          "type": "bytes4"
        }
      ],
      "name": "supportsInterface",
      "outputs": [
        {
          "internalType": "bool",
          "name": "",
          "type": "bool"
        }
      ],
      "stateMutability": "view",
      "type": "function"
    },
    {
      "inputs": [],
      "name": "symbol",
      "outputs": [
        {
          "internalType": "string",
          "name": "",
          "type": "string"
        }
      ],
      "stateMutability": "view",
      "type": "function"
    },
    {
      "inputs": [],
      "name": "temporaryMaxPublic",
      "outputs": [
        {
          "internalType": "uint256",
          "name": "",
          "type": "uint256"
        }
      ],
      "stateMutability": "view",
      "type": "function"
    },
    {
      "inputs": [
        {
          "internalType": "uint256",
          "name": "tokenId",
          "type": "uint256"
        }
      ],
      "name": "tokenURI",
      "outputs": [
        {
          "internalType": "string",
          "name": "",
          "type": "string"
        }
      ],
      "stateMutability": "view",
      "type": "function"
    },
    {
      "inputs": [],
      "name": "totalSupply",
      "outputs": [
        {
          "internalType": "uint256",
          "name": "",
          "type": "uint256"
        }
      ],
      "stateMutability": "view",
      "type": "function"
    },
    {
      "inputs": [
        {
          "internalType": "address",
          "name": "from",
          "type": "address"
        },
        {
          "internalType": "address",
          "name": "to",
          "type": "address"
        },
        {
          "internalType": "uint256",
          "name": "tokenId",
          "type": "uint256"
        }
      ],
      "name": "transferFrom",
      "outputs": [],
      "stateMutability": "nonpayable",
      "type": "function"
    },
    {
      "inputs": [
        {
          "internalType": "address",
          "name": "newOwner",
          "type": "address"
        }
      ],
      "name": "transferOwnership",
      "outputs": [],
      "stateMutability": "nonpayable",
      "type": "function"
    }
  ],
  "bytecode": "0x60806040523480156200001157600080fd5b5060405162004bd038038062004bd083398181016040528101906200003791906200066d565b6040518060400160405280600581526020017f4d794e46540000000000000000000000000000000000000000000000000000008152506040518060400160405280600381526020017f4e465400000000000000000000000000000000000000000000000000000000008152508160009080519060200190620000bb929190620004ed565b508060019080519060200190620000d4929190620004ed565b505050620000f7620000eb620002c260201b60201c565b620002ca60201b60201c565b60288211156200013e576040517f08c379a000000000000000000000000000000000000000000000000000000000815260040162000135906200081d565b60405180910390fd5b600081511162000185576040517f08c379a00000000000000000000000000000000000000000000000000000000081526004016200017c90620007d9565b60405180910390fd5b81600c8190555060005b8151811015620002b957600073ffffffffffffffffffffffffffffffffffffffff16828281518110620001eb577f4e487b7100000000000000000000000000000000000000000000000000000000600052603260045260246000fd5b602002602001015173ffffffffffffffffffffffffffffffffffffffff1614156200024d576040517f08c379a00000000000000000000000000000000000000000000000000000000081526004016200024490620007fb565b60405180910390fd5b620002a36000801b8383815181106200028f577f4e487b7100000000000000000000000000000000000000000000000000000000600052603260045260246000fd5b60200260200101516200039060201b60201c565b8080620002b09062000927565b9150506200018f565b50505062000a36565b600033905090565b6000600860009054906101000a900473ffffffffffffffffffffffffffffffffffffffff16905081600860006101000a81548173ffffffffffffffffffffffffffffffffffffffff021916908373ffffffffffffffffffffffffffffffffffffffff1602179055508173ffffffffffffffffffffffffffffffffffffffff168173ffffffffffffffffffffffffffffffffffffffff167f8be0079c531659141344cd1fd0a4f28419497f9722a3daafe3b4186f6b6457e060405160405180910390a35050565b620003a282826200048260201b60201c565b6200047e5760016007600084815260200190815260200160002060000160008373ffffffffffffffffffffffffffffffffffffffff1673ffffffffffffffffffffffffffffffffffffffff16815260200190815260200160002060006101000a81548160ff02191690831515021790555062000423620002c260201b60201c565b73ffffffffffffffffffffffffffffffffffffffff168173ffffffffffffffffffffffffffffffffffffffff16837f2f8788117e7eff1d82e926ec794901d17c78024a50270940304540a733656f0d60405160405180910390a45b5050565b60006007600084815260200190815260200160002060000160008373ffffffffffffffffffffffffffffffffffffffff1673ffffffffffffffffffffffffffffffffffffffff16815260200190815260200160002060009054906101000a900460ff16905092915050565b828054620004fb90620008f1565b90600052602060002090601f0160209004810192826200051f57600085556200056b565b82601f106200053a57805160ff19168380011785556200056b565b828001600101855582156200056b579182015b828111156200056a5782518255916020019190600101906200054d565b5b5090506200057a91906200057e565b5090565b5b80821115620005995760008160009055506001016200057f565b5090565b6000620005b4620005ae8462000873565b6200083f565b90508083825260208201905082856020860282011115620005d457600080fd5b60005b85811015620006085781620005ed888262000612565b845260208401935060208301925050600181019050620005d7565b5050509392505050565b600081519050620006238162000a02565b92915050565b600082601f8301126200063b57600080fd5b81516200064d8482602086016200059d565b91505092915050565b600081519050620006678162000a1c565b92915050565b600080604083850312156200068157600080fd5b6000620006918582860162000656565b925050602083015167ffffffffffffffff811115620006af57600080fd5b620006bd8582860162000629565b9150509250929050565b6000620006d6602583620008a2565b91507f5f61646d696e416464726573736573206c656e6774682063616e6e6f7420626560008301527f207a65726f0000000000000000000000000000000000000000000000000000006020830152604082019050919050565b60006200073e601c83620008a2565b91507f61646d696e2063616e6e6f74206265207a65726f2061646472657373000000006000830152602082019050919050565b600062000780603b83620008a2565b91507f5f74656d706f726172794d61785075626c69632063616e6e6f7420626520677260008301527f6561746572207468616e206d6178207075626c69632076616c756500000000006020830152604082019050919050565b60006020820190508181036000830152620007f481620006c7565b9050919050565b6000602082019050818103600083015262000816816200072f565b9050919050565b60006020820190508181036000830152620008388162000771565b9050919050565b6000604051905081810181811067ffffffffffffffff82111715620008695762000868620009d3565b5b8060405250919050565b600067ffffffffffffffff821115620008915762000890620009d3565b5b602082029050602081019050919050565b600082825260208201905092915050565b6000620008c082620008c7565b9050919050565b600073ffffffffffffffffffffffffffffffffffffffff82169050919050565b6000819050919050565b600060028204905060018216806200090a57607f821691505b60208210811415620009215762000920620009a4565b5b50919050565b60006200093482620008e7565b91507fffffffffffffffffffffffffffffffffffffffffffffffffffffffffffffffff8214156200096a576200096962000975565b5b600182019050919050565b7f4e487b7100000000000000000000000000000000000000000000000000000000600052601160045260246000fd5b7f4e487b7100000000000000000000000000000000000000000000000000000000600052602260045260246000fd5b7f4e487b7100000000000000000000000000000000000000000000000000000000600052604160045260246000fd5b62000a0d81620008b3565b811462000a1957600080fd5b50565b62000a2781620008e7565b811462000a3357600080fd5b50565b61418a8062000a466000396000f3fe608060405234801561001057600080fd5b50600436106101e55760003560e01c80638a0b46fe1161010f578063a22cb465116100a2578063c87b56dd11610071578063c87b56dd14610544578063d547741f14610574578063e985e9c514610590578063f2fde38b146105c0576101e5565b8063a22cb465146104d2578063a41547e3146104ee578063a60157e61461050c578063b88d4fde14610528576101e5565b806395d89b41116100de57806395d89b411461045c5780639753eac01461047a5780639a5d140b14610498578063a217fddf146104b4576101e5565b80638a0b46fe146103e65780638c874ebd146104045780638da5cb5b1461040e57806391d148541461042c576101e5565b80632f2ff15d116101875780636352211e116101565780636352211e1461035e5780636ba90c6e1461038e57806370a08231146103ac578063715018a6146103dc576101e5565b80632f2ff15d146102ee57806336568abe1461030a57806342842e0e1461032657806342966c6814610342576101e5565b8063095ea7b3116101c3578063095ea7b31461026857806318160ddd1461028457806323b872dd146102a2578063248a9ca3146102be576101e5565b806301ffc9a7146101ea57806306fdde031461021a578063081812fc14610238575b600080fd5b61020460048036038101906101ff9190612cfb565b6105dc565b6040516102119190613912565b60405180910390f35b6102226105ee565b60405161022f9190613948565b60405180910390f35b610252600480360381019061024d9190612d4d565b610680565b60405161025f91906138ab565b60405180910390f35b610282600480360381019061027d9190612c5a565b610705565b005b61028c61081d565b6040516102999190613caa565b60405180910390f35b6102bc60048036038101906102b79190612b54565b610842565b005b6102d860048036038101906102d39190612c96565b6108a2565b6040516102e5919061392d565b60405180910390f35b61030860048036038101906103039190612cbf565b6108c2565b005b610324600480360381019061031f9190612cbf565b6108eb565b005b610340600480360381019061033b9190612b54565b61096e565b005b61035c60048036038101906103579190612d4d565b61098e565b005b61037860048036038101906103739190612d4d565b6109ea565b60405161038591906138ab565b60405180910390f35b610396610a9c565b6040516103a39190613caa565b60405180910390f35b6103c660048036038101906103c19190612aef565b610aa1565b6040516103d39190613caa565b60405180910390f35b6103e4610b59565b005b6103ee610be1565b6040516103fb9190613caa565b60405180910390f35b61040c610be6565b005b610416610d77565b60405161042391906138ab565b60405180910390f35b61044660048036038101906104419190612cbf565b610da1565b6040516104539190613912565b60405180910390f35b610464610e0c565b6040516104719190613948565b60405180910390f35b610482610e9e565b60405161048f9190613caa565b60405180910390f35b6104b260048036038101906104ad9190612d4d565b610ea3565b005b6104bc610f9f565b6040516104c9919061392d565b60405180910390f35b6104ec60048036038101906104e79190612c1e565b610fa6565b005b6104f6610fbc565b6040516105039190613caa565b60405180910390f35b61052660048036038101906105219190612d4d565b610fc2565b005b610542600480360381019061053d9190612ba3565b611026565b005b61055e60048036038101906105599190612d4d565b611088565b60405161056b9190613948565b60405180910390f35b61058e60048036038101906105899190612cbf565b61109a565b005b6105aa60048036038101906105a59190612b18565b6110c3565b6040516105b79190613912565b60405180910390f35b6105da60048036038101906105d59190612aef565b611157565b005b60006105e78261124f565b9050919050565b6060600080546105fd90613f68565b80601f016020809104026020016040519081016040528092919081815260200182805461062990613f68565b80156106765780601f1061064b57610100808354040283529160200191610676565b820191906000526020600020905b81548152906001019060200180831161065957829003601f168201915b5050505050905090565b600061068b826112c9565b6106ca576040517f08c379a00000000000000000000000000000000000000000000000000000000081526004016106c190613b2a565b60405180910390fd5b6004600083815260200190815260200160002060009054906101000a900473ffffffffffffffffffffffffffffffffffffffff169050919050565b6000610710826109ea565b90508073ffffffffffffffffffffffffffffffffffffffff168373ffffffffffffffffffffffffffffffffffffffff161415610781576040517f08c379a000000000000000000000000000000000000000000000000000000000815260040161077890613baa565b60405180910390fd5b8073ffffffffffffffffffffffffffffffffffffffff166107a0611335565b73ffffffffffffffffffffffffffffffffffffffff1614806107cf57506107ce816107c9611335565b6110c3565b5b61080e576040517f08c379a000000000000000000000000000000000000000000000000000000000815260040161080590613a8a565b60405180910390fd5b610818838361133d565b505050565b600061082960096113f6565b610833600a6113f6565b61083d9190613d69565b905090565b61085361084d611335565b82611404565b610892576040517f08c379a000000000000000000000000000000000000000000000000000000000815260040161088990613bea565b60405180910390fd5b61089d8383836114e2565b505050565b600060076000838152602001908152602001600020600101549050919050565b6108cb826108a2565b6108dc816108d7611335565b61173e565b6108e683836117db565b505050565b6108f3611335565b73ffffffffffffffffffffffffffffffffffffffff168173ffffffffffffffffffffffffffffffffffffffff1614610960576040517f08c379a000000000000000000000000000000000000000000000000000000000815260040161095790613c8a565b60405180910390fd5b61096a82826118bc565b5050565b61098983838360405180602001604052806000815250611026565b505050565b61099f610999611335565b82611404565b6109de576040517f08c379a00000000000000000000000000000000000000000000000000000000081526004016109d590613c6a565b60405180910390fd5b6109e78161199e565b50565b6000806002600084815260200190815260200160002060009054906101000a900473ffffffffffffffffffffffffffffffffffffffff169050600073ffffffffffffffffffffffffffffffffffffffff168173ffffffffffffffffffffffffffffffffffffffff161415610a93576040517f08c379a0000000000000000000000000000000000000000000000000000000008152600401610a8a90613aca565b60405180910390fd5b80915050919050565b600a81565b60008073ffffffffffffffffffffffffffffffffffffffff168273ffffffffffffffffffffffffffffffffffffffff161415610b12576040517f08c379a0000000000000000000000000000000000000000000000000000000008152600401610b0990613aaa565b60405180910390fd5b600360008373ffffffffffffffffffffffffffffffffffffffff1673ffffffffffffffffffffffffffffffffffffffff168152602001908152602001600020549050919050565b610b61611335565b73ffffffffffffffffffffffffffffffffffffffff16610b7f610d77565b73ffffffffffffffffffffffffffffffffffffffff1614610bd5576040517f08c379a0000000000000000000000000000000000000000000000000000000008152600401610bcc90613b4a565b60405180910390fd5b610bdf60006119aa565b565b600381565b6003600b60003373ffffffffffffffffffffffffffffffffffffffff1673ffffffffffffffffffffffffffffffffffffffff1681526020019081526020016000205410610c68576040517f08c379a0000000000000000000000000000000000000000000000000000000008152600401610c5f90613c2a565b60405180910390fd5b6028610c7460096113f6565b10610cb4576040517f08c379a0000000000000000000000000000000000000000000000000000000008152600401610cab906139ea565b60405180910390fd5b600c54610cc160096113f6565b10610d01576040517f08c379a0000000000000000000000000000000000000000000000000000000008152600401610cf890613bca565b60405180910390fd5b6001600b60003373ffffffffffffffffffffffffffffffffffffffff1673ffffffffffffffffffffffffffffffffffffffff1681526020019081526020016000206000828254610d519190613d69565b92505081905550610d626009611a70565b610d7533610d7060096113f6565b611a86565b565b6000600860009054906101000a900473ffffffffffffffffffffffffffffffffffffffff16905090565b60006007600084815260200190815260200160002060000160008373ffffffffffffffffffffffffffffffffffffffff1673ffffffffffffffffffffffffffffffffffffffff16815260200190815260200160002060009054906101000a900460ff16905092915050565b606060018054610e1b90613f68565b80601f0160208091040260200160405190810160405280929190818152602001828054610e4790613f68565b8015610e945780601f10610e6957610100808354040283529160200191610e94565b820191906000526020600020905b815481529060010190602001808311610e7757829003601f168201915b5050505050905090565b602881565b6000801b610eb881610eb3611335565b61173e565b60008211610efb576040517f08c379a0000000000000000000000000000000000000000000000000000000008152600401610ef290613c0a565b60405180910390fd5b600a82610f08600a6113f6565b610f129190613d69565b1115610f53576040517f08c379a0000000000000000000000000000000000000000000000000000000008152600401610f4a90613c4a565b60405180910390fd5b60005b82811015610f9a57610f68600a611a70565b610f87336028610f78600a6113f6565b610f829190613d69565b611a86565b8080610f9290613f9a565b915050610f56565b505050565b6000801b81565b610fb8610fb1611335565b8383611aa4565b5050565b600c5481565b6000801b610fd781610fd2611335565b61173e565b602882111561101b576040517f08c379a000000000000000000000000000000000000000000000000000000000815260040161101290613a2a565b60405180910390fd5b81600c819055505050565b611037611031611335565b83611404565b611076576040517f08c379a000000000000000000000000000000000000000000000000000000000815260040161106d90613bea565b60405180910390fd5b61108284848484611c11565b50505050565b606061109382611c6d565b9050919050565b6110a3826108a2565b6110b4816110af611335565b61173e565b6110be83836118bc565b505050565b6000600560008473ffffffffffffffffffffffffffffffffffffffff1673ffffffffffffffffffffffffffffffffffffffff16815260200190815260200160002060008373ffffffffffffffffffffffffffffffffffffffff1673ffffffffffffffffffffffffffffffffffffffff16815260200190815260200160002060009054906101000a900460ff16905092915050565b61115f611335565b73ffffffffffffffffffffffffffffffffffffffff1661117d610d77565b73ffffffffffffffffffffffffffffffffffffffff16146111d3576040517f08c379a00000000000000000000000000000000000000000000000000000000081526004016111ca90613b4a565b60405180910390fd5b600073ffffffffffffffffffffffffffffffffffffffff168173ffffffffffffffffffffffffffffffffffffffff161415611243576040517f08c379a000000000000000000000000000000000000000000000000000000000815260040161123a906139aa565b60405180910390fd5b61124c816119aa565b50565b60007f7965db0b000000000000000000000000000000000000000000000000000000007bffffffffffffffffffffffffffffffffffffffffffffffffffffffff1916827bffffffffffffffffffffffffffffffffffffffffffffffffffffffff191614806112c257506112c182611dbf565b5b9050919050565b60008073ffffffffffffffffffffffffffffffffffffffff166002600084815260200190815260200160002060009054906101000a900473ffffffffffffffffffffffffffffffffffffffff1673ffffffffffffffffffffffffffffffffffffffff1614159050919050565b600033905090565b816004600083815260200190815260200160002060006101000a81548173ffffffffffffffffffffffffffffffffffffffff021916908373ffffffffffffffffffffffffffffffffffffffff160217905550808273ffffffffffffffffffffffffffffffffffffffff166113b0836109ea565b73ffffffffffffffffffffffffffffffffffffffff167f8c5be1e5ebec7d5bd14f71427d1e84f3dd0314c0f7b2291e5b200ac8c7c3b92560405160405180910390a45050565b600081600001549050919050565b600061140f826112c9565b61144e576040517f08c379a000000000000000000000000000000000000000000000000000000000815260040161144590613a6a565b60405180910390fd5b6000611459836109ea565b90508073ffffffffffffffffffffffffffffffffffffffff168473ffffffffffffffffffffffffffffffffffffffff1614806114c857508373ffffffffffffffffffffffffffffffffffffffff166114b084610680565b73ffffffffffffffffffffffffffffffffffffffff16145b806114d957506114d881856110c3565b5b91505092915050565b8273ffffffffffffffffffffffffffffffffffffffff16611502826109ea565b73ffffffffffffffffffffffffffffffffffffffff1614611558576040517f08c379a000000000000000000000000000000000000000000000000000000000815260040161154f90613b6a565b60405180910390fd5b600073ffffffffffffffffffffffffffffffffffffffff168273ffffffffffffffffffffffffffffffffffffffff1614156115c8576040517f08c379a00000000000000000000000000000000000000000000000000000000081526004016115bf90613a0a565b60405180910390fd5b6115d3838383611ea1565b6115de60008261133d565b6001600360008573ffffffffffffffffffffffffffffffffffffffff1673ffffffffffffffffffffffffffffffffffffffff168152602001908152602001600020600082825461162e9190613e4a565b925050819055506001600360008473ffffffffffffffffffffffffffffffffffffffff1673ffffffffffffffffffffffffffffffffffffffff16815260200190815260200160002060008282546116859190613d69565b92505081905550816002600083815260200190815260200160002060006101000a81548173ffffffffffffffffffffffffffffffffffffffff021916908373ffffffffffffffffffffffffffffffffffffffff160217905550808273ffffffffffffffffffffffffffffffffffffffff168473ffffffffffffffffffffffffffffffffffffffff167fddf252ad1be2c89b69c2b068fc378daa952ba7f163c4a11628f55a4df523b3ef60405160405180910390a4505050565b6117488282610da1565b6117d75761176d8173ffffffffffffffffffffffffffffffffffffffff166014611ea6565b61177b8360001c6020611ea6565b60405160200161178c929190613871565b6040516020818303038152906040526040517f08c379a00000000000000000000000000000000000000000000000000000000081526004016117ce9190613948565b60405180910390fd5b5050565b6117e58282610da1565b6118b85760016007600084815260200190815260200160002060000160008373ffffffffffffffffffffffffffffffffffffffff1673ffffffffffffffffffffffffffffffffffffffff16815260200190815260200160002060006101000a81548160ff02191690831515021790555061185d611335565b73ffffffffffffffffffffffffffffffffffffffff168173ffffffffffffffffffffffffffffffffffffffff16837f2f8788117e7eff1d82e926ec794901d17c78024a50270940304540a733656f0d60405160405180910390a45b5050565b6118c68282610da1565b1561199a5760006007600084815260200190815260200160002060000160008373ffffffffffffffffffffffffffffffffffffffff1673ffffffffffffffffffffffffffffffffffffffff16815260200190815260200160002060006101000a81548160ff02191690831515021790555061193f611335565b73ffffffffffffffffffffffffffffffffffffffff168173ffffffffffffffffffffffffffffffffffffffff16837ff6391f5c32d9c69d2a47ea670b442974b53935d1edc7fd64eb21e047a839171b60405160405180910390a45b5050565b6119a7816121a0565b50565b6000600860009054906101000a900473ffffffffffffffffffffffffffffffffffffffff16905081600860006101000a81548173ffffffffffffffffffffffffffffffffffffffff021916908373ffffffffffffffffffffffffffffffffffffffff1602179055508173ffffffffffffffffffffffffffffffffffffffff168173ffffffffffffffffffffffffffffffffffffffff167f8be0079c531659141344cd1fd0a4f28419497f9722a3daafe3b4186f6b6457e060405160405180910390a35050565b6001816000016000828254019250508190555050565b611aa08282604051806020016040528060008152506121f3565b5050565b8173ffffffffffffffffffffffffffffffffffffffff168373ffffffffffffffffffffffffffffffffffffffff161415611b13576040517f08c379a0000000000000000000000000000000000000000000000000000000008152600401611b0a90613a4a565b60405180910390fd5b80600560008573ffffffffffffffffffffffffffffffffffffffff1673ffffffffffffffffffffffffffffffffffffffff16815260200190815260200160002060008473ffffffffffffffffffffffffffffffffffffffff1673ffffffffffffffffffffffffffffffffffffffff16815260200190815260200160002060006101000a81548160ff0219169083151502179055508173ffffffffffffffffffffffffffffffffffffffff168373ffffffffffffffffffffffffffffffffffffffff167f17307eab39ab6107e8899845ad3d59bd9653f200f220920489ca2b5937696c3183604051611c049190613912565b60405180910390a3505050565b611c1c8484846114e2565b611c288484848461224e565b611c67576040517f08c379a0000000000000000000000000000000000000000000000000000000008152600401611c5e9061398a565b60405180910390fd5b50505050565b6060611c78826112c9565b611cb7576040517f08c379a0000000000000000000000000000000000000000000000000000000008152600401611cae90613b0a565b60405180910390fd5b6000600660008481526020019081526020016000208054611cd790613f68565b80601f0160208091040260200160405190810160405280929190818152602001828054611d0390613f68565b8015611d505780601f10611d2557610100808354040283529160200191611d50565b820191906000526020600020905b815481529060010190602001808311611d3357829003601f168201915b505050505090506000611d616123e5565b9050600081511415611d77578192505050611dba565b600082511115611dac578082604051602001611d9492919061384d565b60405160208183030381529060405292505050611dba565b611db5846123fc565b925050505b919050565b60007f80ac58cd000000000000000000000000000000000000000000000000000000007bffffffffffffffffffffffffffffffffffffffffffffffffffffffff1916827bffffffffffffffffffffffffffffffffffffffffffffffffffffffff19161480611e8a57507f5b5e139f000000000000000000000000000000000000000000000000000000007bffffffffffffffffffffffffffffffffffffffffffffffffffffffff1916827bffffffffffffffffffffffffffffffffffffffffffffffffffffffff1916145b80611e9a5750611e99826124a3565b5b9050919050565b505050565b606060006002836002611eb99190613df0565b611ec39190613d69565b67ffffffffffffffff811115611f02577f4e487b7100000000000000000000000000000000000000000000000000000000600052604160045260246000fd5b6040519080825280601f01601f191660200182016040528015611f345781602001600182028036833780820191505090505b5090507f300000000000000000000000000000000000000000000000000000000000000081600081518110611f92577f4e487b7100000000000000000000000000000000000000000000000000000000600052603260045260246000fd5b60200101907effffffffffffffffffffffffffffffffffffffffffffffffffffffffffffff1916908160001a9053507f78000000000000000000000000000000000000000000000000000000000000008160018151811061201c577f4e487b7100000000000000000000000000000000000000000000000000000000600052603260045260246000fd5b60200101907effffffffffffffffffffffffffffffffffffffffffffffffffffffffffffff1916908160001a9053506000600184600261205c9190613df0565b6120669190613d69565b90505b6001811115612152577f3031323334353637383961626364656600000000000000000000000000000000600f8616601081106120ce577f4e487b7100000000000000000000000000000000000000000000000000000000600052603260045260246000fd5b1a60f81b82828151811061210b577f4e487b7100000000000000000000000000000000000000000000000000000000600052603260045260246000fd5b60200101907effffffffffffffffffffffffffffffffffffffffffffffffffffffffffffff1916908160001a905350600485901c94508061214b90613f3e565b9050612069565b5060008414612196576040517f08c379a000000000000000000000000000000000000000000000000000000000815260040161218d9061396a565b60405180910390fd5b8091505092915050565b6121a98161250d565b60006006600083815260200190815260200160002080546121c990613f68565b9050146121f0576006600082815260200190815260200160002060006121ef91906129ac565b5b50565b6121fd838361261e565b61220a600084848461224e565b612249576040517f08c379a00000000000000000000000000000000000000000000000000000000081526004016122409061398a565b60405180910390fd5b505050565b600061226f8473ffffffffffffffffffffffffffffffffffffffff166127ec565b156123d8578373ffffffffffffffffffffffffffffffffffffffff1663150b7a02612298611335565b8786866040518563ffffffff1660e01b81526004016122ba94939291906138c6565b602060405180830381600087803b1580156122d457600080fd5b505af192505050801561230557506040513d601f19601f820116820180604052508101906123029190612d24565b60015b612388573d8060008114612335576040519150601f19603f3d011682016040523d82523d6000602084013e61233a565b606091505b50600081511415612380576040517f08c379a00000000000000000000000000000000000000000000000000000000081526004016123779061398a565b60405180910390fd5b805181602001fd5b63150b7a0260e01b7bffffffffffffffffffffffffffffffffffffffffffffffffffffffff1916817bffffffffffffffffffffffffffffffffffffffffffffffffffffffff1916149150506123dd565b600190505b949350505050565b606060405180602001604052806000815250905090565b6060612407826112c9565b612446576040517f08c379a000000000000000000000000000000000000000000000000000000000815260040161243d90613b8a565b60405180910390fd5b60006124506123e5565b90506000815111612470576040518060200160405280600081525061249b565b8061247a846127ff565b60405160200161248b92919061384d565b6040516020818303038152906040525b915050919050565b60007f01ffc9a7000000000000000000000000000000000000000000000000000000007bffffffffffffffffffffffffffffffffffffffffffffffffffffffff1916827bffffffffffffffffffffffffffffffffffffffffffffffffffffffff1916149050919050565b6000612518826109ea565b905061252681600084611ea1565b61253160008361133d565b6001600360008373ffffffffffffffffffffffffffffffffffffffff1673ffffffffffffffffffffffffffffffffffffffff16815260200190815260200160002060008282546125819190613e4a565b925050819055506002600083815260200190815260200160002060006101000a81549073ffffffffffffffffffffffffffffffffffffffff021916905581600073ffffffffffffffffffffffffffffffffffffffff168273ffffffffffffffffffffffffffffffffffffffff167fddf252ad1be2c89b69c2b068fc378daa952ba7f163c4a11628f55a4df523b3ef60405160405180910390a45050565b600073ffffffffffffffffffffffffffffffffffffffff168273ffffffffffffffffffffffffffffffffffffffff16141561268e576040517f08c379a000000000000000000000000000000000000000000000000000000000815260040161268590613aea565b60405180910390fd5b612697816112c9565b156126d7576040517f08c379a00000000000000000000000000000000000000000000000000000000081526004016126ce906139ca565b60405180910390fd5b6126e360008383611ea1565b6001600360008473ffffffffffffffffffffffffffffffffffffffff1673ffffffffffffffffffffffffffffffffffffffff16815260200190815260200160002060008282546127339190613d69565b92505081905550816002600083815260200190815260200160002060006101000a81548173ffffffffffffffffffffffffffffffffffffffff021916908373ffffffffffffffffffffffffffffffffffffffff160217905550808273ffffffffffffffffffffffffffffffffffffffff16600073ffffffffffffffffffffffffffffffffffffffff167fddf252ad1be2c89b69c2b068fc378daa952ba7f163c4a11628f55a4df523b3ef60405160405180910390a45050565b600080823b905060008111915050919050565b60606000821415612847576040518060400160405280600181526020017f300000000000000000000000000000000000000000000000000000000000000081525090506129a7565b600082905060005b6000821461287957808061286290613f9a565b915050600a826128729190613dbf565b915061284f565b60008167ffffffffffffffff8111156128bb577f4e487b7100000000000000000000000000000000000000000000000000000000600052604160045260246000fd5b6040519080825280601f01601f1916602001820160405280156128ed5781602001600182028036833780820191505090505b5090505b600085146129a0576001826129069190613e4a565b9150600a856129159190613fe3565b60306129219190613d69565b60f81b81838151811061295d577f4e487b7100000000000000000000000000000000000000000000000000000000600052603260045260246000fd5b60200101907effffffffffffffffffffffffffffffffffffffffffffffffffffffffffffff1916908160001a905350600a856129999190613dbf565b94506128f1565b8093505050505b919050565b5080546129b890613f68565b6000825580601f106129ca57506129e9565b601f0160209004906000526020600020908101906129e891906129ec565b5b50565b5b80821115612a055760008160009055506001016129ed565b5090565b6000612a1c612a1784613cf6565b613cc5565b905082815260208101848484011115612a3457600080fd5b612a3f848285613efc565b509392505050565b600081359050612a56816140e1565b92915050565b600081359050612a6b816140f8565b92915050565b600081359050612a808161410f565b92915050565b600081359050612a9581614126565b92915050565b600081519050612aaa81614126565b92915050565b600082601f830112612ac157600080fd5b8135612ad1848260208601612a09565b91505092915050565b600081359050612ae98161413d565b92915050565b600060208284031215612b0157600080fd5b6000612b0f84828501612a47565b91505092915050565b60008060408385031215612b2b57600080fd5b6000612b3985828601612a47565b9250506020612b4a85828601612a47565b9150509250929050565b600080600060608486031215612b6957600080fd5b6000612b7786828701612a47565b9350506020612b8886828701612a47565b9250506040612b9986828701612ada565b9150509250925092565b60008060008060808587031215612bb957600080fd5b6000612bc787828801612a47565b9450506020612bd887828801612a47565b9350506040612be987828801612ada565b925050606085013567ffffffffffffffff811115612c0657600080fd5b612c1287828801612ab0565b91505092959194509250565b60008060408385031215612c3157600080fd5b6000612c3f85828601612a47565b9250506020612c5085828601612a5c565b9150509250929050565b60008060408385031215612c6d57600080fd5b6000612c7b85828601612a47565b9250506020612c8c85828601612ada565b9150509250929050565b600060208284031215612ca857600080fd5b6000612cb684828501612a71565b91505092915050565b60008060408385031215612cd257600080fd5b6000612ce085828601612a71565b9250506020612cf185828601612a47565b9150509250929050565b600060208284031215612d0d57600080fd5b6000612d1b84828501612a86565b91505092915050565b600060208284031215612d3657600080fd5b6000612d4484828501612a9b565b91505092915050565b600060208284031215612d5f57600080fd5b6000612d6d84828501612ada565b91505092915050565b612d7f81613e7e565b82525050565b612d8e81613e90565b82525050565b612d9d81613e9c565b82525050565b6000612dae82613d26565b612db88185613d3c565b9350612dc8818560208601613f0b565b612dd1816140d0565b840191505092915050565b6000612de782613d31565b612df18185613d4d565b9350612e01818560208601613f0b565b612e0a816140d0565b840191505092915050565b6000612e2082613d31565b612e2a8185613d5e565b9350612e3a818560208601613f0b565b80840191505092915050565b6000612e53602083613d4d565b91507f537472696e67733a20686578206c656e67746820696e73756666696369656e746000830152602082019050919050565b6000612e93603283613d4d565b91507f4552433732313a207472616e7366657220746f206e6f6e20455243373231526560008301527f63656976657220696d706c656d656e74657200000000000000000000000000006020830152604082019050919050565b6000612ef9602683613d4d565b91507f4f776e61626c653a206e6577206f776e657220697320746865207a65726f206160008301527f64647265737300000000000000000000000000000000000000000000000000006020830152604082019050919050565b6000612f5f601c83613d4d565b91507f4552433732313a20746f6b656e20616c7265616479206d696e746564000000006000830152602082019050919050565b6000612f9f603083613d4d565b91507f6d6178696d756d206e756d626572206f66207075626c696320746f6b656e732060008301527f68617665206265656e206d696e746564000000000000000000000000000000006020830152604082019050919050565b6000613005602483613d4d565b91507f4552433732313a207472616e7366657220746f20746865207a65726f2061646460008301527f72657373000000000000000000000000000000000000000000000000000000006020830152604082019050919050565b600061306b603883613d4d565b91507f63616e6e6f74206368616e67652074656d706f72617279207075626c6963207660008301527f616c756520746f20657863656564206d61782076616c756500000000000000006020830152604082019050919050565b60006130d1601983613d4d565b91507f4552433732313a20617070726f766520746f2063616c6c6572000000000000006000830152602082019050919050565b6000613111602c83613d4d565b91507f4552433732313a206f70657261746f7220717565727920666f72206e6f6e657860008301527f697374656e7420746f6b656e00000000000000000000000000000000000000006020830152604082019050919050565b6000613177603883613d4d565b91507f4552433732313a20617070726f76652063616c6c6572206973206e6f74206f7760008301527f6e6572206e6f7220617070726f76656420666f7220616c6c00000000000000006020830152604082019050919050565b60006131dd602a83613d4d565b91507f4552433732313a2062616c616e636520717565727920666f7220746865207a6560008301527f726f2061646472657373000000000000000000000000000000000000000000006020830152604082019050919050565b6000613243602983613d4d565b91507f4552433732313a206f776e657220717565727920666f72206e6f6e657869737460008301527f656e7420746f6b656e00000000000000000000000000000000000000000000006020830152604082019050919050565b60006132a9602083613d4d565b91507f4552433732313a206d696e7420746f20746865207a65726f20616464726573736000830152602082019050919050565b60006132e9603183613d4d565b91507f45524337323155524953746f726167653a2055524920717565727920666f722060008301527f6e6f6e6578697374656e7420746f6b656e0000000000000000000000000000006020830152604082019050919050565b600061334f602c83613d4d565b91507f4552433732313a20617070726f76656420717565727920666f72206e6f6e657860008301527f697374656e7420746f6b656e00000000000000000000000000000000000000006020830152604082019050919050565b60006133b5602083613d4d565b91507f4f776e61626c653a2063616c6c6572206973206e6f7420746865206f776e65726000830152602082019050919050565b60006133f5602983613d4d565b91507f4552433732313a207472616e73666572206f6620746f6b656e2074686174206960008301527f73206e6f74206f776e00000000000000000000000000000000000000000000006020830152604082019050919050565b600061345b602f83613d4d565b91507f4552433732314d657461646174613a2055524920717565727920666f72206e6f60008301527f6e6578697374656e7420746f6b656e00000000000000000000000000000000006020830152604082019050919050565b60006134c1602183613d4d565b91507f4552433732313a20617070726f76616c20746f2063757272656e74206f776e6560008301527f72000000000000000000000000000000000000000000000000000000000000006020830152604082019050919050565b6000613527603183613d4d565b91507f7468657265206172652063757272656e746c79206e6f206d6f7265207075626c60008301527f696320746f6b656e7320746f206d696e740000000000000000000000000000006020830152604082019050919050565b600061358d603183613d4d565b91507f4552433732313a207472616e736665722063616c6c6572206973206e6f74206f60008301527f776e6572206e6f7220617070726f7665640000000000000000000000000000006020830152604082019050919050565b60006135f3601783613d5e565b91507f416363657373436f6e74726f6c3a206163636f756e74200000000000000000006000830152601782019050919050565b6000613633601883613d4d565b91507f6e756d546f6b656e732063616e6e6f74206265207a65726f00000000000000006000830152602082019050919050565b6000613673602a83613d4d565b91507f74686973206164647265737320686173207265616368656420697473206d696e60008301527f74696e67206c696d6974000000000000000000000000000000000000000000006020830152604082019050919050565b60006136d9602f83613d4d565b91507f6e756d626572206f6620746f6b656e732072657175657374656420657863656560008301527f6473206d617820726573657276656400000000000000000000000000000000006020830152604082019050919050565b600061373f603083613d4d565b91507f4552433732314275726e61626c653a2063616c6c6572206973206e6f74206f7760008301527f6e6572206e6f7220617070726f766564000000000000000000000000000000006020830152604082019050919050565b60006137a5601183613d5e565b91507f206973206d697373696e6720726f6c65200000000000000000000000000000006000830152601182019050919050565b60006137e5602f83613d4d565b91507f416363657373436f6e74726f6c3a2063616e206f6e6c792072656e6f756e636560008301527f20726f6c657320666f722073656c6600000000000000000000000000000000006020830152604082019050919050565b61384781613ef2565b82525050565b60006138598285612e15565b91506138658284612e15565b91508190509392505050565b600061387c826135e6565b91506138888285612e15565b915061389382613798565b915061389f8284612e15565b91508190509392505050565b60006020820190506138c06000830184612d76565b92915050565b60006080820190506138db6000830187612d76565b6138e86020830186612d76565b6138f5604083018561383e565b81810360608301526139078184612da3565b905095945050505050565b60006020820190506139276000830184612d85565b92915050565b60006020820190506139426000830184612d94565b92915050565b600060208201905081810360008301526139628184612ddc565b905092915050565b6000602082019050818103600083015261398381612e46565b9050919050565b600060208201905081810360008301526139a381612e86565b9050919050565b600060208201905081810360008301526139c381612eec565b9050919050565b600060208201905081810360008301526139e381612f52565b9050919050565b60006020820190508181036000830152613a0381612f92565b9050919050565b60006020820190508181036000830152613a2381612ff8565b9050919050565b60006020820190508181036000830152613a438161305e565b9050919050565b60006020820190508181036000830152613a63816130c4565b9050919050565b60006020820190508181036000830152613a8381613104565b9050919050565b60006020820190508181036000830152613aa38161316a565b9050919050565b60006020820190508181036000830152613ac3816131d0565b9050919050565b60006020820190508181036000830152613ae381613236565b9050919050565b60006020820190508181036000830152613b038161329c565b9050919050565b60006020820190508181036000830152613b23816132dc565b9050919050565b60006020820190508181036000830152613b4381613342565b9050919050565b60006020820190508181036000830152613b63816133a8565b9050919050565b60006020820190508181036000830152613b83816133e8565b9050919050565b60006020820190508181036000830152613ba38161344e565b9050919050565b60006020820190508181036000830152613bc3816134b4565b9050919050565b60006020820190508181036000830152613be38161351a565b9050919050565b60006020820190508181036000830152613c0381613580565b9050919050565b60006020820190508181036000830152613c2381613626565b9050919050565b60006020820190508181036000830152613c4381613666565b9050919050565b60006020820190508181036000830152613c63816136cc565b9050919050565b60006020820190508181036000830152613c8381613732565b9050919050565b60006020820190508181036000830152613ca3816137d8565b9050919050565b6000602082019050613cbf600083018461383e565b92915050565b6000604051905081810181811067ffffffffffffffff82111715613cec57613ceb6140a1565b5b8060405250919050565b600067ffffffffffffffff821115613d1157613d106140a1565b5b601f19601f8301169050602081019050919050565b600081519050919050565b600081519050919050565b600082825260208201905092915050565b600082825260208201905092915050565b600081905092915050565b6000613d7482613ef2565b9150613d7f83613ef2565b9250827fffffffffffffffffffffffffffffffffffffffffffffffffffffffffffffffff03821115613db457613db3614014565b5b828201905092915050565b6000613dca82613ef2565b9150613dd583613ef2565b925082613de557613de4614043565b5b828204905092915050565b6000613dfb82613ef2565b9150613e0683613ef2565b9250817fffffffffffffffffffffffffffffffffffffffffffffffffffffffffffffffff0483118215151615613e3f57613e3e614014565b5b828202905092915050565b6000613e5582613ef2565b9150613e6083613ef2565b925082821015613e7357613e72614014565b5b828203905092915050565b6000613e8982613ed2565b9050919050565b60008115159050919050565b6000819050919050565b60007fffffffff0000000000000000000000000000000000000000000000000000000082169050919050565b600073ffffffffffffffffffffffffffffffffffffffff82169050919050565b6000819050919050565b82818337600083830152505050565b60005b83811015613f29578082015181840152602081019050613f0e565b83811115613f38576000848401525b50505050565b6000613f4982613ef2565b91506000821415613f5d57613f5c614014565b5b600182039050919050565b60006002820490506001821680613f8057607f821691505b60208210811415613f9457613f93614072565b5b50919050565b6000613fa582613ef2565b91507fffffffffffffffffffffffffffffffffffffffffffffffffffffffffffffffff821415613fd857613fd7614014565b5b600182019050919050565b6000613fee82613ef2565b9150613ff983613ef2565b92508261400957614008614043565b5b828206905092915050565b7f4e487b7100000000000000000000000000000000000000000000000000000000600052601160045260246000fd5b7f4e487b7100000000000000000000000000000000000000000000000000000000600052601260045260246000fd5b7f4e487b7100000000000000000000000000000000000000000000000000000000600052602260045260246000fd5b7f4e487b7100000000000000000000000000000000000000000000000000000000600052604160045260246000fd5b6000601f19601f8301169050919050565b6140ea81613e7e565b81146140f557600080fd5b50565b61410181613e90565b811461410c57600080fd5b50565b61411881613e9c565b811461412357600080fd5b50565b61412f81613ea6565b811461413a57600080fd5b50565b61414681613ef2565b811461415157600080fd5b5056fea2646970667358221220aab66a801364736c8f05947a0771ae0c435dadeff5ba91160991360b08b1e2d464736f6c63430008000033",
  "linkReferences": {},
  "deployedLinkReferences": {}
}