{
  "_format": "hh-sol-artifact-1",
  "contractName": "CurbYourNFT",
  "sourceName": "contracts/CurbYourNFT.sol",
  "abi": [
    {
      "inputs": [
        {
          "internalType": "uint256",
          "name": "_temporaryMaxPublic",
          "type": "uint256"
        },
        {
          "internalType": "address[]",
          "name": "_adminAddresses",
          "type": "address[]"
        }
      ],
      "stateMutability": "nonpayable",
      "type": "constructor"
    },
    {
      "anonymous": false,
      "inputs": [
        {
          "indexed": true,
          "internalType": "address",
          "name": "owner",
          "type": "address"
        },
        {
          "indexed": true,
          "internalType": "address",
          "name": "approved",
          "type": "address"
        },
        {
          "indexed": true,
          "internalType": "uint256",
          "name": "tokenId",
          "type": "uint256"
        }
      ],
      "name": "Approval",
      "type": "event"
    },
    {
      "anonymous": false,
      "inputs": [
        {
          "indexed": true,
          "internalType": "address",
          "name": "owner",
          "type": "address"
        },
        {
          "indexed": true,
          "internalType": "address",
          "name": "operator",
          "type": "address"
        },
        {
          "indexed": false,
          "internalType": "bool",
          "name": "approved",
          "type": "bool"
        }
      ],
      "name": "ApprovalForAll",
      "type": "event"
    },
    {
      "anonymous": false,
      "inputs": [
        {
          "indexed": true,
          "internalType": "address",
          "name": "previousOwner",
          "type": "address"
        },
        {
          "indexed": true,
          "internalType": "address",
          "name": "newOwner",
          "type": "address"
        }
      ],
      "name": "OwnershipTransferred",
      "type": "event"
    },
    {
      "anonymous": false,
      "inputs": [
        {
          "indexed": true,
          "internalType": "bytes32",
          "name": "role",
          "type": "bytes32"
        },
        {
          "indexed": true,
          "internalType": "bytes32",
          "name": "previousAdminRole",
          "type": "bytes32"
        },
        {
          "indexed": true,
          "internalType": "bytes32",
          "name": "newAdminRole",
          "type": "bytes32"
        }
      ],
      "name": "RoleAdminChanged",
      "type": "event"
    },
    {
      "anonymous": false,
      "inputs": [
        {
          "indexed": true,
          "internalType": "bytes32",
          "name": "role",
          "type": "bytes32"
        },
        {
          "indexed": true,
          "internalType": "address",
          "name": "account",
          "type": "address"
        },
        {
          "indexed": true,
          "internalType": "address",
          "name": "sender",
          "type": "address"
        }
      ],
      "name": "RoleGranted",
      "type": "event"
    },
    {
      "anonymous": false,
      "inputs": [
        {
          "indexed": true,
          "internalType": "bytes32",
          "name": "role",
          "type": "bytes32"
        },
        {
          "indexed": true,
          "internalType": "address",
          "name": "account",
          "type": "address"
        },
        {
          "indexed": true,
          "internalType": "address",
          "name": "sender",
          "type": "address"
        }
      ],
      "name": "RoleRevoked",
      "type": "event"
    },
    {
      "anonymous": false,
      "inputs": [
        {
          "indexed": true,
          "internalType": "address",
          "name": "from",
          "type": "address"
        },
        {
          "indexed": true,
          "internalType": "address",
          "name": "to",
          "type": "address"
        },
        {
          "indexed": true,
          "internalType": "uint256",
          "name": "tokenId",
          "type": "uint256"
        }
      ],
      "name": "Transfer",
      "type": "event"
    },
    {
      "inputs": [],
      "name": "DEFAULT_ADMIN_ROLE",
      "outputs": [
        {
          "internalType": "bytes32",
          "name": "",
          "type": "bytes32"
        }
      ],
      "stateMutability": "view",
      "type": "function"
    },
    {
      "inputs": [],
      "name": "MAX_PER_PUBLIC_ADDRESS",
      "outputs": [
        {
          "internalType": "uint256",
          "name": "",
          "type": "uint256"
        }
      ],
      "stateMutability": "view",
      "type": "function"
    },
    {
      "inputs": [],
      "name": "MAX_PUBLIC",
      "outputs": [
        {
          "internalType": "uint256",
          "name": "",
          "type": "uint256"
        }
      ],
      "stateMutability": "view",
      "type": "function"
    },
    {
      "inputs": [],
      "name": "MAX_RESERVED",
      "outputs": [
        {
          "internalType": "uint256",
          "name": "",
          "type": "uint256"
        }
      ],
      "stateMutability": "view",
      "type": "function"
    },
    {
      "inputs": [
        {
          "internalType": "address",
          "name": "to",
          "type": "address"
        },
        {
          "internalType": "uint256",
          "name": "tokenId",
          "type": "uint256"
        }
      ],
      "name": "approve",
      "outputs": [],
      "stateMutability": "nonpayable",
      "type": "function"
    },
    {
      "inputs": [
        {
          "internalType": "address",
          "name": "owner",
          "type": "address"
        }
      ],
      "name": "balanceOf",
      "outputs": [
        {
          "internalType": "uint256",
          "name": "",
          "type": "uint256"
        }
      ],
      "stateMutability": "view",
      "type": "function"
    },
    {
      "inputs": [],
      "name": "baseTokenURI",
      "outputs": [
        {
          "internalType": "string",
          "name": "",
          "type": "string"
        }
      ],
      "stateMutability": "view",
      "type": "function"
    },
    {
      "inputs": [
        {
          "internalType": "uint256",
          "name": "tokenId",
          "type": "uint256"
        }
      ],
      "name": "burn",
      "outputs": [],
      "stateMutability": "nonpayable",
      "type": "function"
    },
    {
      "inputs": [
        {
          "internalType": "uint256",
          "name": "tokenId",
          "type": "uint256"
        }
      ],
      "name": "getApproved",
      "outputs": [
        {
          "internalType": "address",
          "name": "",
          "type": "address"
        }
      ],
      "stateMutability": "view",
      "type": "function"
    },
    {
      "inputs": [
        {
          "internalType": "bytes32",
          "name": "role",
          "type": "bytes32"
        }
      ],
      "name": "getRoleAdmin",
      "outputs": [
        {
          "internalType": "bytes32",
          "name": "",
          "type": "bytes32"
        }
      ],
      "stateMutability": "view",
      "type": "function"
    },
    {
      "inputs": [
        {
          "internalType": "bytes32",
          "name": "role",
          "type": "bytes32"
        },
        {
          "internalType": "address",
          "name": "account",
          "type": "address"
        }
      ],
      "name": "grantRole",
      "outputs": [],
      "stateMutability": "nonpayable",
      "type": "function"
    },
    {
      "inputs": [
        {
          "internalType": "bytes32",
          "name": "role",
          "type": "bytes32"
        },
        {
          "internalType": "address",
          "name": "account",
          "type": "address"
        }
      ],
      "name": "hasRole",
      "outputs": [
        {
          "internalType": "bool",
          "name": "",
          "type": "bool"
        }
      ],
      "stateMutability": "view",
      "type": "function"
    },
    {
      "inputs": [
        {
          "internalType": "address",
          "name": "owner",
          "type": "address"
        },
        {
          "internalType": "address",
          "name": "operator",
          "type": "address"
        }
      ],
      "name": "isApprovedForAll",
      "outputs": [
        {
          "internalType": "bool",
          "name": "",
          "type": "bool"
        }
      ],
      "stateMutability": "view",
      "type": "function"
    },
    {
      "inputs": [],
      "name": "mintPublic",
      "outputs": [],
      "stateMutability": "nonpayable",
      "type": "function"
    },
    {
      "inputs": [
        {
          "internalType": "uint256",
          "name": "numReservedTokens",
          "type": "uint256"
        }
      ],
      "name": "mintReserved",
      "outputs": [],
      "stateMutability": "nonpayable",
      "type": "function"
    },
    {
      "inputs": [],
      "name": "name",
      "outputs": [
        {
          "internalType": "string",
          "name": "",
          "type": "string"
        }
      ],
      "stateMutability": "view",
      "type": "function"
    },
    {
      "inputs": [],
      "name": "owner",
      "outputs": [
        {
          "internalType": "address",
          "name": "",
          "type": "address"
        }
      ],
      "stateMutability": "view",
      "type": "function"
    },
    {
      "inputs": [
        {
          "internalType": "uint256",
          "name": "tokenId",
          "type": "uint256"
        }
      ],
      "name": "ownerOf",
      "outputs": [
        {
          "internalType": "address",
          "name": "",
          "type": "address"
        }
      ],
      "stateMutability": "view",
      "type": "function"
    },
    {
      "inputs": [],
      "name": "renounceOwnership",
      "outputs": [],
      "stateMutability": "nonpayable",
      "type": "function"
    },
    {
      "inputs": [
        {
          "internalType": "bytes32",
          "name": "role",
          "type": "bytes32"
        },
        {
          "internalType": "address",
          "name": "account",
          "type": "address"
        }
      ],
      "name": "renounceRole",
      "outputs": [],
      "stateMutability": "nonpayable",
      "type": "function"
    },
    {
      "inputs": [
        {
          "internalType": "bytes32",
          "name": "role",
          "type": "bytes32"
        },
        {
          "internalType": "address",
          "name": "account",
          "type": "address"
        }
      ],
      "name": "revokeRole",
      "outputs": [],
      "stateMutability": "nonpayable",
      "type": "function"
    },
    {
      "inputs": [
        {
          "internalType": "address",
          "name": "from",
          "type": "address"
        },
        {
          "internalType": "address",
          "name": "to",
          "type": "address"
        },
        {
          "internalType": "uint256",
          "name": "tokenId",
          "type": "uint256"
        }
      ],
      "name": "safeTransferFrom",
      "outputs": [],
      "stateMutability": "nonpayable",
      "type": "function"
    },
    {
      "inputs": [
        {
          "internalType": "address",
          "name": "from",
          "type": "address"
        },
        {
          "internalType": "address",
          "name": "to",
          "type": "address"
        },
        {
          "internalType": "uint256",
          "name": "tokenId",
          "type": "uint256"
        },
        {
          "internalType": "bytes",
          "name": "_data",
          "type": "bytes"
        }
      ],
      "name": "safeTransferFrom",
      "outputs": [],
      "stateMutability": "nonpayable",
      "type": "function"
    },
    {
      "inputs": [
        {
          "internalType": "address",
          "name": "operator",
          "type": "address"
        },
        {
          "internalType": "bool",
          "name": "approved",
          "type": "bool"
        }
      ],
      "name": "setApprovalForAll",
      "outputs": [],
      "stateMutability": "nonpayable",
      "type": "function"
    },
    {
      "inputs": [
        {
          "internalType": "string",
          "name": "_baseTokenURI",
          "type": "string"
        }
      ],
      "name": "setBaseTokenURI",
      "outputs": [],
      "stateMutability": "nonpayable",
      "type": "function"
    },
    {
      "inputs": [
        {
          "internalType": "uint256",
          "name": "_temporaryMaxPublic",
          "type": "uint256"
        }
      ],
      "name": "setTemporaryMaxPublic",
      "outputs": [],
      "stateMutability": "nonpayable",
      "type": "function"
    },
    {
      "inputs": [
        {
          "internalType": "bytes4",
          "name": "interfaceId",
          "type": "bytes4"
        }
      ],
      "name": "supportsInterface",
      "outputs": [
        {
          "internalType": "bool",
          "name": "",
          "type": "bool"
        }
      ],
      "stateMutability": "view",
      "type": "function"
    },
    {
      "inputs": [],
      "name": "symbol",
      "outputs": [
        {
          "internalType": "string",
          "name": "",
          "type": "string"
        }
      ],
      "stateMutability": "view",
      "type": "function"
    },
    {
      "inputs": [],
      "name": "temporaryMaxPublic",
      "outputs": [
        {
          "internalType": "uint256",
          "name": "",
          "type": "uint256"
        }
      ],
      "stateMutability": "view",
      "type": "function"
    },
    {
      "inputs": [
        {
          "internalType": "uint256",
          "name": "tokenId",
          "type": "uint256"
        }
      ],
      "name": "tokenURI",
      "outputs": [
        {
          "internalType": "string",
          "name": "",
          "type": "string"
        }
      ],
      "stateMutability": "view",
      "type": "function"
    },
    {
      "inputs": [],
      "name": "totalSupply",
      "outputs": [
        {
          "internalType": "uint256",
          "name": "",
          "type": "uint256"
        }
      ],
      "stateMutability": "view",
      "type": "function"
    },
    {
      "inputs": [
        {
          "internalType": "address",
          "name": "from",
          "type": "address"
        },
        {
          "internalType": "address",
          "name": "to",
          "type": "address"
        },
        {
          "internalType": "uint256",
          "name": "tokenId",
          "type": "uint256"
        }
      ],
      "name": "transferFrom",
      "outputs": [],
      "stateMutability": "nonpayable",
      "type": "function"
    },
    {
      "inputs": [
        {
          "internalType": "address",
          "name": "newOwner",
          "type": "address"
        }
      ],
      "name": "transferOwnership",
      "outputs": [],
      "stateMutability": "nonpayable",
      "type": "function"
    }
  ],
  "bytecode": "0x60806040523480156200001157600080fd5b5060405162004c3b38038062004c3b83398181016040528101906200003791906200066d565b6040518060400160405280600b81526020017f43757262596f75724e46540000000000000000000000000000000000000000008152506040518060400160405280600481526020017f43555242000000000000000000000000000000000000000000000000000000008152508160009080519060200190620000bb929190620004ed565b508060019080519060200190620000d4929190620004ed565b505050620000f7620000eb620002c260201b60201c565b620002ca60201b60201c565b60288211156200013e576040517f08c379a000000000000000000000000000000000000000000000000000000000815260040162000135906200081d565b60405180910390fd5b600081511162000185576040517f08c379a00000000000000000000000000000000000000000000000000000000081526004016200017c90620007d9565b60405180910390fd5b81600b8190555060005b8151811015620002b957600073ffffffffffffffffffffffffffffffffffffffff16828281518110620001eb577f4e487b7100000000000000000000000000000000000000000000000000000000600052603260045260246000fd5b602002602001015173ffffffffffffffffffffffffffffffffffffffff1614156200024d576040517f08c379a00000000000000000000000000000000000000000000000000000000081526004016200024490620007fb565b60405180910390fd5b620002a36000801b8383815181106200028f577f4e487b7100000000000000000000000000000000000000000000000000000000600052603260045260246000fd5b60200260200101516200039060201b60201c565b8080620002b09062000927565b9150506200018f565b50505062000a36565b600033905090565b6000600760009054906101000a900473ffffffffffffffffffffffffffffffffffffffff16905081600760006101000a81548173ffffffffffffffffffffffffffffffffffffffff021916908373ffffffffffffffffffffffffffffffffffffffff1602179055508173ffffffffffffffffffffffffffffffffffffffff168173ffffffffffffffffffffffffffffffffffffffff167f8be0079c531659141344cd1fd0a4f28419497f9722a3daafe3b4186f6b6457e060405160405180910390a35050565b620003a282826200048260201b60201c565b6200047e5760016006600084815260200190815260200160002060000160008373ffffffffffffffffffffffffffffffffffffffff1673ffffffffffffffffffffffffffffffffffffffff16815260200190815260200160002060006101000a81548160ff02191690831515021790555062000423620002c260201b60201c565b73ffffffffffffffffffffffffffffffffffffffff168173ffffffffffffffffffffffffffffffffffffffff16837f2f8788117e7eff1d82e926ec794901d17c78024a50270940304540a733656f0d60405160405180910390a45b5050565b60006006600084815260200190815260200160002060000160008373ffffffffffffffffffffffffffffffffffffffff1673ffffffffffffffffffffffffffffffffffffffff16815260200190815260200160002060009054906101000a900460ff16905092915050565b828054620004fb90620008f1565b90600052602060002090601f0160209004810192826200051f57600085556200056b565b82601f106200053a57805160ff19168380011785556200056b565b828001600101855582156200056b579182015b828111156200056a5782518255916020019190600101906200054d565b5b5090506200057a91906200057e565b5090565b5b80821115620005995760008160009055506001016200057f565b5090565b6000620005b4620005ae8462000873565b6200083f565b90508083825260208201905082856020860282011115620005d457600080fd5b60005b85811015620006085781620005ed888262000612565b845260208401935060208301925050600181019050620005d7565b5050509392505050565b600081519050620006238162000a02565b92915050565b600082601f8301126200063b57600080fd5b81516200064d8482602086016200059d565b91505092915050565b600081519050620006678162000a1c565b92915050565b600080604083850312156200068157600080fd5b6000620006918582860162000656565b925050602083015167ffffffffffffffff811115620006af57600080fd5b620006bd8582860162000629565b9150509250929050565b6000620006d6602583620008a2565b91507f5f61646d696e416464726573736573206c656e6774682063616e6e6f7420626560008301527f207a65726f0000000000000000000000000000000000000000000000000000006020830152604082019050919050565b60006200073e601c83620008a2565b91507f61646d696e2063616e6e6f74206265207a65726f2061646472657373000000006000830152602082019050919050565b600062000780603b83620008a2565b91507f5f74656d706f726172794d61785075626c69632063616e6e6f7420626520677260008301527f6561746572207468616e206d6178207075626c69632076616c756500000000006020830152604082019050919050565b60006020820190508181036000830152620007f481620006c7565b9050919050565b6000602082019050818103600083015262000816816200072f565b9050919050565b60006020820190508181036000830152620008388162000771565b9050919050565b6000604051905081810181811067ffffffffffffffff82111715620008695762000868620009d3565b5b8060405250919050565b600067ffffffffffffffff821115620008915762000890620009d3565b5b602082029050602081019050919050565b600082825260208201905092915050565b6000620008c082620008c7565b9050919050565b600073ffffffffffffffffffffffffffffffffffffffff82169050919050565b6000819050919050565b600060028204905060018216806200090a57607f821691505b60208210811415620009215762000920620009a4565b5b50919050565b60006200093482620008e7565b91507fffffffffffffffffffffffffffffffffffffffffffffffffffffffffffffffff8214156200096a576200096962000975565b5b600182019050919050565b7f4e487b7100000000000000000000000000000000000000000000000000000000600052601160045260246000fd5b7f4e487b7100000000000000000000000000000000000000000000000000000000600052602260045260246000fd5b7f4e487b7100000000000000000000000000000000000000000000000000000000600052604160045260246000fd5b62000a0d81620008b3565b811462000a1957600080fd5b50565b62000a2781620008e7565b811462000a3357600080fd5b50565b6141f58062000a466000396000f3fe608060405234801561001057600080fd5b50600436106101fb5760003560e01c80638a0b46fe1161011a578063a22cb465116100ad578063c87b56dd1161007c578063c87b56dd14610576578063d547741f146105a6578063d547cfb7146105c2578063e985e9c5146105e0578063f2fde38b14610610576101fb565b8063a22cb46514610504578063a41547e314610520578063a60157e61461053e578063b88d4fde1461055a576101fb565b806395d89b41116100e957806395d89b411461048e5780639753eac0146104ac5780639a5d140b146104ca578063a217fddf146104e6576101fb565b80638a0b46fe146104185780638c874ebd146104365780638da5cb5b1461044057806391d148541461045e576101fb565b806330176e13116101925780636352211e116101615780636352211e146103905780636ba90c6e146103c057806370a08231146103de578063715018a61461040e576101fb565b806330176e131461032057806336568abe1461033c57806342842e0e1461035857806342966c6814610374576101fb565b806318160ddd116101ce57806318160ddd1461029a57806323b872dd146102b8578063248a9ca3146102d45780632f2ff15d14610304576101fb565b806301ffc9a71461020057806306fdde0314610230578063081812fc1461024e578063095ea7b31461027e575b600080fd5b61021a60048036038101906102159190612d7b565b61062c565b604051610227919061396d565b60405180910390f35b61023861063e565b60405161024591906139a3565b60405180910390f35b61026860048036038101906102639190612e0e565b6106d0565b6040516102759190613906565b60405180910390f35b61029860048036038101906102939190612cda565b610755565b005b6102a261086d565b6040516102af9190613ce5565b60405180910390f35b6102d260048036038101906102cd9190612bd4565b610892565b005b6102ee60048036038101906102e99190612d16565b6108f2565b6040516102fb9190613988565b60405180910390f35b61031e60048036038101906103199190612d3f565b610912565b005b61033a60048036038101906103359190612dcd565b61093b565b005b61035660048036038101906103519190612d3f565b61096b565b005b610372600480360381019061036d9190612bd4565b6109ee565b005b61038e60048036038101906103899190612e0e565b610a0e565b005b6103aa60048036038101906103a59190612e0e565b610a6a565b6040516103b79190613906565b60405180910390f35b6103c8610b1c565b6040516103d59190613ce5565b60405180910390f35b6103f860048036038101906103f39190612b6f565b610b21565b6040516104059190613ce5565b60405180910390f35b610416610bd9565b005b610420610c61565b60405161042d9190613ce5565b60405180910390f35b61043e610c66565b005b610448610df7565b6040516104559190613906565b60405180910390f35b61047860048036038101906104739190612d3f565b610e21565b604051610485919061396d565b60405180910390f35b610496610e8c565b6040516104a391906139a3565b60405180910390f35b6104b4610f1e565b6040516104c19190613ce5565b60405180910390f35b6104e460048036038101906104df9190612e0e565b610f23565b005b6104ee61101f565b6040516104fb9190613988565b60405180910390f35b61051e60048036038101906105199190612c9e565b611026565b005b61052861103c565b6040516105359190613ce5565b60405180910390f35b61055860048036038101906105539190612e0e565b611042565b005b610574600480360381019061056f9190612c23565b6110a6565b005b610590600480360381019061058b9190612e0e565b611108565b60405161059d91906139a3565b60405180910390f35b6105c060048036038101906105bb9190612d3f565b6111af565b005b6105ca6111d8565b6040516105d791906139a3565b60405180910390f35b6105fa60048036038101906105f59190612b98565b611266565b604051610607919061396d565b60405180910390f35b61062a60048036038101906106259190612b6f565b6112fa565b005b6000610637826113f2565b9050919050565b60606000805461064d90613fd3565b80601f016020809104026020016040519081016040528092919081815260200182805461067990613fd3565b80156106c65780601f1061069b576101008083540402835291602001916106c6565b820191906000526020600020905b8154815290600101906020018083116106a957829003601f168201915b5050505050905090565b60006106db8261146c565b61071a576040517f08c379a000000000000000000000000000000000000000000000000000000000815260040161071190613b85565b60405180910390fd5b6004600083815260200190815260200160002060009054906101000a900473ffffffffffffffffffffffffffffffffffffffff169050919050565b600061076082610a6a565b90508073ffffffffffffffffffffffffffffffffffffffff168373ffffffffffffffffffffffffffffffffffffffff1614156107d1576040517f08c379a00000000000000000000000000000000000000000000000000000000081526004016107c890613c05565b60405180910390fd5b8073ffffffffffffffffffffffffffffffffffffffff166107f06114d8565b73ffffffffffffffffffffffffffffffffffffffff16148061081f575061081e816108196114d8565b611266565b5b61085e576040517f08c379a000000000000000000000000000000000000000000000000000000000815260040161085590613b05565b60405180910390fd5b61086883836114e0565b505050565b60006108796008611599565b6108836009611599565b61088d9190613dd4565b905090565b6108a361089d6114d8565b826115a7565b6108e2576040517f08c379a00000000000000000000000000000000000000000000000000000000081526004016108d990613c45565b60405180910390fd5b6108ed838383611685565b505050565b600060066000838152602001908152602001600020600101549050919050565b61091b826108f2565b61092c816109276114d8565b6118e1565b610936838361197e565b505050565b6000801b6109508161094b6114d8565b6118e1565b81600c908051906020019061096692919061297e565b505050565b6109736114d8565b73ffffffffffffffffffffffffffffffffffffffff168173ffffffffffffffffffffffffffffffffffffffff16146109e0576040517f08c379a00000000000000000000000000000000000000000000000000000000081526004016109d790613cc5565b60405180910390fd5b6109ea8282611a5f565b5050565b610a09838383604051806020016040528060008152506110a6565b505050565b610a1f610a196114d8565b826115a7565b610a5e576040517f08c379a0000000000000000000000000000000000000000000000000000000008152600401610a5590613ca5565b60405180910390fd5b610a6781611b41565b50565b6000806002600084815260200190815260200160002060009054906101000a900473ffffffffffffffffffffffffffffffffffffffff169050600073ffffffffffffffffffffffffffffffffffffffff168173ffffffffffffffffffffffffffffffffffffffff161415610b13576040517f08c379a0000000000000000000000000000000000000000000000000000000008152600401610b0a90613b45565b60405180910390fd5b80915050919050565b600a81565b60008073ffffffffffffffffffffffffffffffffffffffff168273ffffffffffffffffffffffffffffffffffffffff161415610b92576040517f08c379a0000000000000000000000000000000000000000000000000000000008152600401610b8990613b25565b60405180910390fd5b600360008373ffffffffffffffffffffffffffffffffffffffff1673ffffffffffffffffffffffffffffffffffffffff168152602001908152602001600020549050919050565b610be16114d8565b73ffffffffffffffffffffffffffffffffffffffff16610bff610df7565b73ffffffffffffffffffffffffffffffffffffffff1614610c55576040517f08c379a0000000000000000000000000000000000000000000000000000000008152600401610c4c90613ba5565b60405180910390fd5b610c5f6000611b4d565b565b600281565b6002600a60003373ffffffffffffffffffffffffffffffffffffffff1673ffffffffffffffffffffffffffffffffffffffff1681526020019081526020016000205410610ce8576040517f08c379a0000000000000000000000000000000000000000000000000000000008152600401610cdf90613c65565b60405180910390fd5b6028610cf46008611599565b10610d34576040517f08c379a0000000000000000000000000000000000000000000000000000000008152600401610d2b90613a45565b60405180910390fd5b600b54610d416008611599565b10610d81576040517f08c379a0000000000000000000000000000000000000000000000000000000008152600401610d7890613c25565b60405180910390fd5b6001600a60003373ffffffffffffffffffffffffffffffffffffffff1673ffffffffffffffffffffffffffffffffffffffff1681526020019081526020016000206000828254610dd19190613dd4565b92505081905550610de26008611c13565b610df533610df06008611599565b611c29565b565b6000600760009054906101000a900473ffffffffffffffffffffffffffffffffffffffff16905090565b60006006600084815260200190815260200160002060000160008373ffffffffffffffffffffffffffffffffffffffff1673ffffffffffffffffffffffffffffffffffffffff16815260200190815260200160002060009054906101000a900460ff16905092915050565b606060018054610e9b90613fd3565b80601f0160208091040260200160405190810160405280929190818152602001828054610ec790613fd3565b8015610f145780601f10610ee957610100808354040283529160200191610f14565b820191906000526020600020905b815481529060010190602001808311610ef757829003601f168201915b5050505050905090565b602881565b6000801b610f3881610f336114d8565b6118e1565b60008211610f7b576040517f08c379a0000000000000000000000000000000000000000000000000000000008152600401610f7290613a65565b60405180910390fd5b600a82610f886009611599565b610f929190613dd4565b1115610fd3576040517f08c379a0000000000000000000000000000000000000000000000000000000008152600401610fca90613c85565b60405180910390fd5b60005b8281101561101a57610fe86009611c13565b611007336028610ff86009611599565b6110029190613dd4565b611c29565b808061101290614005565b915050610fd6565b505050565b6000801b81565b6110386110316114d8565b8383611c47565b5050565b600b5481565b6000801b611057816110526114d8565b6118e1565b602882111561109b576040517f08c379a000000000000000000000000000000000000000000000000000000000815260040161109290613aa5565b60405180910390fd5b81600b819055505050565b6110b76110b16114d8565b836115a7565b6110f6576040517f08c379a00000000000000000000000000000000000000000000000000000000081526004016110ed90613c45565b60405180910390fd5b61110284848484611db4565b50505050565b60606111138261146c565b611152576040517f08c379a000000000000000000000000000000000000000000000000000000000815260040161114990613be5565b60405180910390fd5b600061115c611e10565b9050600081511161117c57604051806020016040528060008152506111a7565b8061118684611ea2565b6040516020016111979291906138a8565b6040516020818303038152906040525b915050919050565b6111b8826108f2565b6111c9816111c46114d8565b6118e1565b6111d38383611a5f565b505050565b600c80546111e590613fd3565b80601f016020809104026020016040519081016040528092919081815260200182805461121190613fd3565b801561125e5780601f106112335761010080835404028352916020019161125e565b820191906000526020600020905b81548152906001019060200180831161124157829003601f168201915b505050505081565b6000600560008473ffffffffffffffffffffffffffffffffffffffff1673ffffffffffffffffffffffffffffffffffffffff16815260200190815260200160002060008373ffffffffffffffffffffffffffffffffffffffff1673ffffffffffffffffffffffffffffffffffffffff16815260200190815260200160002060009054906101000a900460ff16905092915050565b6113026114d8565b73ffffffffffffffffffffffffffffffffffffffff16611320610df7565b73ffffffffffffffffffffffffffffffffffffffff1614611376576040517f08c379a000000000000000000000000000000000000000000000000000000000815260040161136d90613ba5565b60405180910390fd5b600073ffffffffffffffffffffffffffffffffffffffff168173ffffffffffffffffffffffffffffffffffffffff1614156113e6576040517f08c379a00000000000000000000000000000000000000000000000000000000081526004016113dd90613a05565b60405180910390fd5b6113ef81611b4d565b50565b60007f7965db0b000000000000000000000000000000000000000000000000000000007bffffffffffffffffffffffffffffffffffffffffffffffffffffffff1916827bffffffffffffffffffffffffffffffffffffffffffffffffffffffff1916148061146557506114648261204f565b5b9050919050565b60008073ffffffffffffffffffffffffffffffffffffffff166002600084815260200190815260200160002060009054906101000a900473ffffffffffffffffffffffffffffffffffffffff1673ffffffffffffffffffffffffffffffffffffffff1614159050919050565b600033905090565b816004600083815260200190815260200160002060006101000a81548173ffffffffffffffffffffffffffffffffffffffff021916908373ffffffffffffffffffffffffffffffffffffffff160217905550808273ffffffffffffffffffffffffffffffffffffffff1661155383610a6a565b73ffffffffffffffffffffffffffffffffffffffff167f8c5be1e5ebec7d5bd14f71427d1e84f3dd0314c0f7b2291e5b200ac8c7c3b92560405160405180910390a45050565b600081600001549050919050565b60006115b28261146c565b6115f1576040517f08c379a00000000000000000000000000000000000000000000000000000000081526004016115e890613ae5565b60405180910390fd5b60006115fc83610a6a565b90508073ffffffffffffffffffffffffffffffffffffffff168473ffffffffffffffffffffffffffffffffffffffff16148061166b57508373ffffffffffffffffffffffffffffffffffffffff16611653846106d0565b73ffffffffffffffffffffffffffffffffffffffff16145b8061167c575061167b8185611266565b5b91505092915050565b8273ffffffffffffffffffffffffffffffffffffffff166116a582610a6a565b73ffffffffffffffffffffffffffffffffffffffff16146116fb576040517f08c379a00000000000000000000000000000000000000000000000000000000081526004016116f290613bc5565b60405180910390fd5b600073ffffffffffffffffffffffffffffffffffffffff168273ffffffffffffffffffffffffffffffffffffffff16141561176b576040517f08c379a000000000000000000000000000000000000000000000000000000000815260040161176290613a85565b60405180910390fd5b611776838383612131565b6117816000826114e0565b6001600360008573ffffffffffffffffffffffffffffffffffffffff1673ffffffffffffffffffffffffffffffffffffffff16815260200190815260200160002060008282546117d19190613eb5565b925050819055506001600360008473ffffffffffffffffffffffffffffffffffffffff1673ffffffffffffffffffffffffffffffffffffffff16815260200190815260200160002060008282546118289190613dd4565b92505081905550816002600083815260200190815260200160002060006101000a81548173ffffffffffffffffffffffffffffffffffffffff021916908373ffffffffffffffffffffffffffffffffffffffff160217905550808273ffffffffffffffffffffffffffffffffffffffff168473ffffffffffffffffffffffffffffffffffffffff167fddf252ad1be2c89b69c2b068fc378daa952ba7f163c4a11628f55a4df523b3ef60405160405180910390a4505050565b6118eb8282610e21565b61197a576119108173ffffffffffffffffffffffffffffffffffffffff166014612136565b61191e8360001c6020612136565b60405160200161192f9291906138cc565b6040516020818303038152906040526040517f08c379a000000000000000000000000000000000000000000000000000000000815260040161197191906139a3565b60405180910390fd5b5050565b6119888282610e21565b611a5b5760016006600084815260200190815260200160002060000160008373ffffffffffffffffffffffffffffffffffffffff1673ffffffffffffffffffffffffffffffffffffffff16815260200190815260200160002060006101000a81548160ff021916908315150217905550611a006114d8565b73ffffffffffffffffffffffffffffffffffffffff168173ffffffffffffffffffffffffffffffffffffffff16837f2f8788117e7eff1d82e926ec794901d17c78024a50270940304540a733656f0d60405160405180910390a45b5050565b611a698282610e21565b15611b3d5760006006600084815260200190815260200160002060000160008373ffffffffffffffffffffffffffffffffffffffff1673ffffffffffffffffffffffffffffffffffffffff16815260200190815260200160002060006101000a81548160ff021916908315150217905550611ae26114d8565b73ffffffffffffffffffffffffffffffffffffffff168173ffffffffffffffffffffffffffffffffffffffff16837ff6391f5c32d9c69d2a47ea670b442974b53935d1edc7fd64eb21e047a839171b60405160405180910390a45b5050565b611b4a81612430565b50565b6000600760009054906101000a900473ffffffffffffffffffffffffffffffffffffffff16905081600760006101000a81548173ffffffffffffffffffffffffffffffffffffffff021916908373ffffffffffffffffffffffffffffffffffffffff1602179055508173ffffffffffffffffffffffffffffffffffffffff168173ffffffffffffffffffffffffffffffffffffffff167f8be0079c531659141344cd1fd0a4f28419497f9722a3daafe3b4186f6b6457e060405160405180910390a35050565b6001816000016000828254019250508190555050565b611c43828260405180602001604052806000815250612541565b5050565b8173ffffffffffffffffffffffffffffffffffffffff168373ffffffffffffffffffffffffffffffffffffffff161415611cb6576040517f08c379a0000000000000000000000000000000000000000000000000000000008152600401611cad90613ac5565b60405180910390fd5b80600560008573ffffffffffffffffffffffffffffffffffffffff1673ffffffffffffffffffffffffffffffffffffffff16815260200190815260200160002060008473ffffffffffffffffffffffffffffffffffffffff1673ffffffffffffffffffffffffffffffffffffffff16815260200190815260200160002060006101000a81548160ff0219169083151502179055508173ffffffffffffffffffffffffffffffffffffffff168373ffffffffffffffffffffffffffffffffffffffff167f17307eab39ab6107e8899845ad3d59bd9653f200f220920489ca2b5937696c3183604051611da7919061396d565b60405180910390a3505050565b611dbf848484611685565b611dcb8484848461259c565b611e0a576040517f08c379a0000000000000000000000000000000000000000000000000000000008152600401611e01906139e5565b60405180910390fd5b50505050565b6060600c8054611e1f90613fd3565b80601f0160208091040260200160405190810160405280929190818152602001828054611e4b90613fd3565b8015611e985780601f10611e6d57610100808354040283529160200191611e98565b820191906000526020600020905b815481529060010190602001808311611e7b57829003601f168201915b5050505050905090565b60606000821415611eea576040518060400160405280600181526020017f3000000000000000000000000000000000000000000000000000000000000000815250905061204a565b600082905060005b60008214611f1c578080611f0590614005565b915050600a82611f159190613e2a565b9150611ef2565b60008167ffffffffffffffff811115611f5e577f4e487b7100000000000000000000000000000000000000000000000000000000600052604160045260246000fd5b6040519080825280601f01601f191660200182016040528015611f905781602001600182028036833780820191505090505b5090505b6000851461204357600182611fa99190613eb5565b9150600a85611fb8919061404e565b6030611fc49190613dd4565b60f81b818381518110612000577f4e487b7100000000000000000000000000000000000000000000000000000000600052603260045260246000fd5b60200101907effffffffffffffffffffffffffffffffffffffffffffffffffffffffffffff1916908160001a905350600a8561203c9190613e2a565b9450611f94565b8093505050505b919050565b60007f80ac58cd000000000000000000000000000000000000000000000000000000007bffffffffffffffffffffffffffffffffffffffffffffffffffffffff1916827bffffffffffffffffffffffffffffffffffffffffffffffffffffffff1916148061211a57507f5b5e139f000000000000000000000000000000000000000000000000000000007bffffffffffffffffffffffffffffffffffffffffffffffffffffffff1916827bffffffffffffffffffffffffffffffffffffffffffffffffffffffff1916145b8061212a575061212982612733565b5b9050919050565b505050565b6060600060028360026121499190613e5b565b6121539190613dd4565b67ffffffffffffffff811115612192577f4e487b7100000000000000000000000000000000000000000000000000000000600052604160045260246000fd5b6040519080825280601f01601f1916602001820160405280156121c45781602001600182028036833780820191505090505b5090507f300000000000000000000000000000000000000000000000000000000000000081600081518110612222577f4e487b7100000000000000000000000000000000000000000000000000000000600052603260045260246000fd5b60200101907effffffffffffffffffffffffffffffffffffffffffffffffffffffffffffff1916908160001a9053507f7800000000000000000000000000000000000000000000000000000000000000816001815181106122ac577f4e487b7100000000000000000000000000000000000000000000000000000000600052603260045260246000fd5b60200101907effffffffffffffffffffffffffffffffffffffffffffffffffffffffffffff1916908160001a905350600060018460026122ec9190613e5b565b6122f69190613dd4565b90505b60018111156123e2577f3031323334353637383961626364656600000000000000000000000000000000600f86166010811061235e577f4e487b7100000000000000000000000000000000000000000000000000000000600052603260045260246000fd5b1a60f81b82828151811061239b577f4e487b7100000000000000000000000000000000000000000000000000000000600052603260045260246000fd5b60200101907effffffffffffffffffffffffffffffffffffffffffffffffffffffffffffff1916908160001a905350600485901c9450806123db90613fa9565b90506122f9565b5060008414612426576040517f08c379a000000000000000000000000000000000000000000000000000000000815260040161241d906139c5565b60405180910390fd5b8091505092915050565b600061243b82610a6a565b905061244981600084612131565b6124546000836114e0565b6001600360008373ffffffffffffffffffffffffffffffffffffffff1673ffffffffffffffffffffffffffffffffffffffff16815260200190815260200160002060008282546124a49190613eb5565b925050819055506002600083815260200190815260200160002060006101000a81549073ffffffffffffffffffffffffffffffffffffffff021916905581600073ffffffffffffffffffffffffffffffffffffffff168273ffffffffffffffffffffffffffffffffffffffff167fddf252ad1be2c89b69c2b068fc378daa952ba7f163c4a11628f55a4df523b3ef60405160405180910390a45050565b61254b838361279d565b612558600084848461259c565b612597576040517f08c379a000000000000000000000000000000000000000000000000000000000815260040161258e906139e5565b60405180910390fd5b505050565b60006125bd8473ffffffffffffffffffffffffffffffffffffffff1661296b565b15612726578373ffffffffffffffffffffffffffffffffffffffff1663150b7a026125e66114d8565b8786866040518563ffffffff1660e01b81526004016126089493929190613921565b602060405180830381600087803b15801561262257600080fd5b505af192505050801561265357506040513d601f19601f820116820180604052508101906126509190612da4565b60015b6126d6573d8060008114612683576040519150601f19603f3d011682016040523d82523d6000602084013e612688565b606091505b506000815114156126ce576040517f08c379a00000000000000000000000000000000000000000000000000000000081526004016126c5906139e5565b60405180910390fd5b805181602001fd5b63150b7a0260e01b7bffffffffffffffffffffffffffffffffffffffffffffffffffffffff1916817bffffffffffffffffffffffffffffffffffffffffffffffffffffffff19161491505061272b565b600190505b949350505050565b60007f01ffc9a7000000000000000000000000000000000000000000000000000000007bffffffffffffffffffffffffffffffffffffffffffffffffffffffff1916827bffffffffffffffffffffffffffffffffffffffffffffffffffffffff1916149050919050565b600073ffffffffffffffffffffffffffffffffffffffff168273ffffffffffffffffffffffffffffffffffffffff16141561280d576040517f08c379a000000000000000000000000000000000000000000000000000000000815260040161280490613b65565b60405180910390fd5b6128168161146c565b15612856576040517f08c379a000000000000000000000000000000000000000000000000000000000815260040161284d90613a25565b60405180910390fd5b61286260008383612131565b6001600360008473ffffffffffffffffffffffffffffffffffffffff1673ffffffffffffffffffffffffffffffffffffffff16815260200190815260200160002060008282546128b29190613dd4565b92505081905550816002600083815260200190815260200160002060006101000a81548173ffffffffffffffffffffffffffffffffffffffff021916908373ffffffffffffffffffffffffffffffffffffffff160217905550808273ffffffffffffffffffffffffffffffffffffffff16600073ffffffffffffffffffffffffffffffffffffffff167fddf252ad1be2c89b69c2b068fc378daa952ba7f163c4a11628f55a4df523b3ef60405160405180910390a45050565b600080823b905060008111915050919050565b82805461298a90613fd3565b90600052602060002090601f0160209004810192826129ac57600085556129f3565b82601f106129c557805160ff19168380011785556129f3565b828001600101855582156129f3579182015b828111156129f25782518255916020019190600101906129d7565b5b509050612a009190612a04565b5090565b5b80821115612a1d576000816000905550600101612a05565b5090565b6000612a34612a2f84613d31565b613d00565b905082815260208101848484011115612a4c57600080fd5b612a57848285613f67565b509392505050565b6000612a72612a6d84613d61565b613d00565b905082815260208101848484011115612a8a57600080fd5b612a95848285613f67565b509392505050565b600081359050612aac8161414c565b92915050565b600081359050612ac181614163565b92915050565b600081359050612ad68161417a565b92915050565b600081359050612aeb81614191565b92915050565b600081519050612b0081614191565b92915050565b600082601f830112612b1757600080fd5b8135612b27848260208601612a21565b91505092915050565b600082601f830112612b4157600080fd5b8135612b51848260208601612a5f565b91505092915050565b600081359050612b69816141a8565b92915050565b600060208284031215612b8157600080fd5b6000612b8f84828501612a9d565b91505092915050565b60008060408385031215612bab57600080fd5b6000612bb985828601612a9d565b9250506020612bca85828601612a9d565b9150509250929050565b600080600060608486031215612be957600080fd5b6000612bf786828701612a9d565b9350506020612c0886828701612a9d565b9250506040612c1986828701612b5a565b9150509250925092565b60008060008060808587031215612c3957600080fd5b6000612c4787828801612a9d565b9450506020612c5887828801612a9d565b9350506040612c6987828801612b5a565b925050606085013567ffffffffffffffff811115612c8657600080fd5b612c9287828801612b06565b91505092959194509250565b60008060408385031215612cb157600080fd5b6000612cbf85828601612a9d565b9250506020612cd085828601612ab2565b9150509250929050565b60008060408385031215612ced57600080fd5b6000612cfb85828601612a9d565b9250506020612d0c85828601612b5a565b9150509250929050565b600060208284031215612d2857600080fd5b6000612d3684828501612ac7565b91505092915050565b60008060408385031215612d5257600080fd5b6000612d6085828601612ac7565b9250506020612d7185828601612a9d565b9150509250929050565b600060208284031215612d8d57600080fd5b6000612d9b84828501612adc565b91505092915050565b600060208284031215612db657600080fd5b6000612dc484828501612af1565b91505092915050565b600060208284031215612ddf57600080fd5b600082013567ffffffffffffffff811115612df957600080fd5b612e0584828501612b30565b91505092915050565b600060208284031215612e2057600080fd5b6000612e2e84828501612b5a565b91505092915050565b612e4081613ee9565b82525050565b612e4f81613efb565b82525050565b612e5e81613f07565b82525050565b6000612e6f82613d91565b612e798185613da7565b9350612e89818560208601613f76565b612e928161413b565b840191505092915050565b6000612ea882613d9c565b612eb28185613db8565b9350612ec2818560208601613f76565b612ecb8161413b565b840191505092915050565b6000612ee182613d9c565b612eeb8185613dc9565b9350612efb818560208601613f76565b80840191505092915050565b6000612f14602083613db8565b91507f537472696e67733a20686578206c656e67746820696e73756666696369656e746000830152602082019050919050565b6000612f54603283613db8565b91507f4552433732313a207472616e7366657220746f206e6f6e20455243373231526560008301527f63656976657220696d706c656d656e74657200000000000000000000000000006020830152604082019050919050565b6000612fba602683613db8565b91507f4f776e61626c653a206e6577206f776e657220697320746865207a65726f206160008301527f64647265737300000000000000000000000000000000000000000000000000006020830152604082019050919050565b6000613020601c83613db8565b91507f4552433732313a20746f6b656e20616c7265616479206d696e746564000000006000830152602082019050919050565b6000613060603083613db8565b91507f6d6178696d756d206e756d626572206f66207075626c696320746f6b656e732060008301527f68617665206265656e206d696e746564000000000000000000000000000000006020830152604082019050919050565b60006130c6602083613db8565b91507f6e756d5265736572766564546f6b656e732063616e6e6f74206265207a65726f6000830152602082019050919050565b6000613106602483613db8565b91507f4552433732313a207472616e7366657220746f20746865207a65726f2061646460008301527f72657373000000000000000000000000000000000000000000000000000000006020830152604082019050919050565b600061316c603883613db8565b91507f63616e6e6f74206368616e67652074656d706f72617279207075626c6963207660008301527f616c756520746f20657863656564206d61782076616c756500000000000000006020830152604082019050919050565b60006131d2601983613db8565b91507f4552433732313a20617070726f766520746f2063616c6c6572000000000000006000830152602082019050919050565b6000613212602c83613db8565b91507f4552433732313a206f70657261746f7220717565727920666f72206e6f6e657860008301527f697374656e7420746f6b656e00000000000000000000000000000000000000006020830152604082019050919050565b6000613278603883613db8565b91507f4552433732313a20617070726f76652063616c6c6572206973206e6f74206f7760008301527f6e6572206e6f7220617070726f76656420666f7220616c6c00000000000000006020830152604082019050919050565b60006132de602a83613db8565b91507f4552433732313a2062616c616e636520717565727920666f7220746865207a6560008301527f726f2061646472657373000000000000000000000000000000000000000000006020830152604082019050919050565b6000613344602983613db8565b91507f4552433732313a206f776e657220717565727920666f72206e6f6e657869737460008301527f656e7420746f6b656e00000000000000000000000000000000000000000000006020830152604082019050919050565b60006133aa602083613db8565b91507f4552433732313a206d696e7420746f20746865207a65726f20616464726573736000830152602082019050919050565b60006133ea602c83613db8565b91507f4552433732313a20617070726f76656420717565727920666f72206e6f6e657860008301527f697374656e7420746f6b656e00000000000000000000000000000000000000006020830152604082019050919050565b6000613450602083613db8565b91507f4f776e61626c653a2063616c6c6572206973206e6f7420746865206f776e65726000830152602082019050919050565b6000613490602983613db8565b91507f4552433732313a207472616e73666572206f6620746f6b656e2074686174206960008301527f73206e6f74206f776e00000000000000000000000000000000000000000000006020830152604082019050919050565b60006134f6602f83613db8565b91507f4552433732314d657461646174613a2055524920717565727920666f72206e6f60008301527f6e6578697374656e7420746f6b656e00000000000000000000000000000000006020830152604082019050919050565b600061355c602183613db8565b91507f4552433732313a20617070726f76616c20746f2063757272656e74206f776e6560008301527f72000000000000000000000000000000000000000000000000000000000000006020830152604082019050919050565b60006135c2603183613db8565b91507f7468657265206172652063757272656e746c79206e6f206d6f7265207075626c60008301527f696320746f6b656e7320746f206d696e740000000000000000000000000000006020830152604082019050919050565b6000613628603183613db8565b91507f4552433732313a207472616e736665722063616c6c6572206973206e6f74206f60008301527f776e6572206e6f7220617070726f7665640000000000000000000000000000006020830152604082019050919050565b600061368e601783613dc9565b91507f416363657373436f6e74726f6c3a206163636f756e74200000000000000000006000830152601782019050919050565b60006136ce602a83613db8565b91507f74686973206164647265737320686173207265616368656420697473206d696e60008301527f74696e67206c696d6974000000000000000000000000000000000000000000006020830152604082019050919050565b6000613734602f83613db8565b91507f6e756d626572206f6620746f6b656e732072657175657374656420657863656560008301527f6473206d617820726573657276656400000000000000000000000000000000006020830152604082019050919050565b600061379a603083613db8565b91507f4552433732314275726e61626c653a2063616c6c6572206973206e6f74206f7760008301527f6e6572206e6f7220617070726f766564000000000000000000000000000000006020830152604082019050919050565b6000613800601183613dc9565b91507f206973206d697373696e6720726f6c65200000000000000000000000000000006000830152601182019050919050565b6000613840602f83613db8565b91507f416363657373436f6e74726f6c3a2063616e206f6e6c792072656e6f756e636560008301527f20726f6c657320666f722073656c6600000000000000000000000000000000006020830152604082019050919050565b6138a281613f5d565b82525050565b60006138b48285612ed6565b91506138c08284612ed6565b91508190509392505050565b60006138d782613681565b91506138e38285612ed6565b91506138ee826137f3565b91506138fa8284612ed6565b91508190509392505050565b600060208201905061391b6000830184612e37565b92915050565b60006080820190506139366000830187612e37565b6139436020830186612e37565b6139506040830185613899565b81810360608301526139628184612e64565b905095945050505050565b60006020820190506139826000830184612e46565b92915050565b600060208201905061399d6000830184612e55565b92915050565b600060208201905081810360008301526139bd8184612e9d565b905092915050565b600060208201905081810360008301526139de81612f07565b9050919050565b600060208201905081810360008301526139fe81612f47565b9050919050565b60006020820190508181036000830152613a1e81612fad565b9050919050565b60006020820190508181036000830152613a3e81613013565b9050919050565b60006020820190508181036000830152613a5e81613053565b9050919050565b60006020820190508181036000830152613a7e816130b9565b9050919050565b60006020820190508181036000830152613a9e816130f9565b9050919050565b60006020820190508181036000830152613abe8161315f565b9050919050565b60006020820190508181036000830152613ade816131c5565b9050919050565b60006020820190508181036000830152613afe81613205565b9050919050565b60006020820190508181036000830152613b1e8161326b565b9050919050565b60006020820190508181036000830152613b3e816132d1565b9050919050565b60006020820190508181036000830152613b5e81613337565b9050919050565b60006020820190508181036000830152613b7e8161339d565b9050919050565b60006020820190508181036000830152613b9e816133dd565b9050919050565b60006020820190508181036000830152613bbe81613443565b9050919050565b60006020820190508181036000830152613bde81613483565b9050919050565b60006020820190508181036000830152613bfe816134e9565b9050919050565b60006020820190508181036000830152613c1e8161354f565b9050919050565b60006020820190508181036000830152613c3e816135b5565b9050919050565b60006020820190508181036000830152613c5e8161361b565b9050919050565b60006020820190508181036000830152613c7e816136c1565b9050919050565b60006020820190508181036000830152613c9e81613727565b9050919050565b60006020820190508181036000830152613cbe8161378d565b9050919050565b60006020820190508181036000830152613cde81613833565b9050919050565b6000602082019050613cfa6000830184613899565b92915050565b6000604051905081810181811067ffffffffffffffff82111715613d2757613d2661410c565b5b8060405250919050565b600067ffffffffffffffff821115613d4c57613d4b61410c565b5b601f19601f8301169050602081019050919050565b600067ffffffffffffffff821115613d7c57613d7b61410c565b5b601f19601f8301169050602081019050919050565b600081519050919050565b600081519050919050565b600082825260208201905092915050565b600082825260208201905092915050565b600081905092915050565b6000613ddf82613f5d565b9150613dea83613f5d565b9250827fffffffffffffffffffffffffffffffffffffffffffffffffffffffffffffffff03821115613e1f57613e1e61407f565b5b828201905092915050565b6000613e3582613f5d565b9150613e4083613f5d565b925082613e5057613e4f6140ae565b5b828204905092915050565b6000613e6682613f5d565b9150613e7183613f5d565b9250817fffffffffffffffffffffffffffffffffffffffffffffffffffffffffffffffff0483118215151615613eaa57613ea961407f565b5b828202905092915050565b6000613ec082613f5d565b9150613ecb83613f5d565b925082821015613ede57613edd61407f565b5b828203905092915050565b6000613ef482613f3d565b9050919050565b60008115159050919050565b6000819050919050565b60007fffffffff0000000000000000000000000000000000000000000000000000000082169050919050565b600073ffffffffffffffffffffffffffffffffffffffff82169050919050565b6000819050919050565b82818337600083830152505050565b60005b83811015613f94578082015181840152602081019050613f79565b83811115613fa3576000848401525b50505050565b6000613fb482613f5d565b91506000821415613fc857613fc761407f565b5b600182039050919050565b60006002820490506001821680613feb57607f821691505b60208210811415613fff57613ffe6140dd565b5b50919050565b600061401082613f5d565b91507fffffffffffffffffffffffffffffffffffffffffffffffffffffffffffffffff8214156140435761404261407f565b5b600182019050919050565b600061405982613f5d565b915061406483613f5d565b925082614074576140736140ae565b5b828206905092915050565b7f4e487b7100000000000000000000000000000000000000000000000000000000600052601160045260246000fd5b7f4e487b7100000000000000000000000000000000000000000000000000000000600052601260045260246000fd5b7f4e487b7100000000000000000000000000000000000000000000000000000000600052602260045260246000fd5b7f4e487b7100000000000000000000000000000000000000000000000000000000600052604160045260246000fd5b6000601f19601f8301169050919050565b61415581613ee9565b811461416057600080fd5b50565b61416c81613efb565b811461417757600080fd5b50565b61418381613f07565b811461418e57600080fd5b50565b61419a81613f11565b81146141a557600080fd5b50565b6141b181613f5d565b81146141bc57600080fd5b5056fea2646970667358221220f5314591f95ed97e89b6a31016aee40dd7082f4135fd01ccc794efa71e0426d764736f6c63430008000033",
  "linkReferences": {},
  "deployedLinkReferences": {}
}